:020000040000FA
:0400000026EF00F0F7
:100008005782FACF07F0FBCF08F0F2AC0EEF00F002
:1000180010EF00F020EF00F09DA015EF00F017EFB3
:1000280000F020EF00F09EA01CEF00F01EEF00F0A3
:1000380020EF00F07CEC0BF008C0FBFF07C0FAFFD4
:100048005792110051EF0AF0AEEC0CF0000E0A6E58
:10005800000E096EEDEC0BF0000E0A6E000E096E34
:1000680086EC0CF09E909EA03CEF00F03EEF00F076
:1000780037EF00F0F2EC0CF00009D8B446EF00F0CE
:1000880048EF00F04AEF00F05DEC0CF0F2EC0CF0F9
:100098000009D8B452EF00F054EF00F056EF00F02A
:1000A8005DEC0CF0120E096E120E0A6E09EC0DF0E2
:1000B800F28CF28ED60E0001DA6FFF0EDB6F72EC57
:1000C8000CF0C80E0001DA6FFD0EDB6F72EC0CF05D
:1000D800FD0E0001DA6FFE0EDB6F72EC0CF0890E7C
:1000E8000001DA6FFC0EDB6F72EC0CF0750E00018C
:1000F800DA6FFD0EDB6F72EC0CF0F50E0001DA6FB3
:10010800FF0EDB6F72EC0CF0E8EC0CF00009D8B4D1
:1001180090EF00F092EF00F088EF00F033EC0CF075
:100128000001ED6F70EF02F00F0EDA6FFD0EDB6F5E
:1001380072EC0CF0950E0001DA6FFF0EDB6F72ECBB
:100148000CF0C20E0001DA6FFF0EDB6FBBCFDCF0E4
:10015800DD6B72EC0CF00F0E0001DA6FFD0EDB6F39
:1001680072EC0CF0860E0001DA6FFF0EDB6F72EC9A
:100178000CF0EE0E0001DA6FFF0EDB6F72EC0CF084
:10018800280E0001DA6FFF0EDB6F72EC0CF0CE0E5A
:100198000001DA6FFE0EDB6F72EC0CF0520E0001FC
:1001A800DA6FFF0EDB6F72EC0CF0CF0E0001DA6F26
:1001B800FC0EDB6F72EC0CF0120E0001DA6FFE0E13
:1001C800DB6F72EC0CF0ED0E0001DA6FFD0EDB6FE9
:1001D80072EC0CF0340E0001DA6FFE0EDB6F72EC7D
:1001E8000CF0430E0001DA6FFD0EDB6F72EC0CF0C1
:1001F800940E0001DA6FFE0EDB6F72EC0CF0B10E9C
:100208000001DA6FFE0EDB6F72EC0CF00F0E0001CE
:10021800DA6FFD0EDB6F72EC0CF088EF00F0DE0E8B
:10022800DA6FFF0EDB6F72EC0CF088EF00F0000E57
:10023800EE6F410EDA6FFD0EDB6F72EC0CF0000111
:10024800EE2B270EEE652BEF01F02DEF01F01DEFE1
:1002580001F0FF0088EF00F0000EEE6F410EDA6F3C
:10026800FD0EDB6F72EC0CF00001EE2B270EEE6535
:1002780040EF01F042EF01F032EF01F088EF00F0BB
:10028800000EEC6F9F0EDA6FFD0EDB6F72EC0CF058
:10029800FD0E0001DA6FFF0EDB6F72EC0CF0E8EC7C
:1002A8000CF00009D8A45BEF01F05DEF01F053EF0B
:1002B80001F0020E0001EF6F600EEF25D96EDA6AC9
:1002C800000EDA2233EC0CF0DF6E600E0001EF2531
:1002D800D96EDA6A000EDA22DF50EC27FA0EDA6FEE
:1002E800FF0EDB6F600EEF25D96EDA6A000EDA2298
:1002F800DF50EA6FEA51DC6FDD6B72EC0CF0600ED8
:100308000001EF25D96EDA6A000EDA220D0EDE182A
:10031800D8A491EF01F093EF01F09DEF01F00D0EDD
:10032800EC5F400EDA6FFD0EDB6F72EC0CF0A6EF9F
:1003380001F0EF2B1D0EEF65A4EF01F0A6EF01F021
:1003480060EF01F0610E0001EF25D96EDA6A000E48
:10035800DA22000EDF6E620EEF25D96EDA6A000E21
:10036800DA22ECC0DFFF020EEF6FB70EDA6FFF0E76
:10037800DB6F72EC0CF0600E0001EF25D96EDA6AC3
:10038800000EDA22DF50D8A4CCEF01F0CEEF01F056
:10039800D8EF01F0400EDA6FFD0EDB6F72EC0CF057
:1003A8000001EF2BEDEF01F0FA0EDA6FFF0EDB6FB5
:1003B800600EEF25D96EDA6A000EDA22DF50EA6F96
:1003C800EA51DC6FDD6B72EC0CF00001EF2BBFEF34
:1003D80001F0760EDA6FFF0EDB6F600EEF25D96E37
:1003E800DA6A000EDA22DF50EA6FEA51DC6FDD6B61
:1003F80072EC0CF0A10E0001DA6FFF0EDB6F60C02B
:10040800DCF0DD6B72EC0CF0AC0E0001DA6FFF0E65
:10041800DB6F61C0DCF0DD6B72EC0CF088EF00F094
:10042800E60EDA6FFE0EDB6F72EC0CF094EC08F05F
:100438000001606FE60EDA6FFF0EDB6F60C0DCF064
:10044800DD6B72EC0CF088EF00F0010E556E3D0E7E
:10045800DA6FFF0EDB6FF2C0DCF0DD6BF2C0DEF0AE
:10046800DF6B72EC0CF00001F22B88EF00F0A4AA0D
:1004780040EF02F042EF02F051EF02F0750EDA6F32
:10048800FE0EDB6F5DEC0CF00001EA6FEA51DC6FE9
:10049800DD6B72EC0CF088EF00F0550EDA6FFE0E93
:1004A800DB6F72EC0CF088EF00F088EF00F07198C9
:1004B8007188130EDA6FFF0EDB6F72EC0CF088EFA9
:1004C80000F0650EDA6FFF0EDB6FEDC0DCF0DD6B60
:1004D80072EC0CF088EF00F0ED51EA6FEB6BEB512A
:1004E800000AD8B47AEF02F065EF02F0EA513F0A49
:1004F800D8B498EF00F06D0AD8B43BEF02F0010AC7
:10050800D8B429EF02F00B0AD8B459EF02F0020A66
:10051800D8B41BEF01F0380AD8B488EF00F0060A07
:10052800D8B488EF00F0090AD8B444EF01F0020A01
:10053800D8B413EF01F01D0AD8B45BEF02F0010A3A
:10054800D8B414EF02F00B0AD8B488EF00F0020A0E
:10055800D8B430EF01F065EF02F026EF00F0BBC031
:10056800D9FFBCC0DAFFDECFF6FFDDCFF7FFF86AB0
:100578000800F550250AD8A4C4EF02F0C6EF02F02F
:1005880028EF04F0BBC0D9FFBCC0DAFFDE2A000E9A
:10059800DD22000E506E000E4F6E4FC053F050C05B
:1005A80054F051685268BBC0D9FFBCC0DAFFDECF37
:1005B800F6FFDDCFF7FFF86A0800F550630AD8A404
:1005C800E8EF02F0EAEF02F012EF03F0BBC0D9FF48
:1005D800BCC0DAFFDE2A000EDD22BDC0D9FFBEC0D6
:1005E800DAFFDFCFBFF0020EDE26DFCFC0F0000E4D
:1005F800DD22BFC0D9FFC0C0DAFFDF500001D36FD2
:10060800B9C026F0BAC027F0D3C028F0AFEC0AF082
:1006180026C0B9F027C0BAF044EF04F0BBC0D9FF38
:10062800BCC0DAFFDECFF6FFDDCFF7FFF86A0800BF
:10063800F550640AD8B423EF03F025EF03F038EF40
:1006480003F0BBC0D9FFBCC0DAFFDECFF6FFDDCFB9
:10065800F7FFF86A0800F550690AD8A436EF03F0E6
:1006680038EF03F079EF03F0BBC0D9FFBCC0DAFF65
:10067800DE2A000EDD22BDC0D9FFBEC0DAFFDFCF03
:10068800BFF0020EDE26DFCFC0F0000EDD22BFC0B5
:10069800D9FFC0C0DAFFDECFC3F0DDCFC4F0000160
:1006A800000EC4BFFF0EC56FC66FC76FC86FC96F96
:1006B800CA6FB9C026F0BAC027F0C3C028F0C4C0BA
:1006C80029F0C5C02AF0C6C02BF0C7C02CF0C8C09E
:1006D8002DF0C9C02EF0CAC02FF045EC04F026C09A
:1006E800B9F027C0BAF044EF04F0BBC0D9FFBCC0D2
:1006F800DAFFDECFF6FFDDCFF7FFF86A0800F55026
:10070800780AD8B48AEF03F08CEF03F09FEF03F078
:10071800BBC0D9FFBCC0DAFFDECFF6FFDDCFF7FFE5
:10072800F86A0800F550580AD8A49DEF03F09FEF27
:1007380003F0EFEF03F0BBC0D9FFBCC0DAFFDECF98
:10074800F6FFDDCFF7FFF86A0800F5CFD3F0BBC09E
:10075800D9FFBCC0DAFFDE2A000EDD22BDC0D9FFFA
:10076800BEC0DAFFDFCFBFF0020EDE26DFCFC0F05B
:10077800000EDD22BFC0D9FFC0C0DAFFDECFC1F056
:10078800DDCFC2F0C1C0CBF0C2C0CCF00001CD6B50
:10079800CE6BCF6BD06BD16BD26BB9C026F0BAC021
:1007A80027F0CBC028F0CCC029F0CDC02AF0CEC0AD
:1007B8002BF0CFC02CF0D0C02DF0D1C02EF0D2C07D
:1007C8002FF0D3C030F0B4EC05F026C0B9F027C044
:1007D800BAF044EF04F0BBC0D9FFBCC0DAFFDECFEB
:1007E800F6FFDDCFF7FFF86A0800F550250AD8A410
:1007F80000EF04F002EF04F01AEF04F0BBC0D9FFD9
:10080800BCC0DAFFDE2A000EDD22000E0C6E250EBB
:100818000B6EB9C00DF0BAC00EF0D4EC09F0000EA2
:100828000001BA6F010EB96F44EF04F0BBC0D9FFE5
:10083800BCC0DAFFDE2A000EDD22000E0001BA6F0E
:10084800000EB96F44EF04F0BBC0D9FFBCC0DAFF9B
:10085800DECFF6FFDDCFF7FFF86A0800F5500B6E24
:100868000C6AB9C00DF0BAC00EF0D4EC09F0BBC0E8
:10087800D9FFBCC0DAFFDE2A000EDD2213EF04F038
:10088800120028C040F029C041F02AC042F02BC015
:1008980043F02CC044F02DC045F02EC046F02FC0C8
:1008A80047F047BE5AEF04F05DEF04F0010E5EEF2B
:1008B80004F0000E3E6E3F6A3E503F10D8B467EF1A
:1008C80004F069EF04F079EF04F0471E461E451E58
:1008D800441E431E421E411E406C000E412242220D
:1008E8004322442245224622472252BE7EEF04F08C
:1008F80080EF04F081EF04F0539252BE8EEF04F0C3
:10090800525006E15104D8B08CEF04F08EEF04F099
:1009180094EF04F0000E3B6E010E3A6E98EF04F06F
:1009280051C03AF052C03BF04FC03CF050C03DF0CF
:100938003E503F10D8A4A3EF04F0A5EF04F0ACEFAD
:1009480004F053A4AAEF04F0ACEF04F0AFEF04F006
:100958003C06D8A03D06000E496E1F0E486E000EDC
:100968000001B86F34EF05F04806D8A04906990E83
:100978004824D96E000E4920DA6E40C009F041C003
:100988000AF042C00BF043C00CF044C00DF045C063
:100998000EF046C00FF047C010F00A0E116E000EA0
:1009A800126E000E136E000E146E000E156E000E01
:1009B800166E000E176E000E186EE2EC07F009C0F6
:1009C80030F00AC031F00BC032F00CC033F00DC06B
:1009D80034F00EC035F00FC036F010C037F030C01C
:1009E8001BF032C01CF0FEEC0AF01B50300FDF6E1B
:1009F8003A06D8A03B063C06D8A03D0640C009F000
:100A080041C00AF042C00BF043C00CF044C00DF0E6
:100A180045C00EF046C00FF047C010F00A0E116E28
:100A2800000E126E000E136E000E146E000E156E80
:100A3800000E166E000E176E000E186E1EEC07F0F4
:100A480009C040F00AC041F00BC042F00CC043F0AE
:100A58000DC044F00EC045F00FC046F010C047F07E
:100A680049BE3FEF05F0495008E14804D8A03FEFE0
:100A780005F041EF05F071EF05F0405041104210CC
:100A880043104410451046104710D8A44EEF05F007
:100A980050EF05F0B8EF04F03BBE5DEF05F03B50BA
:100AA80006E13A04D8B05BEF05F05DEF05F0B8EF6A
:100AB80004F03DBE68EF05F03D5008E13C04D8A0C5
:100AC80068EF05F06AEF05F071EF05F053B26FEFCC
:100AD80005F071EF05F0B8EF04F03E503F10D8A4D0
:100AE80078EF05F07AEF05F081EF05F053A47FEF7A
:100AF80005F081EF05F09FEF05F04806D8A04906FC
:100B08003E503F10D8A48BEF05F08DEF05F093EF22
:100B180005F0000E396E2B0E386E97EF05F0000EBB
:100B2800396E2D0E386E990E4824D96E000E492064
:100B3800DA6E38C0DFFF26C01BF027C01CF0990E04
:100B480048241D6E000E49201E6E3CC01FF03DC09B
:100B580020F073EC09F01BC026F01CC027F012002F
:100B680052BEB9EF05F0BBEF05F0BCEF05F05392AC
:100B780052BEC9EF05F0525006E15104D8B0C7EF94
:100B880005F0C9EF05F0CFEF05F0000E3E6E010E3F
:100B98003D6ED3EF05F051C03DF052C03EF04FC05E
:100BA8003FF050C040F053A8DCEF05F0DEEF05F051
:100BB800E2EF05F0FE0E3F26FF0E402228C041F06E
:100BC80029C042F02AC043F02BC044F02CC045F0A5
:100BD8002DC046F02EC047F02FC048F0000E4A6ED8
:100BE8001F0E496E000E0001B86FAEEF06F0490601
:100BF800D8A04A060F0E41144B6E4C6A4CBE0EEF3D
:100C080006F04C5009E10A0E4B5CD8A00EEF06F036
:100C180010EF06F018EF06F0570E4B244B6E000E3F
:100C28004C204C6E1EEF06F0300E4B244B6E000E1F
:100C38004C204C6EBF0E316EFF0E326E3050336E4C
:100C4800346A315033263250342234500AE11A0EB5
:100C5800335CD8A032EF06F035EF06F0010E36EF20
:100C680006F0000E396E3A6A39503A10D8B43FEFA0
:100C780006F041EF06F071EF06F09F0E316EFF0EA1
:100C8800326E200E4B10336E000E4C10346E315005
:100C980033263250342234500AE11A0E335CD8A07D
:100CA80058EF06F05BEF06F0010E5CEF06F0000E61
:100CB8003B6E3C6A3B503C10D8B465EF06F067EFDA
:100CC80006F071EF06F04BC00FF04CC010F080EC4E
:100CD8000AF00FC04BF010C04CF0990E4924D96EA1
:100CE800000E4A20DA6E4BC0DFFF3D06D8A03E0654
:100CF8003F06D8A0400641C031F042C032F043C0A0
:100D080033F044C034F045C035F046C036F047C033
:100D180037F048C038F0050E9BEF06F0D89038320F
:100D28003732363235323432333232323132E82EDB
:100D380092EF06F031C041F032C042F033C043F0C8
:100D480034C044F035C045F036C046F037C047F0EF
:100D580038C048F04ABEBAEF06F04A5009E1020E20
:100D6800495CD8A0BAEF06F0BCEF06F0ECEF06F04D
:100D78004150421043104410451046104710481087
:100D8800D8A4C9EF06F0CBEF06F0FBEF05F03EBEA6
:100D9800D8EF06F03E5006E13D04D8B0D6EF06F095
:100DA800D8EF06F0FBEF05F040BEE3EF06F0405049
:100DB80008E13F04D8A0E3EF06F0E5EF06F0ECEF1A
:100DC80006F053B2EAEF06F0ECEF06F0FBEF05F0A1
:100DD80053A8F1EF06F0F3EF06F009EF07F0490624
:100DE800D8A04A06990E4924D96E000E4A20DA6E18
:100DF80030C0DFFF4906D8A04A06990E4924D96EAB
:100E0800000E4A20DA6E300EDF6E26C01BF027C0B7
:100E18001CF0990E49241D6E000E4A201E6E3FC01C
:100E28001FF040C020F073EC09F01BC026F01CC076
:100E380027F01200000E1A6E18BE27EF07F025EFF4
:100E480007F039EF07F0181E171E161E151E141E80
:100E5800131E121E116C000E1222132214221522C8
:100E6800162217221822010E1A6E10BE40EF07F044
:100E78003EEF07F052EF07F0101E0F1E0E1E0D1E5C
:100E88000C1E0B1E0A1E096C000E0A220B220C22D5
:100E98000D220E220F221022010E1A1A20EE1BF02C
:100EA800070EDE6AE806FDE2115012101310141046
:100EB8001510161017101810D8B465EF07F067EF63
:100EC80007F0B9EF07F0010E196E75EF07F0D8902B
:100ED80011361236133614361536163617361836B6
:100EE800192A18AE7AEF07F07CEF07F06BEF07F0DE
:100EF800D8901B361C361D361E361F362036213636
:100F080022361150095C12500A5813500B581450CD
:100F18000C5815500D5816500E5817500F58185099
:100F28001058D8A09AEF07F09CEF07F0ADEF07F044
:100F38001150095E12500A5A13500B5A14500C5A89
:100F480015500D5A16500E5A17500F5A1850105A5D
:100F58001B80D890183217321632153214321332D9
:100F680012321132192E7CEF07F01A50D8B4BFEFA5
:100F780007F0C1EF07F0D1EF07F0221E211E201E57
:100F88001F1E1E1E1D1E1C1E1B6C000E1C221D2259
:100F98001E221F222022212222221BC009F01CC04F
:100FA8000AF01DC00BF01EC00CF01FC00DF020C0D1
:100FB8000EF021C00FF022C010F01200000E1A6EC1
:100FC80010BEEBEF07F0E9EF07F0FDEF07F0101E9A
:100FD8000F1E0E1E0D1E0C1E0B1E0A1E096C000E87
:100FE8000A220B220C220D220E220F221022010EA1
:100FF8001A6E18BE04EF08F002EF08F014EF08F0BC
:10100800181E171E161E151E141E131E121E116CF6
:10101800000E122213221422152216221722182239
:101028001150121013101410151016101710181054
:10103800D8B421EF08F023EF08F06BEF08F0010EA9
:10104800196E31EF08F0D89011361236133614366F
:101058001536163617361836192A18AE36EF08F030
:1010680038EF08F027EF08F01150095C12500A58C1
:1010780013500B5814500C5815500D5816500E5844
:1010880017500F5818501058D8A04DEF08F04FEFD0
:1010980008F05FEF08F01150095E12500A5A135019
:1010A8000B5A14500C5A15500D5A16500E5A175008
:1010B8000F5A1850105AD890183217321632153263
:1010C8001432133212321132192E38EF08F01A5036
:1010D800D8B471EF08F073EF08F083EF08F0101E32
:1010E8000F1E0E1E0D1E0C1E0B1E0A1E096C000E76
:1010F8000A220B220C220D220E220F22102209C0D6
:1011080009F00AC00AF00BC00BF00CC00CF00DC0BF
:101118000DF00EC00EF00FC00FF010C010F012004E
:10112800000E0001E96F000EE76FE8EC0CF0000913
:10113800D8B4A1EF08F0A3EF08F099EF08F033EC6A
:101148000CF00001E66F0D0EE619D8A4AEEF08F01A
:10115800B0EF08F0B2EF08F000EF09F0FA0EDA6F1E
:10116800FF0EDB6FE6C0DCF0DD6B72EC0CF000010B
:10117800E651D00FE86FCC0EDA6FFF0EDB6FE8C0D8
:10118800DCF0DD6B72EC0CF0DDEF08F0E851640D7B
:10119800F350E925E96FF7EF08F0E8510A0DF3502D
:1011A800E925E96FF7EF08F0E951E825E96FF7EF6E
:1011B80008F00001E751E46FE56BE551000AD8B487
:1011C800E8EF08F0F7EF08F0E451000AD8B4CAEFE6
:1011D80008F0010AD8B4D1EF08F0030AD8B4D8EF60
:1011E80008F0F7EF08F0E72B020EE765FEEF08F0CE
:1011F80000EF09F099EF08F0400EDA6FFD0EDB6F93
:1012080072EC0CF00001E95112005504D8A40FEF5C
:1012180009F011EF09F06BEF09F055EF09F0000E36
:10122800026E190E016E05EC0CF0010E0001946FB0
:10123800010E566E6BEF09F05650D8A426EF09F050
:1012480028EF09F034EF09F0000E946F000E026EDB
:10125800000E016E05EC0CF0000E556E4CEF09F017
:10126800F25156140009D8B43CEF09F03EEF09F0EA
:1012780046EF09F0000E026E000E016E05EC0CF050
:101288004CEF09F0000E026E190E016E05EC0CF021
:1012980056505624566E6BEF09F0000E946F6BEFA4
:1012A80009F000019451056E066A0650000AD8B488
:1012B80060EF09F051EF09F00550000AD8B413EFB8
:1012C80009F0010AD8B420EF09F051EF09F0E50E52
:1012D800026EF60E016E9AEC0CF09E90120053A06E
:1012E80078EF09F07AEF09F084EF09F01DC014F0E7
:1012F8001EC015F01BC016F01CC017F0DCEC0AF07D
:1013080020BE89EF09F08BEF09F091EF09F01FC0BB
:1013180024F020C025F095EF09F0000E256E000E90
:10132800246E000E236E000E226EA7EF09F0000E49
:101338000C6E200E0B6E1BC00DF01CC00EF0D4EC12
:1013480009F0224A232A2450225C2350800A216E65
:101358002550800A2158D8A0B4EF09F0B6EF09F05B
:101368009BEF09F053B0BBEF09F0BDEF09F0C7EFF1
:1013780009F01DC014F01EC015F01BC016F01CC0EB
:1013880017F0DCEC0AF01DC009F01EC00AF0D2EC20
:101398000BF0245009241B6E25500A201C6E1200E5
:1013A8000D500E10D8B4DBEF09F0DDEF09F0E6EFD1
:1013B80009F00D500E10D8A4E4EF09F0E6EF09F09B
:1013C800EBEF09F00B5004EC0DF01EEF0AF020EEE5
:1013D80004F00D50D9260E50DA22DE50DE10D8B4B3
:1013E800F8EF09F0FAEF09F015EF0AF020EE04F033
:1013F8000D50D9260E50DA2210EE02F00D50E126DB
:101408000E50E222DE50E65CE650800A136EDE5093
:10141800800A1358D8B013EF0AF015EF0AF01EEF40
:101428000AF020EE02F00D50D9260E50DA22DE2AFC
:10143800000EDD221200D6C04DF0D7C04EF0000ECF
:101448000001816F000E806F3DEF0AF0D4C0B9F043
:10145800D5C0BAF04D0EBB6F000EBC6FD8C0BDF042
:10146800D9C0BEF0B3EC02F00001B9518027BA51DF
:1014780081234DC0F6FF4EC0F7FFF86A0800F5500B
:101488000009D8A44AEF0AF04CEF0AF02AEF0AF054
:1014980080C0D4F081C0D5F012005C0EF66E1A0E32
:1014A800F76E000EF86E0900F5CFF0F00900F5CFE1
:1014B800F1F00900F5CFF2F0620EF66E1A0EF76E33
:1014C800000EF86E0900F5CF56F001EE00F0200E80
:1014D800EE6AE806FDE100EE60F0590EEE6AE806F5
:1014E800FDE100EE4FF0070EEE6AE806FDE15790C9
:1014F8005792000128EF00F09F0E116EFF0E126E3A
:101508000FC013F010C014F01150132612501422FB
:1015180014500AE11A0E135CD8A095EF0AF098EF60
:101528000AF0010E99EF0AF0000E156E166A1550B2
:101538001610D8B4A2EF0AF0A4EF0AF0AAEF0AF046
:101548005F0E0F140F6E106AAEEF0AF00FC00FF0A7
:1015580010C010F012004F505010D8A4B6EF0AF087
:10156800B8EF0AF0BEEF0AF04FC029F050C02AF0D9
:10157800C4EF0AF0FF0E4F24296EFF0E50202A6E8A
:1015880028C099F0000E00019A6F26C01BF027C0F2
:101598001CF0990E1D6E000E1E6E29C01FF02AC089
:1015A80020F073EC09F01BC026F01CC027F01200D5
:1015B800000E1A6E000E196EEDEF0AF018C00BF04F
:1015C8000C6A16C00DF017C00EF0D4EC09F0194AD9
:1015D8001A2A19501424D96E1A501520DA6EDF50C1
:1015E800186E1850D8A4FBEF0AF0FDEF0AF0E2EFEE
:1015F8000AF012001CBE0BEF0BF01C5006E11B0496
:10160800D8B009EF0BF00BEF0BF019EF0BF01BC084
:101618001DF01CC01EF01D1E1E1E1D4A1E2A1DC0C8
:101628001BF01EC01CF01DEF0BF01BC01BF01CC0F4
:101638001CF01200080E706E900E716E240E726E01
:101648000A0E756E1A0E766E000E096E000E0A6E80
:1016580013EC0DF0000E096E000E0A6E0EEC0DF084
:10166800000E096E000E0A6E18EC0DF0000E000157
:10167800936F1200080EB86E900EAB6E240EAC6E0F
:10168800820EAF6E060EB06E000E096E000E0A6E68
:1016980022EC0DF0000E096E000E0A6E1DEC0DF026
:1016A800000E096E000E0A6E27EC0DF0000E000108
:1016B800926F12009F0E0B6EFF0E0C6E200E09101B
:1016C8000D6E000E0A100E6E0B500D260C500E22D9
:1016D8000E500AE11A0E0D5CD8A075EF0BF078EFEA
:1016E8000BF0010E79EF0BF0000E096E0A6A12007A
:1016F8009E9090C001F091C002F09AEC0CF00001AD
:101708008E518F11D8B48BEF0BF08DEF0BF099EF52
:101718000BF002D899EF0BF00500FA6E8E51FD6EB2
:101728008F51FE6EFF6AFA50120012009F0E0B6E68
:10173800FF0E0C6E09C00DF00AC00EF00B500D26FE
:101748000C500E220E500AE11A0E0D5CD8A0AFEF15
:101758000BF0B2EF0BF0010EB3EF0BF0000E096EB9
:101768000A6A1200BF0E0B6EFF0E0C6E09C00DF058
:101778000AC00EF00B500D260C500E220E500AE136
:101788001A0E0D5CD8A0CBEF0BF0CEEF0BF0010ECC
:10179800CFEF0BF0000E096E0A6A120009C00BF0B9
:1017A8000AC00CF0DAEF0BF0094A0A2A09C0D9FF7F
:1017B8000AC0DAFFDF50D8A4E4EF0BF0E6EF0BF035
:1017C800D8EF0BF00B50095C096E0C500A580A6EE2
:1017D800120009C00BF00AC00CF0D8900C320B3282
:1017E800D8900C320B320B50676E09C00BF0030E09
:1017F8000B160B3AF00E0B166650CF0B0B10666EDD
:10180800120001C003F002C004F0D8900432033281
:10181800D890043203320350676E01C003F0030E00
:101828000316033AF00E03166650CF0B0310666ECC
:101838001200000E896E000E8A6E000E8B6E926882
:10184800BF0E936EBD0E946E3C0E0F013A6F3F0EA5
:10185800396F2F0E386F000E616EF18E12009EAA3E
:1018680038EF0CF03AEF0CF033EF0CF0000E0001FB
:10187800926FABA242EF0CF044EF0CF046EF0CF085
:10188800AB98AB88AE501200000ECC6E000ECF6E37
:10189800000ECE6ECECF90F0CFCF91F09E909D806F
:1018A800600E096E1A0E0A6E09EC0DF0010ECD6E6F
:1018B8001200A4AA62EF0CF064EF0CF05DEF0CF0DC
:1018C800000E0001936F71A26CEF0CF06EEF0CF03C
:1018D80070EF0CF07198718874501200DC0E0001E2
:1018E800E26F000EE36F000ED46F000ED56FDAC002
:1018F800D6F0DBC0D7F0E20ED86F000ED96F1FEC20
:101908000AF01200CDA48BEF0CF08DEF0CF095EFE0
:101918000CF0CD900A50CF6E09C0CEFFCD8099EF64
:101928000CF00A50CF6E09C0CEFF1200CDA49FEF75
:101938000CF0A1EF0CF0A9EF0CF0CD900250CF6E97
:1019480001C0CEFFCD80ADEF0CF00250CF6E01C0CC
:10195800CEFF12002CEC0DF01DEC0CF0CFEC0CF0CF
:10196800BFEC0CF0FCEC0CF048EC0CF03EEC0BF08F
:101978001EEC0BF012001C0E666E000E646E800EDC
:10198800656E010E636E000E686E340E676EE70EAC
:101998000F0149171200700ED36E040ED26E400E5E
:1019A8009B6ED2AEDAEF0CF0DCEF0CF0D5EF0CF05A
:1019B8001200096E9EA8E3EF0CF0E5EF0CF0DEEFE5
:1019C8000CF009C0ADFF12009EBAEDEF0CF0F0EF7D
:1019D8000CF0010EF1EF0CF0000E1200A4BAF7EFB4
:1019E8000CF0FAEF0CF0010EFBEF0CF0000E1200F9
:1019F800680EBB6E000EBC6E9E92050EBA6E12008B
:101A08000A6E0A50DDEC0CF0120009C08EF00AC014
:101A18008FF0120009C08AF00AC08BF0120009C0CA
:101A28008CF00AC08DF0120009C088F00AC089F055
:101A3800120009C084F00AC085F0120009C086F0BF
:101A48000AC087F0120009C082F00AC083F01200B1
:071A5800D09E12001534308E
:031A600012000170
:10FC880000496E7374616C6C2061206A756D7065D3
:10FC98007220776972652066726F6D20524330203A
:10FCA800746F20524237204F4E4C592041465445DC
:10FCB8005220756E706C756767696E67205049438E
:10FCC8004B6974330D0A006D3A206372656174657F
:10FCD8002061204E554C4C207465726D696E6174BC
:10FCE8006564206D65737361676520776974682042
:10FCF80053524320616E642044455354207072650A
:10FD08006669782E0D0A002D2D2D2D2D2D2D2D2DCA
:10FD18002D2D2D2D2D2D2D2D2D2D2D2D2D2D2D2D0B
:10FD28002D2D2D2D2D2D2D2D2D2D2D2D2D2D2D2DFB
:10FD38002D2D2D2D2D2D2D2D0D0A00523A205265D9
:10FD48006365697665206D65737361676520757392
:10FD5800696E6720455553415254322076696120B7
:10FD68004952206465636F6465720D0A00496E73B9
:10FD780074616C6C2061206A756D706572206F7695
:10FD880065722049525F5458206865616465722025
:10FD980070696E730D0A00456E7465722061206D7E
:10FDA8006573736167652C20686974207265747562
:10FDB800726E207768656E20646F6E652E0D0A007E
:10FDC8005265636569766520616E64206465636F5A
:10FDD800646520616E2049522063686172616374B2
:10FDE80065720D0A00643A20736574204465737463
:10FDF800696E6174696F6E207472616E736D697477
:10FE0800207461726765740D0A00733A2073657413
:10FE180020736F75726365207472616E736D697497
:10FE2800206964656E746974790D0A00533A205329
:10FE3800656E64206D657373616765207573696E9F
:10FE48006720544D5231204953520D0A004E6F74A9
:10FE580068696E6720726563656976656420667295
:10FE68006F6D20455553415254320D0A004A75733F
:10FE780074207265616420696E2025632066726F44
:10FE88006D20455553415254320D0A004D3A204DCC
:10FE98006F6E69746F7220616C6C204952207472A5
:10FEA80061666669632E0D0A00782F523A206465F0
:10FEB800636F64652074782F5258206D6573736181
:10FEC80067652E0D0A007A3A20436C6561722074CA
:10FED8006865207465726D696E616C0D0A00456E07
:10FEE80074657220736F75726365206164647265EE
:10FEF80073733A200044657627323120426F61726D
:10FF08006420776972696E670D0A004A75737420F8
:10FF1800726573657420455553415254320D0A0079
:10FF28005A3A2052657365742070726F63657373F3
:10FF38006F720D0A006A7573742073656E742025DC
:10FF4800632020202025780D0A00623A207365740A
:10FF5800204261756420726174650D0A00556E6BEC
:10FF68006E6F776E206B65792025630D0A00096333
:10FF78006865636B73756D3A2025640D0A003F3A16
:10FF88002068656C70206D656E750D0A003234301E
:10FF98003020426175640D0A00095352433A202506
:10FFA800640D0A00094445533A2025640D0A0009E6
:10FFB8004D6573736167653A20005052323A2025C7
:10FFC800640D0A0044696769743A202564004C612D
:10FFD8006220370D0A006F3A096F6B0D0A00535201
:10FFE800433A202564006F3A206B0D0A000D0A3E43
:08FFF80020002563003E00001B
:020000040020DA
:08000000FFFFFFFFFFFFFFFF00
:020000040030CA
:0E000000FF281F3CFFBF85FF0FC00FE00F4021
:00000001FF
