:020000040000FA
:040000002EEF00F0EF
:100008005582FACF07F0FBCF08F0D9CF09F0DACF45
:100018000AF0F2AC12EF00F014EF00F024EF00F059
:100028009DA019EF00F01BEF00F024EF00F09EA058
:1000380020EF00F022EF00F024EF00F0EBEC09F0E5
:100048000AC0DAFF09C0D9FF08C0FBFF07C0FAFFE2
:10005800559211003DEF09F0E5EC0AF0000E0C6E28
:10006800000E0B6E24EC0AF0000E0C6E000E0B6EE8
:10007800BDEC0AF09E909EA044EF00F046EF00F021
:100088003FEF00F029EC0BF00009D8B44EEF00F078
:1000980050EF00F052EF00F094EC0AF029EC0BF06E
:1000A8000009D8B45AEF00F05CEF00F05EEF00F002
:1000B80094EC0AF09E0E0B6E0D0E0C6E40EC0BF0DD
:1000C800F28CF28ED30E0001D66FFF0ED76FA9EC1B
:1000D8000AF0D80E0001D66FFD0ED76FA9EC0AF012
:1000E8000A0E0001D66FFF0ED76FA9EC0AF0990E21
:1000F8000001D66FFC0ED76FA9EC0AF0850E00013F
:10010800D66FFD0ED76FA9EC0AF0EA0E0001D66F84
:10011800FF0ED76FA9EC0AF01FEC0BF00009D8B45A
:1001280098EF00F09AEF00F090EF00F06AEC0AF018
:100138000001E96F88EF02F01F0ED66FFD0ED76F32
:10014800A9EC0AF09C0E0001D66FFF0ED76FA9EC40
:100158000AF0C90E0001D66FFF0ED76FBBCFD8F0DB
:10016800D96BA9EC0AF01F0E0001D66FFD0ED76FF0
:10017800A9EC0AF08D0E0001D66FFF0ED76FA9EC1F
:100188000AF0E30E0001D66FFF0ED76FA9EC0AF054
:10019800350E0001D66FFF0ED76FA9EC0AF0DB0E03
:1001A8000001D66FFE0ED76FA9EC0AF04A0E0001C7
:1001B800D66FFF0ED76FA9EC0AF0DF0E0001D66FDD
:1001C800FC0ED76FA9EC0AF0220E0001D66FFE0EC6
:1001D800D76FA9EC0AF0FD0E0001D66FFD0ED76FA0
:1001E800A9EC0AF0440E0001D66FFE0ED76FA9ECF9
:1001F8000AF0530E0001D66FFD0ED76FA9EC0AF076
:10020800850E0001D66FFE0ED76FA9EC0AF0A20E7C
:100218000001D66FFE0ED76FA9EC0AF01F0E000181
:10022800D66FFD0ED76FA9EC0AF090EF00F0DB0E49
:10023800D66FFF0ED76FA9EC0AF090EF00F0000E12
:10024800EA6F510ED66FFD0ED76FA9EC0AF00001C8
:10025800EA2B270EEA6533EF01F035EF01F025EFC1
:1002680001F0FF0090EF00F0000EEA6F510ED66F1C
:10027800FD0ED76FA9EC0AF00001EA2B270EEA65FC
:1002880048EF01F04AEF01F03AEF01F090EF00F08B
:10029800000EE86FAF0ED66FFD0ED76FA9EC0AF00F
:1002A800FC0E0001D66FFF0ED76FA9EC0AF01FEC09
:1002B8000BF00009D8A463EF01F065EF01F05BEFE4
:1002C80001F0020E0001EB6F9C0EEB25D96EDA6A85
:1002D800000EDA226AEC0AF0DF6E9C0E0001EB25B4
:1002E800D96EDA6A000EDA22DF50E827F50ED66FEB
:1002F800FF0ED76F9C0EEB25D96EDA6A000EDA2254
:10030800DF50E66FE651D86FD96BA9EC0AF09C0E66
:100318000001EB25D96EDA6A000EDA220D0EDE181E
:10032800D8A499EF01F09BEF01F0A5EF01F00D0EB5
:10033800E85F500ED66FFD0ED76FA9EC0AF0AEEF4E
:1003480001F0EB2B1D0EEB65ACEF01F0AEEF01F009
:1003580068EF01F09D0E0001EB25D96EDA6A000EF8
:10036800DA22000EDF6E9E0EEB25D96EDA6A000ED9
:10037800DA22E8C0DFFF020EEB6FBE0ED66FFF0E6B
:10038800D76FA9EC0AF09C0E0001EB25D96EDA6A4A
:10039800000EDA22DF50D8A4D4EF01F0D6EF01F036
:1003A800E0EF01F0500ED66FFD0ED76FA9EC0AF002
:1003B8000001EB2BF5EF01F0F50ED66FFF0ED76FAE
:1003C8009C0EEB25D96EDA6A000EDA22DF50E66F52
:1003D800E651D86FD96BA9EC0AF00001EB2BC7EFF7
:1003E80001F06E0ED66FFF0ED76F9C0EEB25D96EFF
:1003F800DA6A000EDA22DF50E66FE651D86FD96B61
:10040800A9EC0AF0A80E0001D66FFF0ED76F9CC0AA
:10041800D8F0D96BA9EC0AF0B30E0001D66FFF0E25
:10042800D76F9DC0D8F0D96BA9EC0AF090EF00F017
:10043800F30ED66FFE0ED76FA9EC0AF06DEC07F03D
:1004480000019C6FA90ED66FFF0ED76F9CC0D8F025
:10045800D96BA9EC0AF090EF00F0BF0ED66FFE0E34
:10046800D76FA9EC0AF06DEC07F000019D6FB40E90
:10047800D66FFF0ED76F9DC0D8F0D96BA9EC0AF0E4
:1004880090EF00F0010E536E7B51D8A44EEF02F0AE
:1004980050EF02F048EF02F07E0ED66FFF0ED76FD6
:1004A800A9EC0AF090EF00F0A4AA5DEF02F05FEF6C
:1004B80002F061EF02F090EF00F0650ED66FFE0ECD
:1004C800D76FA9EC0AF090EF00F09C0EDE6F000EDB
:1004D800DF6F45EC08F090EF00F090EF00F07198B6
:1004E8007188200ED66FFF0ED76FA9EC0AF090EF37
:1004F80000F05D0ED66FFF0ED76FE9C0D8F0D96B4C
:10050800A9EC0AF090EF00F0E951E66FE76BE751CC
:10051800000AD8B492EF02F07DEF02F0E6513F0AEC
:10052800D8B4A0EF00F0720AD8B469EF02F01F0A3D
:10053800D8B458EF02F0010AD8B446EF02F00B0A1B
:10054800D8B471EF02F0020AD8B423EF01F0380AE8
:10055800D8B490EF00F0060AD8B431EF02F0090AD7
:10056800D8B44CEF01F0020AD8B41BEF01F01D0A11
:10057800D8B473EF02F0010AD8B41CEF02F00B0AEA
:10058800D8B490EF00F0020AD8B438EF01F07DEF4C
:1005980002F02EEF00F02AC0C4F02BC0C5F02CC02A
:1005A800C6F02DC0C7F02EC0C8F02FC0C9F030C0AB
:1005B800CAF031C0CBF00001CBBFE5EF02F0E8EFA5
:1005C80002F0010EE9EF02F0000EC26FC36BC251D8
:1005D800C311D8B4F2EF02F0F4EF02F004EF03F025
:1005E800CB1FCA1FC91FC81FC71FC61FC51FC46D81
:1005F800000EC523C623C723C823C923CA23CB2378
:1006080066BF09EF03F00BEF03F00CEF03F04D9218
:1006180066BF19EF03F0665106E16505D8B017EF1C
:1006280003F019EF03F01FEF03F0000EBF6F010E88
:10063800BE6F23EF03F065C0BEF066C0BFF04BC0CD
:10064800C0F04CC0C1F0C251C311D8A42EEF03F0C2
:1006580030EF03F037EF03F04DA435EF03F037EF39
:1006680003F03AEF03F0C007D8A0C107000ECD6F22
:100678001F0ECC6F000E9B6FBFEF03F0CC07D8A006
:10068800CD077C0ECC25D96E000ECD21DA6EC4C004
:100698000BF0C5C00CF0C6C00DF0C7C00EF0C8C046
:1006A8000FF0C9C010F0CAC011F0CBC012F00A0E8A
:1006B800136E000E146E000E156E000E166E000EF0
:1006C800176E000E186E000E196E000E1A6E1DECD5
:1006D80006F00BC032F00CC033F00DC034F00EC081
:1006E80035F00FC036F010C037F011C038F012C026
:1006F80039F032C01DF034C01EF08BEC09F01D50EB
:10070800300FDF6E0001BE07D8A0BF07C007D8A012
:10071800C107C4C00BF0C5C00CF0C6C00DF0C7C0FF
:100728000EF0C8C00FF0C9C010F0CAC011F0CBC09D
:1007380012F00A0E136E000E146E000E156E000EE7
:10074800166E000E176E000E186E000E196E000E53
:100758001A6E59EC05F00BC0C4F00CC0C5F00DC002
:10076800C6F00EC0C7F00FC0C8F010C0C9F011C065
:10077800CAF012C0CBF00001CDBFCBEF03F0CD51D2
:1007880008E1CC05D8A0CBEF03F0CDEF03F0FDEFE7
:1007980003F0C451C511C611C711C811C911CA1136
:1007A800CB11D8A4DAEF03F0DCEF03F042EF03F04B
:1007B800BFBFE9EF03F0BF5106E1BE05D8B0E7EFD0
:1007C80003F0E9EF03F042EF03F0C1BFF4EF03F0E9
:1007D800C15108E1C005D8A0F4EF03F0F6EF03F02B
:1007E800FDEF03F04DB2FBEF03F0FDEF03F042EF36
:1007F80003F0C251C311D8A404EF04F006EF04F0CB
:100808000DEF04F04DA40BEF04F00DEF04F02BEF07
:1008180004F0CC07D8A0CD07C251C311D8A417EF54
:1008280004F019EF04F01FEF04F0000EBD6F2B0E5B
:10083800BC6F23EF04F0000EBD6F2D0EBC6F7C0E55
:10084800CC25D96E000ECD21DA6EBCC0DFFF28C0E2
:100858001DF029C01EF07C0ECC251F6E000ECD2188
:10086800206EC0C021F0C1C022F0E4EC07F01DC02A
:1008780028F01EC029F012003CC0D9FF3DC0DAFFA5
:10088800DECFF6FFDDCFF7FFF86A0800F550250A3E
:10089800D8A451EF04F053EF04F03CEF05F03CC04E
:1008A800D9FF3DC0DAFFDE2A000EDD22000E4C6EB5
:1008B800000E4B6E4BC04DF04CC04EF00001656908
:1008C80066693CC0D9FF3DC0DAFFDECFF6FFDDCF59
:1008D800F7FFF86A0800F550630AD8A476EF04F029
:1008E80078EF04F09FEF04F03CC0D9FF3DC0DAFF79
:1008F800DE2A000EDD223EC0D9FF3FC0DAFFDFCF7F
:1009080040F0020EDE26DFCF41F0000EDD2240C0AF
:10091800D9FF41C0DAFFDF504A6E3AC028F03BC029
:1009280029F04AC02AF010EC09F028C03AF029C092
:100938003BF058EF05F03CC0D9FF3DC0DAFFDECFF1
:10094800F6FFDDCFF7FFF86A0800F550640AD8B45F
:10095800B0EF04F0B2EF04F0C5EF04F03CC0D9FFEB
:100968003DC0DAFFDECFF6FFDDCFF7FFF86A0800FB
:10097800F550690AD8A4C3EF04F0C5EF04F005EFF9
:1009880005F03CC0D9FF3DC0DAFFDE2A000EDD22AB
:100998003EC0D9FF3FC0DAFFDFCF40F0020EDE26AF
:1009A800DFCF41F0000EDD2240C0D9FF41C0DAFFA1
:1009B800DECF42F0DDCF43F0000E43BEFF0E446EA3
:1009C800456E466E476E486E496E3AC028F03BC089
:1009D80029F042C02AF043C02BF044C02CF045C097
:1009E8002DF046C02EF047C02FF048C030F049C067
:1009F80031F0CFEC02F028C03AF029C03BF058EFB4
:100A080005F03CC0D9FF3DC0DAFFDECFF6FFDDCFF1
:100A1800F7FFF86A0800F550250AD8A416EF05F084
:100A280018EF05F02FEF05F03CC0D9FF3DC0DAFF05
:100A3800DE2A000EDD22000E0E6E250E0D6E3AC067
:100A48000FF03BC010F093EC08F0000E3B6E010E67
:100A58003A6E58EF05F03CC0D9FF3DC0DAFFDE2AF8
:100A6800000EDD22000E3B6E000E3A6E58EF05F0C8
:100A78003CC0D9FF3DC0DAFFDECFF6FFDDCFF7FF80
:100A8800F86A0800F5500D6E0E6A3AC00FF03BC0C8
:100A980010F093EC08F03CC0D9FF3DC0DAFFDE2A25
:100AA800000EDD2229EF05F01200000E1C6E1ABEA2
:100AB80062EF05F060EF05F074EF05F01A1E191EDD
:100AC800181E171E161E151E141E136C000E142257
:100AD800152216221722182219221A22010E1C6E1C
:100AE80012BE7BEF05F079EF05F08DEF05F0121ED1
:100AF800111E101E0F1E0E1E0D1E0C1E0B6C000E5E
:100B08000C220D220E220F22102211221222010E77
:100B18001C1A20EE1DF0070EDE6AE806FDE21350EF
:100B28001410151016101710181019101A10D8B420
:100B3800A0EF05F0A2EF05F0F4EF05F0010E1B6E33
:100B4800B0EF05F0D890133614361536163617362A
:100B5800183619361A361B2A1AAEB5EF05F0B7EF54
:100B680005F0A6EF05F0D8901D361E361F36203644
:100B7800213622362336243613500B5C14500C5879
:100B880015500D5816500E5817500F581850105829
:100B9800195011581A501258D8A0D5EF05F0D7EFB0
:100BA80005F0E8EF05F013500B5E14500C5A155081
:100BB8000D5A16500E5A17500F5A1850105A1950ED
:100BC800115A1A50125A1D80D8901A3219321832F6
:100BD800173216321532143213321B2EB7EF05F0C6
:100BE8001C50D8B4FAEF05F0FCEF05F00CEF06F056
:100BF800241E231E221E211E201E1F1E1E1E1D6CAB
:100C0800000E1E221F2220222122222223222422F9
:100C18001DC00BF01EC00CF01FC00DF020C00EF060
:100C280021C00FF022C010F023C011F024C012F030
:100C38001200000E1C6E12BE26EF06F024EF06F01E
:100C480038EF06F0121E111E101E0F1E0E1E0D1E6E
:100C58000C1E0B6C000E0C220D220E220F221022ED
:100C680011221222010E1C6E1ABE3FEF06F03DEF54
:100C780006F04FEF06F01A1E191E181E171E161E34
:100C8800151E141E136C000E14221522162217228C
:100C9800182219221A2213501410151016101710A2
:100CA800181019101A10D8B45CEF06F05EEF06F0B1
:100CB800A6EF06F0010E1B6E6CEF06F0D890133607
:100CC8001436153616361736183619361A361B2ABC
:100CD8001AAE71EF06F073EF06F062EF06F01350EC
:100CE8000B5C14500C5815500D5816500E581750D0
:100CF8000F5818501058195011581A501258D8A097
:100D080088EF06F08AEF06F09AEF06F013500B5EB4
:100D180014500C5A15500D5A16500E5A17500F5A97
:100D28001850105A1950115A1A50125AD8901A328B
:100D380019321832173216321532143213321B2E6A
:100D480073EF06F01C50D8B4ACEF06F0AEEF06F027
:100D5800BEEF06F0121E111E101E0F1E0E1E0D1ED7
:100D68000C1E0B6C000E0C220D220E220F221022DC
:100D7800112212220BC00BF00CC00CF00DC00DF0AC
:100D88000EC00EF00FC00FF010C010F011C011F01F
:100D980012C012F012005304D8A4D5EF06F0D7EF12
:100DA80006F060EF07F043EF07F0010E00017B6FDC
:100DB800000E776F000E786F010E526E60EF07F02D
:100DC800000E026E190E016E3CEC0AF0010E546E14
:100DD800020E526E9C0E00017825D96EDA6A000E5A
:100DE800DA22DF50516E5450D8A4FDEF06F0FFEF21
:100DF80006F009EF07F0030E526E000E026E000EA9
:100E0800016E3CEC0AF01BEF07F051505414000936
:100E1800D8B411EF07F013EF07F015EF07F001EF63
:100E280007F0000E026E190E016E3CEC0AF05450E9
:100E38005424546E60EF07F000017705D8A427EF1B
:100E480007F029EF07F031EF07F0000E526E000EA1
:100E58007B6F000E536E60EF07F05150D8A437EF48
:100E680007F039EF07F03BEF07F0010E776F010E3F
:100E7800526E60EF07F0000E526E60EF07F05250AE
:100E8800056E066A0650000AD8B44DEF07F03FEF2A
:100E980007F00550000AD8B4D9EF06F0010AD8B413
:100EA800E4EF06F0030AD8B4F7EF06F0010AD8B465
:100EB80020EF07F03FEF07F00001EC510008016E4A
:100EC800ED51D8A0E82A0008026ED1EC0AF09E90F5
:100ED8001200000E0001E16F000EE26F000EE36FDA
:100EE800000EE56F1FEC0BF00009D8B47EEF07F099
:100EF80080EF07F076EF07F06AEC0AF00001E46F84
:100F08000D0EE419D8A48BEF07F08DEF07F08FEFE3
:100F180007F0C6EF07F0F50ED66FFF0ED76FE4C0E7
:100F2800D8F0D96BA9EC0AF0E10E0001E525D96EDD
:100F3800DA6A000EDA22E4C0DFFFE52B020EE5656F
:100F4800A8EF07F0AAEF07F076EF07F0C6EF07F073
:100F5800E151D00FE06FDBEF07F0E1510A0DF350DC
:100F6800E225F00FE06FDBEF07F0E2510A0DF3CF57
:100F7800DEF0E151640DF350DE25E325300FE06F1C
:100F8800DBEF07F0E551DE6FDF6BDF51000AD8B405
:100F9800D0EF07F0B9EF07F0DE51010AD8B4ACEF93
:100FA80007F0030AD8B4B1EF07F0B9EF07F0500E15
:100FB800D66FFD0ED76FA9EC0AF00001E0511200C0
:100FC8004DA0E9EF07F0EBEF07F0F5EF07F01FC0D2
:100FD80016F020C017F01DC018F01EC019F069ECFB
:100FE80009F022BEFAEF07F0FCEF07F002EF08F075
:100FF80021C026F022C027F006EF08F0000E276E69
:10100800000E266E000E256E000E246E18EF08F0F6
:10101800000E0E6E200E0D6E1DC00FF01EC010F0DB
:1010280093EC08F0244A252A2650245C2550800A8F
:10103800236E2750800A2358D8A025EF08F027EF01
:1010480008F00CEF08F04DB02CEF08F02EEF08F088
:1010580038EF08F01FC016F020C017F01DC018F0B8
:101068001EC019F069EC09F01FC00BF020C00CF08D
:1010780009EC0AF026500B241D6E27500C201E6E1A
:101088001200000E0001E26FE22BEF0ED66FFF0E8A
:10109800D76FE2C0D8F0D96BA9EC0AF0F80E0001BE
:1010A800D66FFF0ED76FE251DE25D96E000EDF2115
:1010B800DA6EDF50E06FE051D86FD96BA9EC0AF017
:1010C800F40E0001D66FFF0ED76FE251DE25D96E00
:1010D800000EDF21DA6EDF50E06FE051D86FD96B78
:1010E800A9EC0AF0500E0001D66FFD0ED76FA9ECDF
:1010F8000AF00001E251DE25E06F000EDF21E16F0A
:10110800FF0EE025D96EFF0EE121DA6EDF50D8A47C
:1011180090EF08F092EF08F048EF08F012000F5037
:101128001010D8B49AEF08F09CEF08F0A5EF08F07B
:101138000F501010D8A4A3EF08F0A5EF08F0AAEFFD
:1011480008F00D503BEC0BF0DDEF08F020EE04F05A
:101158000F50D9261050DA22DE50DE10D8B4B7EF7F
:1011680008F0B9EF08F0D4EF08F020EE04F00F50C3
:10117800D9261050DA2210EE02F00F50E126105056
:10118800E222DE50E65CE650800A156EDE50800AE8
:101198001558D8B0D2EF08F0D4EF08F0DDEF08F01A
:1011A80020EE02F00F50D9261050DA22DE2A000E67
:1011B800DD221200D0C0D4F0D1C0D5F0000E00015D
:1011C800646F000E636FFCEF08F0CEC03AF0CFC03A
:1011D8003BF0D40E3C6E000E3D6ED2C03EF0D3C044
:1011E8003FF040EC04F03A50000163273B50642381
:1011F800D4C0F6FFD5C0F7FFF86A0800F55000091B
:10120800D8A409EF09F00BEF09F0E9EF08F063C083
:10121800CEF064C0CFF012004B504C10D8A417EF9A
:1012280009F019EF09F01FEF09F04BC02BF04CC083
:101238002CF025EF09F0FF0E4B242B6EFF0E4C20EF
:101248002C6E2AC07CF0000E00017D6F28C01DF0B6
:1012580029C01EF07C0E1F6E000E206E2BC021F0E0
:101268002CC022F0E4EC07F01DC028F01EC029F0C5
:101278001200CA0EF66E160EF76E000EF86E090012
:10128800F5CFECF00900F5CFEDF0CE0EF66E160EA8
:10129800F76E000EF86E0900F5CF54F001EE00F07D
:1012A800200EEE6AE806FDE100EE60F05C0EEE6AE4
:1012B800E806FDE100EE4BF0090EEE6AE806FDE1F6
:1012C80055905592000130EF00F0000E1C6E000E94
:1012D8001B6E7AEF09F01AC00DF00E6A18C00FF0F5
:1012E80019C010F093EC08F01B4A1C2A1B50162456
:1012F800D96E1C501720DA6EDF501A6E1A50D8A417
:1013080088EF09F08AEF09F06FEF09F012001EBEAE
:1013180098EF09F01E5006E11D04D8B096EF09F0C9
:1013280098EF09F0A6EF09F01DC01FF01EC020F0CD
:101338001F1E201E1F4A202A1FC01DF020C01EF09D
:10134800AAEF09F01DC01DF01EC01EF01200080E05
:10135800706E900E716E240E726E0A0E756E1A0EF5
:10136800766E000E0B6E000E0C6E4AEC0BF0000E43
:101378000B6E000E0C6E45EC0BF0000E0B6E000EA3
:101388000C6E4FEC0BF0000E0001766F1200080E89
:10139800B86E900EAB6E240EAC6E820EAF6E060E5B
:1013A800B06E000E0B6E000E0C6E59EC0BF0000EBA
:1013B8000B6E000E0C6E54EC0BF0000E0B6E000E54
:1013C8000C6E5EEC0BF0000E0001756F12009E9023
:1013D8004FC001F050C002F0D1EC0AF00001735187
:1013E8007411D8B4FAEF09F0FCEF09F008EF0AF02D
:1013F80002D808EF0AF00500FA6E7351FD6E7451B9
:10140800FE6EFF6AFA50120012000BC00DF00CC0FD
:101418000EF011EF0AF00B4A0C2A0BC0D9FF0CC0D2
:10142800DAFFDF50D8A41BEF0AF01DEF0AF00FEF28
:101438000AF00D500B5C0B6E0E500C580C6E12001F
:101448000BC00DF00CC00EF0D8900E320D32D890B3
:101458000E320D320D50676E0BC00DF0030E0D16D7
:101468000D3AF00E0D166650CF0B0D10666E120079
:1014780001C003F002C004F0D89004320332D890BF
:10148800043203320350676E01C003F0030E0316E3
:10149800033AF00E03166650CF0B0310666E120067
:1014A800000E896E000E8A6E000E8B6E9268BF0E5B
:1014B800936EBD0E946E3C0E0F013A6F3F0E396F5E
:1014C8002F0E386F000E616EF18E12009EAA6FEF1C
:1014D8000AF071EF0AF06AEF0AF0000E0001756F6A
:1014E800ABA279EF0AF07BEF0AF07DEF0AF0AB9838
:1014F800AB88AE501200000ECC6E000ECF6E000E00
:10150800CE6ECECF4FF0CFCF50F09E909D80CC0EB8
:101518000B6E160E0C6E40EC0BF0010ECD6E120029
:10152800A4AA99EF0AF09BEF0AF094EF0AF0000ED4
:101538000001766F71A2A3EF0AF0A5EF0AF0A7EFFA
:101548000AF07198718874501200D80E0001DC6F8F
:10155800000EDD6F000ECE6F000ECF6FD6C0D0F03C
:10156800D7C0D1F0DC0ED26F000ED36FDEEC08F0DE
:101578001200CDA4C2EF0AF0C4EF0AF0CCEF0AF0D3
:10158800CD900C50CF6E0BC0CEFFCD80D0EF0AF0BF
:101598000C50CF6E0BC0CEFF1200CDA4D6EF0AF0D0
:1015A800D8EF0AF0E0EF0AF0CD900250CF6E01C0FC
:1015B800CEFFCD80E4EF0AF00250CF6E01C0CEFF1F
:1015C800120063EC0BF054EC0AF006EC0BF0F6ECAE
:1015D8000AF033EC0BF07FEC0AF0CBEC09F0ABEC43
:1015E80009F012001C0E666E000E646E800E656EA9
:1015F800010E636E000E686E340E676EE70E0F0103
:1016080049171200700ED36E040ED26E400E9B6EF8
:10161800D2AE11EF0BF013EF0BF00CEF0BF0120042
:101628000B6E9EA81AEF0BF01CEF0BF015EF0BF0EA
:101638000BC0ADFF12009EBA24EF0BF027EF0BF0A2
:10164800010E28EF0BF0000E1200A4BA2EEF0BF0DB
:1016580031EF0BF0010E32EF0BF0000E1200680EA6
:10166800BB6E000EBC6E9E92050EBA6E12000C6E1A
:101678000C5014EC0BF012000BC073F00CC074F09B
:1016880012000BC06FF00CC070F012000BC071F0AC
:101698000CC072F012000BC06DF00CC06EF012009E
:1016A8000BC069F00CC06AF012000BC06BF00CC0E4
:1016B8006CF012000BC067F00CC068F01200D09EEE
:0716C80012001534120001AD
:10FC980000496E7374616C6C2061206A756D7065C3
:10FCA8007220776972652066726F6D20524330202A
:10FCB800746F20524237204F4E4C592041465445CC
:10FCC8005220756E706C756767696E67205049437E
:10FCD8004B6974330D0A006D3A206372656174656F
:10FCE8002061204E554C4C207465726D696E6174AC
:10FCF8006564206D65737361676520776974682032
:10FD080053524320616E64204445535420707265F9
:10FD18006669782E0D0A002D2D2D2D2D2D2D2D2DBA
:10FD28002D2D2D2D2D2D2D2D2D2D2D2D2D2D2D2DFB
:10FD38002D2D2D2D2D2D2D2D2D2D2D2D2D2D2D2DEB
:10FD48002D2D2D2D2D2D2D2D0D0A00523A205265C9
:10FD58006365697665206D65737361676520757382
:10FD6800696E6720455553415254322076696120A7
:10FD78004952206465636F6465720D0A00496E73A9
:10FD880074616C6C2061206A756D706572206F7685
:10FD980065722049525F5458206865616465722015
:10FDA80070696E730D0A00456E7465722061206D6E
:10FDB8006573736167652C20686974207265747552
:10FDC800726E207768656E20646F6E652E0D0A006E
:10FDD8005265636569766520616E64206465636F4A
:10FDE800646520616E2049522063686172616374A2
:10FDF80065720D0A00643A20736574204465737453
:10FE0800696E6174696F6E207472616E736D697466
:10FE1800207461726765740D0A00733A2073657403
:10FE280020736F75726365207472616E736D697487
:10FE3800206964656E746974790D0A00533A205319
:10FE4800656E64206D657373616765207573696E8F
:10FE58006720544D5231204953520D0A004E6F7499
:10FE680068696E6720726563656976656420667285
:10FE78006F6D20455553415254320D0A004D3A20BA
:10FE88004D6F6E69746F7220616C6C2049522074DA
:10FE98007261666669632E0D0A00782F583A2064ED
:10FEA80065636F64652074782F5258206D6573738D
:10FEB8006167652E0D0A00456E746572206465736E
:10FEC80074696E6174696F6E2061646472657373BE
:10FED8003A20007A3A20436C656172207468652084
:10FEE8007465726D696E616C0D0A00456E74657299
:10FEF80020736F7572636520616464726573733A09
:10FF0800200044657627323120426F617264207781
:10FF18006972696E670D0A004A7573742072657399
:10FF2800657420455553415254320D0A005A3A20FF
:10FF380052657365742070726F636573736F720DA9
:10FF48000A00623A20736574204261756420726108
:10FF580074650D0A00556E6B6E6F776E206B657950
:10FF68002025630D0A0009636865636B73756D3A34
:10FF78002025640D0A005472616E736D697474658E
:10FF8800642E0D0A003F3A2068656C70206D656E1E
:10FF9800750D0A003234303020426175640D0A0054
:10FFA800095352433A2025640D0A00094445533A3F
:10FFB8002025640D0A00094D6573736167653A2051
:10FFC800005052323A2025640D0A004C61622037F5
:10FFD8000D0A006F3A096F6B0D0A006F3A206B0D1E
:10FFE8000A000D0A3E20000925643A00092563002D
:07FFF800092568003E00002E
:020000040020DA
:08000000FFFFFFFFFFFFFFFF00
:020000040030CA
:0E000000FF281F3CFFBF85FF0FC00FE00F4021
:00000001FF
