:020000040000FA
:040000004AEF00F0D3
:100008004E82FACF0BF0FBCF0CF0D9CF0DF0DACF40
:100018000EF0F3CF0FF0F4CF10F0F2AA16EF00F0C5
:1000280018EF00F023EF00F0F2A41DEF00F01FEF2F
:1000380000F023EF00F010EC06F03CEF00F0F2AC1B
:1000480028EF00F02AEF00F03CEF00F09DA02FEF22
:1000580000F031EF00F03CEF00F09EA036EF00F02A
:1000680038EF00F03CEF00F0D8EC05F03CEF00F082
:1000780010C0F4FF0FC0F3FF0EC0DAFF0DC0D9FFA8
:100088000CC0FBFF0BC0FAFF4E921100F9EF04F011
:10009800000E00019C6F000E9D6FE3EC06F0F28EDF
:1000A800F28C6E0E116E060E126E0AEC07F07A0EC6
:1000B800116E050E126E0FEC07F0DA0E0001C76F15
:1000C800FF0EC86F8AEC06F0400E0001C76FFF0EE6
:1000D800C86F8AEC06F0E50E0001C76FFF0EC86F07
:1000E8008AEC06F0A50E0001C76FFF0EC86F8AECF8
:1000F80006F0A60E0001C76FFE0EC86F8AEC06F068
:10010800FA0E0001C76FFF0EC86F8AEC06F0FBEC11
:1001180006F00009D8B493EF00F095EF00F08BEFEC
:1001280000F09EEC06F00001D86FE3EF01F0D30E6B
:10013800C76FFE0EC86F8AEC06F0B40E0001C76FD9
:10014800FF0EC86F8AEC06F0EE0E0001C76FFF0EB7
:10015800C86F8AEC06F06B0E0001C76FFF0EC86F00
:100168008AEC06F0120E0001C76FFF0EC86F8AEC0A
:1001780006F0800E0001C76FFF0EC86F8AEC06F00C
:10018800560E0001C76FFF0EC86F8AEC06F0D30E3B
:100198000001C76FFE0EC86F8AEC06F08BEF00F007
:1001A8002A0EC76FFF0EC86F8AEC06F0000E00011A
:1001B8009C6F010E9E6F8BEF00F0F50EC76FFF0E60
:1001C800C86F8AEC06F08BEF00F0F40EC76FFE0ED6
:1001D800C86F8AEC06F0010E00019C6F010E9E6F3D
:1001E8009E05D8B4FAEF00F0FCEF00F0F4EF00F051
:1001F800750EC76FFE0EC86F8AEC06F0F29A010EF4
:100208000001D76F000E9D6F6CEF01F080B40FEF07
:1002180001F011EF01F00AEF01F0C6EC06F011C091
:10022800D3F012C0D4F0010E4C6E80A41EEF01F082
:1002380020EF01F019EF01F0C6EC06F011C0D5F07F
:1002480012C0D6F0000E4C6E0001D351D55DD96FA7
:10025800D451D659DA6F9D512A0D1E0ECF6F1B0E41
:10026800D06F000ED16F010ED26FCF51D127D05170
:10027800D223F350D127F450D223D151D95DD25192
:10028800DA59D8A04AEF01F04CEF01F069EF01F01C
:100298009D512A0D1E0ECF6F1B0ED06F000ED16F11
:1002A800010ED26FCF51D127D051D223F350D1278D
:1002B800F450D223D151D95DD251DA59D8B067EF71
:1002C80001F069EF01F06BEF01F0000ED76F9D2B85
:1002D800900E9C25D96EDA6A000EDA22DE509D5DFA
:1002E800D8A079EF01F07BEF01F00AEF01F095EF6C
:1002F80001F0C30EC76FFF0EC86F8AEC06F0020E3E
:1003080000019C6F010E9E6FAAEF01F0CF0EC76F20
:10031800FF0EC86F8AEC06F0030E00019C6F86EF93
:1003280001F0D751CF6FD06BD051000AD8B49FEFEE
:1003380001F0AAEF01F0CF51000AD8B47DEF01F027
:10034800010AD8B48AEF01F0AAEF01F0F28A000E90
:100358009D6F8BEF00F0000EDB6FCC0EC76FFF0EAA
:10036800C86F8AEC06F00001DB2B270EDB65BFEFB8
:1003780001F0C1EF01F0B1EF01F0FF008BEF00F0E9
:10038800000EDB6FCC0EC76FFF0EC86F8AEC06F04D
:100398000001DB2B270EDB65D4EF01F0D6EF01F06F
:1003A800C6EF01F08BEF00F0940EC76FFF0EC86F19
:1003B800D8C0C9F0CA6B8AEC06F08BEF00F0D851B0
:1003C800CF6FD06BD051000AD8B4EDEF01F0D8EF61
:1003D80001F0CF513F0AD8B49BEF00F0650AD8B4BA
:1003E800AFEF01F0350AD8B4E1EF00F01F0AD8B436
:1003F800D4EF00F0020AD8B4E9EF00F0080AD8B444
:10040800C4EF01F0D8EF01F04AEF00F035C0D9FF92
:1004180036C0DAFFDECFF6FFDDCFF7FFF86A080057
:10042800F550250AD8A41BEF02F01DEF02F0A0EF4B
:1004380002F035C0D9FF36C0DAFFDE2A000EDD2211
:10044800000E3F6E000E3E6E3EC040F03FC041F0D1
:1004580000019469956935C0D9FF36C0DAFFDECF4F
:10046800F6FFDDCFF7FFF86A0800F550630AD8A455
:1004780040EF02F042EF02F069EF02F035C0D9FF19
:1004880036C0DAFFDE2A000EDD2237C0D9FF38C0B9
:10049800DAFFDFCF39F0020EDE26DFCF3AF0000EAA
:1004A800DD2239C0D9FF3AC0DAFFDF503B6E33C0D6
:1004B8002EF034C02FF03BC030F06AEC05F02EC0AF
:1004C80033F02FC034F0BCEF02F035C0D9FF36C08E
:1004D800DAFFDECFF6FFDDCFF7FFF86A0800F55048
:1004E800250AD8A47AEF02F07CEF02F093EF02F02D
:1004F80035C0D9FF36C0DAFFDE2A000EDD22000E35
:10050800146E250E136E33C015F034C016F0AEEC21
:1005180004F0000E346E010E336EBCEF02F035C0ED
:10052800D9FF36C0DAFFDE2A000EDD22000E346E57
:10053800000E336EBCEF02F035C0D9FF36C0DAFFCB
:10054800DECFF6FFDDCFF7FFF86A0800F550136E2F
:10055800146A33C015F034C016F0AEEC04F035C0A0
:10056800D9FF36C0DAFFDE2A000EDD228DEF02F059
:10057800120000019E05D8A4C4EF02F0C6EF02F0F5
:1005880036EF03F01DEF03F0010E9E6F010E4A6E69
:10059800000E9D6F36EF03F0010E4C6E9D51020D5B
:1005A800F3CF03F0F4CF04F09C512A0D000E056E32
:1005B800010E066EF3500526F4500622035005245A
:1005C800D96E04500620DA6EDECF07F0DDCF08F0D2
:1005D80007500008016E0850D8A0E82A0008026EEB
:1005E80023EC07F0020E4A6E36EF03F0FF0E026EA0
:1005F800E70E016E23EC07F0000E4C6E900E000122
:100608009C25D96EDA6A000EDA229D51DE18D8A42C
:1006180010EF03F012EF03F018EF03F0000E4A6E2C
:10062800000E9E6F36EF03F0010E4A6E9D2B36EFDB
:1006380003F04A50036E046A0450000AD8B427EF46
:1006480003F036EF03F00350000AD8B4C8EF02F005
:10065800010AD8B4D0EF02F0030AD8B4FAEF02F0D6
:1006680036EF03F012004C04D8A43DEF03F03FEF3F
:1006780003F0A4EF03F0900E00019C25D96EDA6A0E
:10068800000EDA22DE509D5DD8B04DEF03F04FEF3B
:1006980003F094EF03F09D51020DF3CF03F0F4CF74
:1006A80004F09C512A0D000E056E020E066EF350E2
:1006B8000526F450062203500524D96E045006205E
:1006C800DA6EDECF07F0DDCF08F0D89007360836AF
:1006D800600E0724D96E000E0820DA6EDECF09F00E
:1006E800DDCF0AF009500008016E0A50D8A0E82AA8
:1006F8000008026EB2EC06F08ABA85EF03F088EFC4
:1007080003F0010E89EF03F0000EFF0A036E033AAF
:1007180003468A500318DF0B03188A6EA4EF03F010
:10072800900E9C25D96EDA6A000EDA229D51DE18E9
:10073800D8A4A1EF03F0A3EF03F0A4EF03F08A9A83
:10074800120040A0AAEF03F0ACEF03F0B6EF03F0FD
:1007580025C01CF026C01DF023C01EF024C01FF0C9
:1007680097EC05F028BEBBEF03F0BDEF03F0C3EF35
:1007780003F027C02CF028C02DF0C7EF03F0000EBF
:100788002D6E000E2C6E000E2B6E000E2A6ED9EF09
:1007980003F0000E146E200E136E23C015F024C053
:1007A80016F0AEEC04F02A4A2B2A2C502A5C2B5067
:1007B800800A296E2D50800A2958D8A0E6EF03F048
:1007C800E8EF03F0CDEF03F040B0EDEF03F0EFEF0B
:1007D80003F0F9EF03F025C01CF026C01DF023C07C
:1007E8001EF024C01FF097EC05F025C011F026C0BC
:1007F80012F0F5EC05F02C501124236E2D50122028
:10080800246E1200127A8D5B841E1BB7093D093DC8
:10081800093D093D093D1BB7093D127A8D5B841ED0
:100828001BB7093D093D093D093D093D1BB7093D78
:10083800093D093D00000000000000000000000024
:1008480000000000000000000000000000000000A0
:100858000000000000000000093D093D093D093D78
:10086800093D093D093D00000000000000000000AE
:100878000000000000000000000000000000000070
:100888000000127A127A127A127A127A127A127A8C
:100898000000000000000000000000000000000050
:1008A8000000000000000000000000000C000F0025
:1008B8000F0008000A000C000D000F0011000A00CC
:1008C8000C0018000E000E000F001100130013009A
:1008D800110011000F0005000800110000000000C1
:1008E8000000000000000000000000000000000000
:1008F80000000000000000000000000000000000F0
:10090800130014001300140013000F00000000006F
:1009180000000000000000000000000000000000CF
:100928000000000000000000000013001400130085
:10093800140013000F000C00180000000000000055
:10094800000000000000000000000000000000009F
:100958000000000015501610D8B4B5EF04F0B7EF3A
:1009680004F0C0EF04F015501610D8A4BEEF04F040
:10097800C0EF04F0C5EF04F0135005EC07F0F8EFF2
:1009880004F020EE04F01550D9261650DA22DE5075
:10099800DE10D8B4D2EF04F0D4EF04F0EFEF04F097
:1009A80020EE04F01550D9261650DA2210EE02F087
:1009B8001550E1261650E222DE50E65CE650800A29
:1009C8001B6EDE50800A1B58D8B0EDEF04F0EFEF35
:1009D80004F0F8EF04F020EE02F01550D926165076
:1009E800DA22DE2A000EDD221200B40EF66E080EA0
:1009F800F76E000EF86E02EE00F010EEA8F0090097
:100A0800F5CFEEFFE550E150FAE10C0EF66E080E58
:100A1800F76E000EF86E01EE00F010EEA8F0090077
:100A2800F5CFEEFFE550E150FAE1560EF66E0C0EEA
:100A3800F76E000EF86E00EE60F010EE34F009006C
:100A4800F5CFEEFFE550E150FAE100EE94F02B0E01
:100A5800EE6AE806FDE100EE3CF0120EEE6AE806EA
:100A6800FDE14E904E9200014CEF00F0C1C0C5F080
:100A7800C2C0C6F0000E3D6E000E3C6E56EF05F08B
:100A8800BFC033F0C0C034F0C50E356E000E366EF0
:100A9800C3C037F0C4C038F00AEC02F033503C262B
:100AA80034503D22C5C0F6FFC6C0F7FFF86A0800FB
:100AB800F5500009D8A463EF05F065EF05F044EFA1
:100AC80005F03CC0BFF03DC0C0F012003E503F10E2
:100AD800D8A471EF05F073EF05F079EF05F03EC08B
:100AE80031F03FC032F07FEF05F0FF0E3E24316E4B
:100AF800FF0E3F20326E30C09FF0000E0001A06F45
:100B08002EC023F02FC024F09F0E256E000E266EF7
:100B180031C027F032C028F0A5EC03F023C02EF036
:100B280024C02FF01200000E226E000E216EA8EFD6
:100B380005F020C013F0146A1EC015F01FC016F08F
:100B4800AEEC04F0214A222A21501C24D96E2250EE
:100B58001D20DA6EDF50206E2050D8A4B6EF05F0C5
:100B6800B8EF05F09DEF05F01200080EB86E900E74
:100B7800AB6E240EAC6E820EAF6E060EB06E000E1B
:100B8800116E000E126E19EC07F0000E116E000EB9
:100B9800126E14EC07F0000E116E000E126E1EECB1
:100BA80007F0000E4D6E12009E9044C001F045C043
:100BB80002F0B2EC06F042504310D8B4E6EF05F06C
:100BC800E8EF05F0F4EF05F002D8F4EF05F00500C2
:100BD800FA6E4250FD6E4350FE6EFF6AFA501200E4
:100BE800120011C013F012C014F0FDEF05F0114A05
:100BF800122A11C0D9FF12C0DAFFDF50D8A407EFBC
:100C080006F009EF06F0FBEF05F01350115C116ECA
:100C180014501258126E1200F2944750D76E46C004
:100C2800D6FF48504910D8B41CEF06F01EEF06F066
:100C38002AEF06F002D82AEF06F00500FA6E4850AF
:100C4800FD6E4950FE6EFF6AFA5012001200064708
:100C58000F43423FC03B68383D353E326C2FC52CB0
:100C68003B2ADC279B2583238821A91FE01D341CF0
:100C78009E1A1F19B61763162115F113D3121503FF
:100C88000808D59CD7685F0ED66ED650D7CF13F01C
:100C9800146A13C014F0136A1310466E1450476E8A
:100CA800F294F28A560E116E0E0E126E0FEC07F0C9
:100CB800970ED56E1200000E896E000E8A6E000E19
:100CC8008B6E9268DF0E936EBF0E946E3C0E0F0112
:100CD8003A6F1F0E396F2B0E386F000E616EF18E52
:100CE8001200000ECC6E000ECF6E000ECE6ECECF70
:100CF80044F0CFCF45F09E909D80540E116E0E0E9D
:100D0800126E0AEC07F0010ECD6E1200C90E00013A
:100D1800CD6F000ECE6F000EBF6F000EC06FC7C044
:100D2800C1F0C8C0C2F0CD0EC36F000EC46F3AEC5C
:100D380005F012009EAAA3EF06F0A5EF06F09EEFBD
:100D480006F0000E4D6EABA2ACEF06F0AEEF06F06B
:100D5800B0EF06F0AB98AB88AE501200CDA4B7EF59
:100D680006F0B9EF06F0C1EF06F0CD900250CF6E55
:100D780001C0CEFFCD80C5EF06F00250CF6E01C096
:100D8800CEFF1200D6CF17F0D7CF18F01850136E39
:100D98001750156E13C016F015C011F016C012F0DA
:100DA8001200700ED36E040ED26E400E9B6ED2AE41
:100DB800E0EF06F0E2EF06F0DBEF06F0120028ECB9
:100DC80007F05FEC06F0D5EC06F075EC06F045ECA4
:100DD80006F0B9EC05F01200116E9EA8F6EF06F0C9
:100DE800F8EF06F0F1EF06F011C0ADFF12009EBA61
:100DF80000EF07F003EF07F0010E04EF07F0000E15
:100E08001200126E1250F0EC06F0120011C042F0FF
:100E180012C043F0120011C048F012C049F012008D
:100E280011C098F012C099F0120011C09AF012C0C7
:100E38009BF0120011C096F012C097F012000250F9
:100E4800D76E01C0D6FF1200D09E12001200120009
:10FE74000055736520746865207570706572206222
:10FE84007574746F6E20746F20726570726F647510
:10FE940063652074686973207061747465726E0D93
:10FEA4000A00524235202D3E204C5046696E206196
:10FEB4006E6420696E7374616C6C204C50466F756F
:10FEC400742F414D50696E206A756D706572002DF6
:10FED4002D2D2D2D2D2D2D2D2D2D2D2D2D2D2D2D4E
:10FEE4002D2D2D2D2D2D2D2D2D2D2D2D2D0D0A00AE
:10FEF4004C697374656E20746F2074686520626544
:10FF04006174207061747465726E2E0D0A007A3A01
:10FF140020436C65617220746865207465726D6934
:10FF24006E616C0D0A00537461727420706C617997
:10FF3400696E6720736F6E672E0D0A00496E7465D3
:10FF44007272757074204D7573696320426F780DF9
:10FF54000A00723A2052687974686D207072616385
:10FF6400746963650D0A005A3A20526573657420FA
:10FF740070726F636573736F720D0A00703A20506C
:10FF84006C617920736F6E67206F6E63650D0A0074
:10FF9400556E6B6E6F776E206B65792025630D0A45
:10FFA40000426F61726420776972696E670D0A009E
:10FFB4003F3A2048656C70206D656E750D0A0059D6
:10FFC4006F75204C6F7365210D0A00596F752057AA
:10FFD400696E210D0A00696E4C61622030340D0A8D
:10FFE400004465762732310D0A006F3A206B0D0A02
:0CFFF400006B2E0D0A000D0A3E200000DC
:020000040020DA
:08000000FFFFFFFFFFFFFFFF00
:020000040030CA
:0E000000FF281F3CFFBF85FF0FC00FE00F4021
:00000001FF
