:020000040000FA
:0400000026EF00F0F7
:100008005782FACF07F0FBCF08F0F2AC0EEF00F002
:1000180010EF00F020EF00F09DA015EF00F017EFB3
:1000280000F020EF00F09EA01CEF00F01EEF00F0A3
:1000380020EF00F018EC0AF008C0FBFF07C0FAFF39
:1000480057921100EDEF08F04AEC0BF0000E0A6E23
:10005800000E096E89EC0AF0000E0A6E000E096E99
:1000680022EC0BF09E909EA03CEF00F03EEF00F0DB
:1000780037EF00F084EC0BF00009D8B446EF00F03D
:1000880048EF00F04AEF00F0E4EC0AF084EC0BF0E3
:100098000009D8B452EF00F054EF00F056EF00F02A
:1000A800E4EC0AF04A0E096E0F0E0A6EA5EC0BF08E
:1000B800F28CF28EE30E0001DA6FFF0EDB6F0EECAE
:1000C8000BF0740E0001DA6FFE0EDB6F0EEC0BF016
:1000D800370E0001DA6FFF0EDB6F0EEC0BF0A50E8A
:1000E8000001DA6FFD0EDB6F0EEC0BF04A0E00011B
:1000F800DA6FFE0EDB6F0EEC0BF0FA0E0001DA6F12
:10010800FF0EDB6F0EEC0BF08EEC0BF00009D8B491
:1001180090EF00F092EF00F088EF00F0F9EC0AF0B1
:100128000001E66F91EF01F0EB0EDA6FFD0EDB6F69
:100138000EEC0BF0CD0E0001DA6FFF0EDB6F0EEC4C
:100148000BF0D90E0001DA6FFF0EDB6FBBCFDCF0CE
:10015800DD6B0EEC0BF0EB0E0001DA6FFD0EDB6FC2
:100168000EEC0BF0B00E0001DA6FFF0EDB6F0EEC39
:100178000BF0F30E0001DA6FFF0EDB6F0EEC0BF0E5
:10018800620E0001DA6FFF0EDB6F0EEC0BF01F0E34
:100198000001DA6FFF0EDB6F0EEC0BF0BE0E0001F4
:1001A800DA6FFE0EDB6FEAC0DCF0DD6B0EEC0BF0F5
:1001B800990E0001DA6FFE0EDB6F0EEC0BF08C0E61
:1001C8000001DA6FFF0EDB6F0EEC0BF01F0E000163
:1001D800DA6FFE0EDB6F0EEC0BF0EB0E0001DA6F40
:1001E800FD0EDB6F0EEC0BF088EF00F0EB0EDA6F14
:1001F800FF0EDB6F0EEC0BF088EF00F0000EE76FE0
:100208001D0EDA6FFE0EDB6F0EEC0BF00001E72B14
:10021800270EE76512EF01F014EF01F004EF01F08B
:10022800FF0088EF00F0000EE76F1D0EDA6FFE0E7C
:10023800DB6F0EEC0BF00001E72B270EE76527EFCD
:1002480001F029EF01F019EF01F088EF00F0010E3D
:10025800556E770EDA6FFF0EDB6FEAC0DCF0DD6BF0
:10026800EAC0DEF0DF6B0EEC0BF00001EA2B88EF42
:1002780000F0A4AA42EF01F044EF01F053EF01F0BF
:10028800000EDA6FFF0EDB6FE4EC0AF00001E46F9A
:10029800E451DC6FDD6B0EEC0BF088EF00F0E00E44
:1002A800DA6FFE0EDB6F0EEC0BF088EF00F0719842
:1002B80071884D0EDA6FFF0EDB6F0EEC0BF088EFD6
:1002C80000F0700EE619D8A46CEF01F06EEF01F0A3
:1002D80070EF01F0040EBB5E500EE619D8A477EF5C
:1002E80001F079EF01F07BEF01F0040EBB26BF0EA1
:1002F800DA6FFF0EDB6FBBCFDCF0DD6B0EEC0BF0C3
:1003080088EF00F09F0EDA6FFF0EDB6FE6C0DCF0BF
:10031800DD6B0EEC0BF088EF00F0E651E46FE56B57
:10032800E551000AD8B49BEF01F086EF01F0E451E3
:100338003F0AD8B498EF00F06F0AD8B465EF01F01F
:10034800020AD8B43DEF01F0010AD8B42BEF01F04E
:10035800090AD8B402EF01F0350AD8B4FAEF00F070
:100368001F0AD8B465EF01F0020AD8B45BEF01F0B8
:10037800080AD8B417EF01F086EF01F026EF00F075
:10038800BBC0D9FFBCC0DAFFDECFF6FFDDCFF7FF79
:10039800F86A0800F550250AD8A4D5EF01F0D7EF80
:1003A80001F039EF03F0BBC0D9FFBCC0DAFFDE2A89
:1003B800000EDD22000E506E000E4F6E4FC053F03F
:1003C80050C054F051685268BBC0D9FFBCC0DAFFB6
:1003D800DECFF6FFDDCFF7FFF86A0800F550630AB5
:1003E800D8A4F9EF01F0FBEF01F023EF02F0BBC056
:1003F800D9FFBCC0DAFFDE2A000EDD22BDC0D9FF5E
:10040800BEC0DAFFDFCFBFF0020EDE26DFCFC0F0BE
:10041800000EDD22BFC0D9FFC0C0DAFFDF500001E7
:10042800D36FB9C026F0BAC027F0D3C028F04BEC80
:1004380009F026C0B9F027C0BAF055EF03F0BBC0E9
:10044800D9FFBCC0DAFFDECFF6FFDDCFF7FFF86AD1
:100458000800F550640AD8B434EF02F036EF02F021
:1004680049EF02F0BBC0D9FFBCC0DAFFDECFF6FF10
:10047800DDCFF7FFF86A0800F550690AD8A447EFFE
:1004880002F049EF02F08AEF02F0BBC0D9FFBCC00E
:10049800DAFFDE2A000EDD22BDC0D9FFBEC0DAFFBA
:1004A800DFCFBFF0020EDE26DFCFC0F0000EDD2268
:1004B800BFC0D9FFC0C0DAFFDECFC3F0DDCFC4F0C4
:1004C8000001000EC4BFFF0EC56FC66FC76FC86FAF
:1004D800C96FCA6FB9C026F0BAC027F0C3C028F0E8
:1004E800C4C029F0C5C02AF0C6C02BF0C7C02CF084
:1004F800C8C02DF0C9C02EF0CAC02FF056EC03F0CA
:1005080026C0B9F027C0BAF055EF03F0BBC0D9FF39
:10051800BCC0DAFFDECFF6FFDDCFF7FFF86A0800D0
:10052800F550780AD8B49BEF02F09DEF02F0B0EFD7
:1005380002F0BBC0D9FFBCC0DAFFDECFF6FFDDCFCB
:10054800F7FFF86A0800F550580AD8A4AEEF02F091
:10055800B0EF02F000EF03F0BBC0D9FFBCC0DAFF78
:10056800DECFF6FFDDCFF7FFF86A0800F5CFD3F04E
:10057800BBC0D9FFBCC0DAFFDE2A000EDD22BDC039
:10058800D9FFBEC0DAFFDFCFBFF0020EDE26DFCF15
:10059800C0F0000EDD22BFC0D9FFC0C0DAFFDECF39
:1005A800C1F0DDCFC2F0C1C0CBF0C2C0CCF00001B9
:1005B800CD6BCE6BCF6BD06BD16BD26BB9C026F045
:1005C800BAC027F0CBC028F0CCC029F0CDC02AF0A3
:1005D800CEC02BF0CFC02CF0D0C02DF0D1C02EF063
:1005E800D2C02FF0D3C030F0C5EC04F026C0B9F06B
:1005F80027C0BAF055EF03F0BBC0D9FFBCC0DAFF83
:10060800DECFF6FFDDCFF7FFF86A0800F550250AC0
:10061800D8A411EF03F013EF03F02BEF03F0BBC0E6
:10062800D9FFBCC0DAFFDE2A000EDD22000E0C6EF8
:10063800250E0B6EB9C00DF0BAC00EF070EC08F0C4
:10064800000E0001BA6F010EB96F55EF03F0BBC081
:10065800D9FFBCC0DAFFDE2A000EDD22000E000141
:10066800BA6F000EB96F55EF03F0BBC0D9FFBCC01D
:10067800DAFFDECFF6FFDDCFF7FFF86A0800F550A6
:100688000B6E0C6AB9C00DF0BAC00EF070EC08F031
:10069800BBC0D9FFBCC0DAFFDE2A000EDD2224EF82
:1006A80003F0120028C040F029C041F02AC042F0EF
:1006B8002BC043F02CC044F02DC045F02EC046F0AE
:1006C8002FC047F047BE6BEF03F06EEF03F0010E4B
:1006D8006FEF03F0000E3E6E3F6A3E503F10D8B4F5
:1006E80078EF03F07AEF03F08AEF03F0471E461E17
:1006F800451E441E431E421E411E406C000E4122F0
:1007080042224322442245224622472252BE8FEFEC
:1007180003F091EF03F092EF03F0539252BE9FEF74
:1007280003F0525006E15104D8B09DEF03F09FEF5B
:1007380003F0A5EF03F0000E3B6E010E3A6EA9EF31
:1007480003F051C03AF052C03BF04FC03CF050C0EB
:100758003DF03E503F10D8A4B4EF03F0B6EF03F0DD
:10076800BDEF03F053A4BBEF03F0BDEF03F0C0EF00
:1007780003F03C06D8A03D06000E496E1F0E486ED9
:10078800000E0001B86F45EF04F04806D8A04906EE
:10079800990E4824D96E000E4920DA6E40C009F03F
:1007A80041C00AF042C00BF043C00CF044C00DF049
:1007B80045C00EF046C00FF047C010F00A0E116E8B
:1007C800000E126E000E136E000E146E000E156EE3
:1007D800000E166E000E176E000E186EF3EC06F083
:1007E80009C030F00AC031F00BC032F00CC033F051
:1007F8000DC034F00EC035F00FC036F010C037F021
:1008080030C01BF032C01CF09AEC09F01B50300FBE
:10081800DF6E3A06D8A03B063C06D8A03D0640C08D
:1008280009F041C00AF042C00BF043C00CF044C0CC
:100838000DF045C00EF046C00FF047C010F00A0E8C
:10084800116E000E126E000E136E000E146E000E66
:10085800156E000E166E000E176E000E186E2FEC39
:1008680006F009C040F00AC041F00BC042F00CC0CD
:1008780043F00DC044F00EC045F00FC046F010C064
:1008880047F049BE50EF04F0495008E14804D8A0A9
:1008980050EF04F052EF04F082EF04F040504110A2
:1008A800421043104410451046104710D8A45FEF7B
:1008B80004F061EF04F0C9EF03F03BBE6EEF04F003
:1008C8003B5006E13A04D8B06CEF04F06EEF04F048
:1008D800C9EF03F03DBE79EF04F03D5008E13C0458
:1008E800D8A079EF04F07BEF04F082EF04F053B264
:1008F80080EF04F082EF04F0C9EF03F03E503F10A0
:10090800D8A489EF04F08BEF04F092EF04F053A41D
:1009180090EF04F092EF04F0B0EF04F04806D8A08E
:1009280049063E503F10D8A49CEF04F09EEF04F017
:10093800A4EF04F0000E396E2B0E386EA8EF04F009
:10094800000E396E2D0E386E990E4824D96E000EA1
:100958004920DA6E38C0DFFF26C01BF027C01CF024
:10096800990E48241D6E000E49201E6E3CC01FF0D3
:100978003DC020F00FEC08F01BC026F01CC027F08B
:10098800120052BECAEF04F0CCEF04F0CDEF04F031
:10099800539252BEDAEF04F0525006E15104D8B037
:1009A800D8EF04F0DAEF04F0E0EF04F0000E3E6E4A
:1009B800010E3D6EE4EF04F051C03DF052C03EF030
:1009C8004FC03FF050C040F053A8EDEF04F0EFEFF8
:1009D80004F0F3EF04F0FE0E3F26FF0E402228C07D
:1009E80041F029C042F02AC043F02BC044F02CC08B
:1009F80045F02DC046F02EC047F02FC048F0000E3D
:100A08004A6E1F0E496E000E0001B86FBFEF05F069
:100A18004906D8A04A060F0E41144B6E4C6A4CBECC
:100A28001FEF05F04C5009E10A0E4B5CD8A01FEFF0
:100A380005F021EF05F029EF05F0570E4B244B6E1A
:100A4800000E4C204C6E2FEF05F0300E4B244B6EF1
:100A5800000E4C204C6EBF0E316EFF0E326E3050C1
:100A6800336E346A315033263250342234500AE11E
:100A78001A0E335CD8A043EF05F046EF05F0010EDF
:100A880047EF05F0000E396E3A6A39503A10D8B47B
:100A980050EF05F052EF05F082EF05F09F0E316E32
:100AA800FF0E326E200E4B10336E000E4C10346E5B
:100AB800315033263250342234500AE11A0E335C56
:100AC800D8A069EF05F06CEF05F0010E6DEF05F0A9
:100AD800000E3B6E3C6A3B503C10D8B476EF05F0F4
:100AE80078EF05F082EF05F04BC00FF04CC010F026
:100AF8001CEC09F00FC04BF010C04CF0990E4924C3
:100B0800D96E000E4A20DA6E4BC0DFFF3D06D8A032
:100B18003E063F06D8A0400641C031F042C032F040
:100B280043C033F044C034F045C035F046C036F019
:100B380047C037F048C038F0050EACEF05F0D89044
:100B48003832373236323532343233323232313269
:100B5800E82EA3EF05F031C041F032C042F033C0B7
:100B680043F034C044F035C045F036C046F037C0D5
:100B780047F038C048F04ABECBEF05F04A5009E1CB
:100B8800020E495CD8A0CBEF05F0CDEF05F0FDEFE4
:100B980005F04150421043104410451046104710CC
:100BA8004810D8A4DAEF05F0DCEF05F00CEF05F0FB
:100BB8003EBEE9EF05F03E5006E13D04D8B0E7EF50
:100BC80005F0E9EF05F00CEF05F040BEF4EF05F095
:100BD800405008E13F04D8A0F4EF05F0F6EF05F027
:100BE800FDEF05F053B2FBEF05F0FDEF05F00CEF5C
:100BF80005F053A802EF06F004EF06F01AEF06F02E
:100C08004906D8A04A06990E4924D96E000E4A20F2
:100C1800DA6E30C0DFFF4906D8A04A06990E49248B
:100C2800D96E000E4A20DA6E300EDF6E26C01BF039
:100C380027C01CF0990E49241D6E000E4A201E6E16
:100C48003FC01FF040C020F00FEC08F01BC026F09A
:100C58001CC027F01200000E1A6E18BE38EF06F0FE
:100C680036EF06F04AEF06F0181E171E161E151E60
:100C7800141E131E121E116C000E122213221422AF
:100C88001522162217221822010E1A6E10BE51EFD5
:100C980006F04FEF06F063EF06F0101E0F1E0E1E53
:100CA8000D1E0C1E0B1E0A1E096C000E0A220B22BA
:100CB8000C220D220E220F221022010E1A1A20EEEB
:100CC8001BF0070EDE6AE806FDE211501210131041
:100CD80014101510161017101810D8B476EF06F067
:100CE80078EF06F0CAEF06F0010E196E86EF06F0EF
:100CF800D89011361236133614361536163617367E
:100D08001836192A18AE8BEF06F08DEF06F07CEF37
:100D180006F0D8901B361C361D361E361F36203678
:100D2800213622361150095C12500A5813500B58BC
:100D380014500C5815500D5816500E5817500F587F
:100D480018501058D8A0ABEF06F0ADEF06F0BEEF84
:100D580006F01150095E12500A5A13500B5A1450DB
:100D68000C5A15500D5A16500E5A17500F5A185043
:100D7800105A1B80D8901832173216321532143296
:100D8800133212321132192E8DEF06F01A50D8B4E0
:100D9800D0EF06F0D2EF06F0E2EF06F0221E211E99
:100DA800201E1F1E1E1E1D1E1C1E1B6C000E1C223C
:100DB8001D221E221F222022212222221BC009F0CE
:100DC8001CC00AF01DC00BF01EC00CF01FC00DF0B7
:100DD80020C00EF021C00FF022C010F01200000E4B
:100DE8001A6E10BEFCEF06F0FAEF06F00EEF07F0F1
:100DF800101E0F1E0E1E0D1E0C1E0B1E0A1E096C49
:100E0800000E0A220B220C220D220E220F22102283
:100E1800010E1A6E18BE15EF07F013EF07F025EF55
:100E280007F0181E171E161E151E141E131E121E5E
:100E3800116C000E122213221422152216221722D8
:100E48001822115012101310141015101610171024
:100E58001810D8B432EF07F034EF07F07CEF07F042
:100E6800010E196E42EF07F0D8901136123613367C
:100E780014361536163617361836192A18AE47EFAF
:100E880007F049EF07F038EF07F01150095C1250EE
:100E98000A5813500B5814500C5815500D5816502A
:100EA8000E5817500F5818501058D8A05EEF07F07A
:100EB80060EF07F070EF07F01150095E12500A5A00
:100EC80013500B5A14500C5A15500D5A16500E5AEE
:100ED80017500F5A1850105AD89018321732163225
:100EE80015321432133212321132192E49EF07F02B
:100EF8001A50D8B482EF07F084EF07F094EF07F0A8
:100F0800101E0F1E0E1E0D1E0C1E0B1E0A1E096C37
:100F1800000E0A220B220C220D220E220F22102272
:100F280009C009F00AC00AF00BC00BF00CC00CF0A5
:100F38000DC00DF00EC00EF00FC00FF010C010F075
:100F480012005504D8A4ABEF07F0ADEF07F007EF98
:100F580008F0F1EF07F0000E026E190E016EA1EC19
:100F68000AF0010E0001946F010E566E07EF08F0AB
:100F78005650D8A4C2EF07F0C4EF07F0D0EF07F03F
:100F8800000E946F000E026E000E016EA1EC0AF0C6
:100F9800000E556EE8EF07F0EA5156140009D8B470
:100FA800D8EF07F0DAEF07F0E2EF07F0000E026E75
:100FB800000E016EA1EC0AF0E8EF07F0000E026ED9
:100FC800190E016EA1EC0AF056505624566E07EF22
:100FD80008F0000E946F07EF08F000019451056EB9
:100FE800066A0650000AD8B4FCEF07F0EDEF07F0E8
:100FF8000550000AD8B4AFEF07F0010AD8B4BCEF27
:1010080007F0EDEF07F0E50E026EF60E016E36EC16
:101018000BF09E90120053A014EF08F016EF08F0A2
:1010280020EF08F01DC014F01EC015F01BC016F00C
:101038001CC017F078EC09F020BE25EF08F027EF68
:1010480008F02DEF08F01FC024F020C025F031EF84
:1010580008F0000E256E000E246E000E236E000EA2
:10106800226E43EF08F0000E0C6E200E0B6E1BC0B4
:101078000DF01CC00EF070EC08F0224A232A245010
:10108800225C2350800A216E2550800A2158D8A05E
:1010980050EF08F052EF08F037EF08F053B057EF71
:1010A80008F059EF08F063EF08F01DC014F01EC0F7
:1010B80015F01BC016F01CC017F078EC09F01DC025
:1010C80009F01EC00AF06EEC0AF0245009241B6EC9
:1010D80025500A201C6E12000D500E10D8B477EF60
:1010E80008F079EF08F082EF08F00D500E10D8A440
:1010F80080EF08F082EF08F087EF08F00B50A0ECC3
:101108000BF0BAEF08F020EE04F00D50D9260E507F
:10111800DA22DE50DE10D8B494EF08F096EF08F02B
:10112800B1EF08F020EE04F00D50D9260E50DA2267
:1011380010EE02F00D50E1260E50E222DE50E65C81
:10114800E650800A136EDE50800A1358D8B0AFEF0D
:1011580008F0B1EF08F0BAEF08F020EE02F00D50F9
:10116800D9260E50DA22DE2A000EDD221200D6C061
:101178004DF0D7C04EF0000E0001816F000E806F59
:10118800D9EF08F0D4C0B9F0D5C0BAF04D0EBB6F96
:10119800000EBC6FD8C0BDF0D9C0BEF0C4EC01F0E1
:1011A8000001B9518027BA5181234DC0F6FF4EC0C6
:1011B800F7FFF86A0800F5500009D8A4E6EF08F030
:1011C800E8EF08F0C6EF08F080C0D4F081C0D5F091
:1011D8001200940EF66E170EF76E000EF86E0900E8
:1011E800F5CFE8F00900F5CFE9F00900F5CFEAF00E
:1011F8009A0EF66E170EF76E000EF86E0900F5CF10
:1012080056F001EE00F0200EEE6AE806FDE100EE71
:1012180060F0590EEE6AE806FDE100EE4FF0070EA9
:10122800EE6AE806FDE157905792000128EF00F0BA
:101238009F0E116EFF0E126E0FC013F010C014F047
:10124800115013261250142214500AE11A0E135C7E
:10125800D8A031EF09F034EF09F0010E35EF09F0AD
:10126800000E156E166A15501610D8B43EEF09F028
:1012780040EF09F046EF09F05F0E0F140F6E106A89
:101288004AEF09F00FC00FF010C010F012004F50D5
:101298005010D8A452EF09F054EF09F05AEF09F0B2
:1012A8004FC029F050C02AF060EF09F0FF0E4F241C
:1012B800296EFF0E50202A6E28C099F0000E0001FA
:1012C8009A6F26C01BF027C01CF0990E1D6E000EE9
:1012D8001E6E29C01FF02AC020F00FEC08F01BC0BA
:1012E80026F01CC027F01200000E1A6E000E196EB0
:1012F80089EF09F018C00BF00C6A16C00DF017C082
:101308000EF070EC08F0194A1A2A19501424D96EF4
:101318001A501520DA6EDF50186E1850D8A497EFBF
:1013280009F099EF09F07EEF09F012001CBEA7EF53
:1013380009F01C5006E11B04D8B0A5EF09F0A7EF8F
:1013480009F0B5EF09F01BC01DF01CC01EF01D1EF2
:101358001E1E1D4A1E2A1DC01BF01EC01CF0B9EF20
:1013680009F01BC01BF01CC01CF01200080E706EA8
:10137800900E716E240E726E0A0E756E1A0E766ECF
:10138800000E096E000E0A6EAFEC0BF0000E096E2F
:10139800000E0A6EAAEC0BF0000E096E000E0A6E23
:1013A800B4EC0BF0000E0001936F1200080EB86E3B
:1013B800900EAB6E240EAC6E820EAF6E060EB06E43
:1013C800000E096E000E0A6EBEEC0BF0000E096EE0
:1013D800000E0A6EB9EC0BF0000E096E000E0A6ED4
:1013E800C3EC0BF0000E0001926F12009F0E0B6E03
:1013F800FF0E0C6E200E09100D6E000E0A100E6EF8
:101408000B500D260C500E220E500AE11A0E0D5CE0
:10141800D8A011EF0AF014EF0AF0010E15EF0AF048
:10142800000E096E0A6A12009E9090C001F091C0E9
:1014380002F036EC0BF000018E518F11D8B427EF73
:101448000AF029EF0AF035EF0AF002D835EF0AF072
:101458000500FA6E8E51FD6E8F51FE6EFF6AFA50CE
:10146800120012009F0E0B6EFF0E0C6E09C00DF0DD
:101478000AC00EF00B500D260C500E220E500AE139
:101488001A0E0D5CD8A04BEF0AF04EEF0AF0010ED1
:101498004FEF0AF0000E096E0A6A1200BF0E0B6EBB
:1014A800FF0E0C6E09C00DF00AC00EF00B500D2691
:1014B8000C500E220E500AE11A0E0D5CD8A067EFF0
:1014C8000AF06AEF0AF0010E6BEF0AF0000E096EDF
:1014D8000A6A120009C00BF00AC00CF076EF0AF095
:1014E800094A0A2A09C0D9FF0AC0DAFFDF50D8A47E
:1014F80080EF0AF082EF0AF074EF0AF00B50095CF3
:10150800096E0C500A580A6E120009C00BF00AC086
:101518000CF0D8900C320B32D8900C320B320B50A6
:10152800676E09C00BF0030E0B160B3AF00E0B1684
:101538006650CF0B0B10666E120001C003F002C09C
:1015480004F0D89004320332D890043203320350A6
:10155800676E01C003F0030E0316033AF00E03167C
:101568006650CF0B0310666E1200000E896E000ED7
:101578008A6E000E8B6E9268BF0E936EBD0E946ECF
:101588003C0E0F013A6F3F0E396F2F0E386F000E69
:10159800616EF18E1200000ECC6E000ECF6E000E42
:1015A800CE6ECECF90F0CFCF91F09E909D80980ECA
:1015B800096E170E0A6EA5EC0BF0010ECD6E120027
:1015C800A4AAE9EF0AF0EBEF0AF0E4EF0AF0000E44
:1015D8000001936F71A2F3EF0AF0F5EF0AF0F7EF4D
:1015E8000AF071987188745012009EAAFEEF0AF0F2
:1015F80000EF0BF0F9EF0AF0000E0001926FABA2BA
:1016080008EF0BF00AEF0BF00CEF0BF0AB98AB8880
:10161800AE501200DC0E0001E26F000EE36F000E08
:10162800D46F000ED56FDAC0D6F0DBC0D7F0E20E6B
:10163800D86F000ED96FBBEC08F01200CDA427EFCD
:101648000BF029EF0BF031EF0BF0CD900A50CF6E75
:1016580009C0CEFFCD8035EF0BF00A50CF6E09C020
:10166800CEFF1200CDA43BEF0BF03DEF0BF045EFA2
:101678000BF0CD900250CF6E01C0CEFFCD8049EF68
:101688000BF00250CF6E01C0CEFF1200C8EC0BF079
:10169800B9EC0AF06BEC0BF05BEC0BF098EC0BF090
:1016A800CFEC0AF0DAEC09F0BAEC09F012001C0EE3
:1016B800666E000E646E800E656E010E636E000E1F
:1016C800686E340E676EE70E0F0149171200700E30
:1016D800D36E040ED26E400E9B6ED2AE76EF0BF038
:1016E80078EF0BF071EF0BF01200096E9EA87FEFF8
:1016F8000BF081EF0BF07AEF0BF009C0ADFF120091
:10170800A4BA89EF0BF08CEF0BF0010E8DEF0BF004
:10171800000E12009EBA93EF0BF096EF0BF0010E3D
:1017280097EF0BF0000E1200680EBB6E000EBC6E39
:101738009E92050EBA6E12000A6E0A5079EC0BF0F2
:10174800120009C08EF00AC08FF0120009C08AF09A
:101758000AC08BF0120009C08CF00AC08DF012008C
:1017680009C088F00AC089F0120009C084F00AC0D4
:1017780085F0120009C086F00AC087F0120009C07F
:0F17880082F00AC083F01200D09E120015343098
:031798001200013B
:10FDA40000496E7374616C6C2061206A756D7065B6
:10FDB4007220776972652066726F6D20524330201D
:10FDC400746F20524237204F4E4C592041465445BF
:10FDD4005220756E706C756767696E672050494371
:10FDE4004B6974330D0A002D2D2D2D2D2D2D2D2D08
:10FDF4002D2D2D2D2D2D2D2D2D2D2D2D2D2D2D2D2F
:10FE04002D2D2D2D2D2D2D2D2D2D2D2D2D2D2D2D1E
:10FE14002D2D2D2D2D2D2D2D0D0A00702F503A2016
:10FE240064656372656173652F696E63726561737E
:10FE3400652050574D20706572696F642062792087
:10FE44003175730D0A00496E7374616C6C20612006
:10FE54006A756D706572206F7665722049525F54C1
:10FE640058206865616465722070696E730D0A00BC
:10FE74005265636569766520616E64206465636FAD
:10FE8400646520616E204952206368617261637405
:10FE940065720D0A00523A20757365204555534129
:10FEA40052543220746F206465636F646520636804
:10FEB400617261637465720D0A00533A2053656E72
:10FEC40064202563207573696E672049522074721B
:10FED400616E736D69747465720D0A004E6F746897
:10FEE400696E672072656365697665642066726F02
:10FEF4006D20455553415254320D0A004A757374AE
:10FF0400207265616420696E2025632066726F6DBE
:10FF140020455553415254320D0A007A3A20436C1D
:10FF240065617220746865207465726D696E616CB8
:10FF34000D0A0044657627323120426F61726420D5
:10FF4400776972696E670D0A004A75737420726569
:10FF540073657420455553415254320D0A005A3A80
:10FF64002052657365742070726F636573736F726A
:10FF74000D0A006A7573742073656E7420256320FE
:10FF840020202025780D0A00723A2072657365746A
:10FF940020455553415254320D0A00556E6B6E6F15
:10FFA400776E206B65792025630D0A003F3A20683F
:10FFB400656C70206D656E750D0A00506572696F11
:10FFC40064203D2025640D0A003234303020426123
:10FFD40075640D0A005052323A2025640D0A004C13
:10FFE400616220370D0A006F3A096F6B0D0A006FCA
:0CFFF4003A206B0D0A000D0A3E200000B0
:020000040020DA
:08000000FFFFFFFFFFFFFFFF00
:020000040030CA
:0E000000FF281F3CFF9F85FF0FC00FE00F4041
:00000001FF
