:020000040000FA
:04000000E3EF7EF0BC
:10FD1600736F7300D38CD38AD3889B8C0F0138956D
:10FD26009284399B939A1200016E01C002F0600E14
:10FD36000264A0EF7EF0A2EF7EF0AAEF7EF07A0ECC
:10FD46000264A8EF7EF0AAEF7EF0ADEF7EF0000E23
:10FD5600AFEF7EF002509F0F1200000E046E000EF1
:10FD6600036EBDEF7EF000F000F000F000F000F052
:10FD7600034A042A0150035C02500458D8A0C6EF77
:10FD86007EF0C8EF7EF0B6EF7EF01200000E086E31
:10FD9600000E076ED7EF7EF0030E026EE80E016EC0
:10FDA600B0EC7EF0074A082A0550075C0650085852
:10FDB600D8A0E0EF7EF0E2EF7EF0CFEF7EF012000B
:10FDC6006E0EF66EFE0EF76E000EF86E01EE00F089
:10FDD60010EE82F00900F5CFEEFFE550E150FAE1B2
:10FDE600160EF66EFD0EF76E000EF86E00EE10F0B3
:10FDF60010EE04F00900F5CFEEFFE550E150FAE110
:10FE0600000106EF7FF08DEC7EF080B40DEF7FF001
:10FE16000FEF7FF008EF7FF010C00BF011C00CF071
:10FE260012C00DF013C00EF0000E0F6E25EF7FF01E
:10FE36000B0E0F24D96EDA6A000EDA22DF5078EC48
:10FE46007FF00F2A0B0E0F24D96EDA6A000EDA2223
:10FE5600DF50D8A431EF7FF033EF7FF01BEF7FF058
:10FE660008EF7FF000EF00F0000102000001000043
:10FE76000002010001000201000002000002000071
:10FE86000000000100020101000200000000000263
:10FE96000000020000000101010201000102000051
:10FEA6000100000201010200000100020000010140
:10FEB600010200000101000201010001020001002F
:10FEC6000200000000020001020000000000010222
:10FED6000000000001020001010200010000010211
:10FEE600010001010201010000020001E36F200E82
:10FEF6000001E319D8A482EF7FF084EF7FF08CEF46
:10FF06007FF0030E066E200E056EC9EC7EF0FFEF45
:10FF16007FF021EE00F010EE60F0810EDECFE6FFFE
:10FF2600E806FCE2820ED95EE15EE35197EC7EF0D4
:10FF36000001E26F000EE56FE251050D600E096EDD
:10FF4600000E0A6EF3500926F4500A22E5510924E0
:10FF5600D96E000E0A20DA6EDF50E46F020EE41945
:10FF6600D8A4B8EF7FF0BAEF7FF0C5EF7FF0010EAF
:10FF7600066E900E056EC9EC7EF0050E0001E56F6B
:10FF8600F5EF7FF0E451D8A4CBEF7FF0CDEF7FF013
:10FF9600DDEF7FF08A9A000E066EC80E056EC9EC7C
:10FFA6007EF08A8A000E066EC80E056EC9EC7EF0DB
:10FFB600F5EF7FF0E405D8A4E3EF7FF0E5EF7FF0FF
:10FFC600F5EF7FF08A9A020E066E580E056EC9ECA2
:10FFD6007EF08A8A000E066EC80E056EC9EC7EF0AB
:10FFE600F5EF7FF00001E52B040EE565FDEF7FF0F0
:0AFFF600FFEF7FF09FEF7FF0120095
:020000040020DA
:08000000FFFFFFFFFFFFFFFF00
:020000040030CA
:0E000000FF281F3FFFBF85FF0FC00FE00F401E
:00000001FF
