:020000040000FA
:0400000026EF00F0F7
:100008005282FACF03F0FBCF04F0F2AC0EEF00F00F
:1000180010EF00F020EF00F07DA215EF00F017EFD1
:1000280000F020EF00F07EA21CEF00F01EEF00F0C1
:1000380020EF00F051EC11F004C0FBFF03C0FAFF01
:10004800529211000AEF10F01B0EF66EF50EF76EC5
:10005800000EF86E21EE40F0200E0900F5CFDEFF0D
:10006800E806FBE220EEA0F011EEA7F0290EDBCFA8
:10007800E3FFE806FCE2020E0101E06F000EDF6F0D
:1000880020EE60F011EE00F03F0EDBCFE3FFE80654
:10009800FCE221EEE7F011EEA1F0050EDBCFE3FF65
:1000A800E806FCE234EC11F0880E056E1F0E066EB1
:1000B8009FEC13F0F28EF28C8A88A192000E066EE5
:1000C800000E056E75EC12F0A1A26DEF00F06FEF57
:1000D80000F068EF00F07A0E116EFF0E126E75ECEC
:1000E80009F0890E116EFF0E126E75EC09F0B40E50
:1000F800116EFF0E126E75EC09F0B50E116EFA0E48
:10010800126E75EC09F0030E066E056808EC12F025
:10011800000E066E000E056EF0EC11F0030E066E72
:100128000568D7EC11F0030E066E0568BEEC11F0F9
:100138006FEC13F00009D8B4A4EF00F0A6EF00F0BC
:100148009CEF00F089EC12F00101E36F38EF09F041
:10015800000EE66F130EE665B4EF00F0B6EF00F0A0
:10016800B8EF00F0C2EF00F09A0E116EF70E126EA3
:1001780075EC09F00101E62BAEEF00F01C0E116ED4
:10018800F70E126E75EC09F0980E116EFF0E126ED6
:1001980075EC09F0D70E116EFF0E126E75EC09F0B2
:1001A8009B0E116EFE0E126E75EC09F0FE0E116EAE
:1001B800FD0E126E75EC09F0140E116EFF0E126E24
:1001C80075EC09F08A0E116EFB0E126E75EC09F0D3
:1001D800860E116EFE0E126E75EC09F0440E116E4D
:1001E800FE0E126E75EC09F0B00E116EFE0E126E58
:1001F80075EC09F0EE0E116EFE0E126E75EC09F03C
:100208000A0E116EFC0E126E75EC09F0280E116EB6
:10021800FC0E126E75EC09F01C0E116EF70E126EC4
:1002280075EC09F0CA0E116EFF0E126E75EC09F02E
:100238009CEF00F0C00E116EFF0E126E75EC09F007
:10024800CA0E116EFF0E126E75EC09F09CEF00F0ED
:10025800000EE66F270EE66534EF01F036EF01F089
:1002680038EF01F042EF01F0E60E116EFF0E126E4C
:1002780075EC09F00101E62B2EEF01F0FF00C90E25
:10028800116EFF0E126E75EC09F09CEF00F0000E77
:10029800E66F270EE66553EF01F055EF01F057EFD3
:1002A80001F061EF01F0E60E116EFF0E126E75ECB3
:1002B80009F00101E62B4DEF01F0C80E116EFF0E9B
:1002C800126E75EC09F09CEF00F0E80E116EFF0E4F
:1002D800126E75EC09F0C50E116EFE0E126E75ECFD
:1002E80009F0DA0E116EFC0E126E75EC09F01B0E99
:1002F800116EF80E126E75EC09F0C00E116EF80E44
:10030800126E75EC09F05D0E116EF70E126E75EC3B
:1003180009F0560E116EF80E126E75EC09F09D0E6E
:10032800116EF70E126E75EC09F0DA0E116EFC0EF6
:10033800126E75EC09F0000E0101E66FEFEF01F0A7
:1003480080B4A9EF01F0ABEF01F0EFEF01F0D9EFC6
:1003580001F00101E651020DA10EF324D96E010E40
:10036800F420DA6EDECF35F0DDCF36F0351C056EC1
:10037800361C066E75EC12F0A192A1A2C6EF01F030
:10038800C8EF01F0C1EF01F08BB8CDEF01F0D0EF6D
:1003980001F0010ED1EF01F0000EFF0A356E353A7B
:1003A8008B503518EF0B35188B6E80A4DEEF01F0FB
:1003B800E0EF01F0ADEF01F08B980101E629E66F5F
:1003C800030EE619D8A4EBEF01F0EDEF01F0EFEF23
:1003D80001F09FEF01F06FEC13F00009D8B4F7EFCC
:1003E80001F0F9EF01F0A4EF01F089EC12F0CA0E68
:1003F800116EFF0E126E75EC09F09CEF00F0850E81
:10040800116EFF0E126E75EC09F0700E116EFE0E75
:10041800126E75EC09F0650E116EFA0E126E75EC1F
:1004280009F0DA0E116EFC0E126E75EC09F0000E72
:100438000101E66F0F0EE66524EF02F026EF02F0E9
:1004480028EF02F043EF02F0E651020D810EF3248B
:10045800D96E010EF420DA6E000EDE6E000EDD6E2F
:10046800E651020D610EF324E16E010EF420E26EF6
:10047800DECFE6FFDDCFE5FFE62B1EEF02F082B010
:1004880048EF02F04AEF02F043EF02F0000E066E6A
:10049800000E056E75EC12F0A19282B056EF02F0D4
:1004A80058EF02F05FEF02F0A1A25DEF02F05FEFFC
:1004B80002F051EF02F0E6EC12F005C081F106C03F
:1004C80082F1000E0101626F000E616FA192010EB0
:1004D800E66F0F0EE66573EF02F075EF02F077EF47
:1004E80002F0C2EF02F0000E066E000E056E75EC0B
:1004F80012F0A19282A083EF02F085EF02F08CEF58
:1005080002F0A1A28AEF02F08CEF02F07EEF02F077
:10051800E6EC12F00101E651020D610EF324D96EEA
:10052800010EF420DA6E05C0DEFF06C0DDFF000E06
:10053800066E000E056E75EC12F0A19282B0A7EF60
:1005480002F0A9EF02F0B0EF02F0A1A2AEEF02F0C4
:10055800B0EF02F0A2EF02F0E6EC12F00101E65172
:10056800020D810EF324D96E010EF420DA6E05C057
:10057800DEFF06C0DDFFE62B6DEF02F0DA0E116E2E
:10058800FE0E126E75EC09F0000E0101E66F0F0EFB
:10059800E665D1EF02F0D3EF02F0D5EF02F0FAEF03
:1005A80002F05A0E116EFF0E126EE6C113F0146AB5
:1005B800E651020D610EF324D96E010EF420DA6EB5
:1005C800DECF15F0DDCF16F0E651020D810EF324D3
:1005D800D96E010EF420DA6EDECF17F0DDCF18F0F9
:1005E80075EC09F00101E62BCBEF02F0EB0E116E72
:1005F800FB0E126E75EC09F0CA0E116EFF0E126E2C
:1006080075EC09F09CEF00F0560E116EFF0E126E9D
:1006180075EC09F0010E116EFF0E126E75EC09F003
:10062800E60E116EFD0E126E75EC09F0CE0E116E0F
:10063800FD0E126E75EC09F0B60E116EFD0E126EFF
:1006480075EC09F0810E116EFD0E126E75EC09F055
:10065800BCEF04F0000E0101E66F050EE66537EF0A
:1006680003F039EF03F03BEF03F0BCEF04F0E65181
:10067800060D060EF326000EF422A70EF324D96EFB
:10068800010EF420DA6EE651060DA70EF324E16E92
:10069800010EF420E26EDE50E65CDE50E658D8B07B
:1006A80058EF03F05AEF03F060EF03F0000ED86F35
:1006B800040ED76F64EF03F0FF0ED86FFC0ED76FF0
:1006C800E651060DA70EF324D96E010EF420DA6E5A
:1006D800E651060D060EF326000EF422A70EF324AB
:1006E800E16E010EF420E26EDE50E61807E1DE50FE
:1006F800E618D8A482EF03F084EF03F088EF03F044
:10070800000ED86F000ED76FE651060D080EF326BF
:10071800000EF422A70EF324D96E010EF420DA6E2F
:10072800E651060D020EF326000EF422A70EF3245E
:10073800E16E010EF420E26EDE50E65CDE50E65813
:10074800D8B0A9EF03F0ABEF03F0B1EF03F0000E60
:10075800DA6F040ED96FB5EF03F0FF0EDA6FFC0EF7
:10076800D96FE651060D020EF326000EF422A70EED
:10077800F324D96E010EF420DA6EE651060D080E48
:10078800F326000EF422A70EF324E16E010EF420E6
:10079800E26EDE50E61807E1DE50E618D8A4D7EF7F
:1007A80003F0D9EF03F0DDEF03F0000EDA6F000E6F
:1007B800D96FE651060D0A0EF326000EF422A70E95
:1007C800F324D96E010EF420DA6EE651060D040EFC
:1007D800F326000EF422A70EF324E16E010EF42096
:1007E800E26EDE50E65CDE50E658D8B0FEEF03F06D
:1007F80000EF04F006EF04F0000EDC6F040EDB6F70
:100808000AEF04F0FF0EDC6FFC0EDB6FE651060DFD
:10081800040EF326000EF422A70EF324D96E010E5F
:10082800F420DA6EE651060D0A0EF326000EF422C5
:10083800A70EF324E16E010EF420E26EDE50E618F6
:1008480007E1DE50E618D8A42CEF04F02EEF04F0F0
:1008580032EF04F0000EDC6F000EDB6FE651060D80
:10086800A70EF324D96E010EF420DA6EDECFD1F193
:10087800DDCFD2F1E651060D020EF326000EF4226A
:10088800A70EF324D96E010EF420DA6EDECFD3F171
:10089800DDCFD4F1E651060D040EF326000EF42246
:1008A800A70EF324D96E010EF420DA6EDECFD5F14F
:1008B800DDCFD6F1000EDE6FDE29D8A466EF04F096
:1008C80068EF04F06AEF04F0B8EF04F06FEC13F08F
:1008D8000009D8B472EF04F074EF04F076EF04F076
:1008E800B8EF04F00101D751D127D851D223D951FB
:1008F800D327DA51D423DB51D527DC51D623D1C1F4
:1009080005F0D2C106F008EC12F0D3C105F0D4C14D
:1009180006F0BEEC11F0D5C105F0D6C106F0D7EC53
:1009280011F0A192D00E066E000E056E75EC12F055
:10093800A1A2A1EF04F0A3EF04F09CEF04F08BB8A0
:10094800A8EF04F0ABEF04F0010EACEF04F0000EDA
:10095800FF0A356E353A8B503518EF0B35188B6E0C
:100968000101DE2B60EF04F00101E62B31EF03F00B
:100978006FEC13F00009D8B4C4EF04F0C6EF04F02C
:100988002EEF03F0010E066E056808EC12F0010E5A
:10099800066E0568BEEC11F0010E066E0568D7EC10
:1009A80011F089EC12F0160E116EFE0E126E75EC37
:1009B80009F0CA0E116EFF0E126E75EC09F09CEF6D
:1009C80000F0040E39EC13F0940E116EFF0E126E47
:1009D80075EC09F05A0E116EFE0E126E75EC09F0E8
:1009E800F30E116EF80E126E75EC09F06FEC13F041
:1009F8000009D8B402EF05F004EF05F0FAEF04F0AF
:100A0800000E0101E66F0F0EE6650DEF05F00FEF22
:100A180005F011EF05F040EF05F0BFEC13F079ECAD
:100A280013F00009D8B41BEF05F01DEF05F013EF24
:100A380005F083EC13F00101E651020D810EF32459
:100A4800D96E010EF420DA6E05C0DEFF06C0DDFFA8
:100A58008B88A192FF0E066E600E056E75EC12F083
:100A6800A1A239EF05F03BEF05F034EF05F08B98C4
:100A78000101E62B07EF05F0660E116EFD0E126EF2
:100A880075EC09F06A0E116EFF0E126E75EC09F026
:100A9800000E0101E66F0F0EE66555EF05F057EF02
:100AA80005F059EF05F072EF05F0F80E116EFF0E24
:100AB800126EE651020D810EF324D96E010EF42058
:100AC800DA6EDECF35F0DDCF36F03650136E146AAD
:100AD80075EC09F00101E62B4FEF05F089EC12F0F7
:100AE800C80E116EFF0E126E75EC09F09CEF00F047
:100AF800120E116EFE0E126E75EC09F0AB0E116E31
:100B0800FB0E126E75EC09F08D0E116EF80E126E5A
:100B180075EC09F0A80E116EF50E126E75EC09F061
:100B2800520E116EF50E126E75EC09F0130E116E61
:100B3800FD0E126E75EC09F0E30E116EF90E126ED1
:100B480075EC09F0560E116EF90E126E75EC09F07F
:100B5800260E116EF90E126E75EC09F0810E116EEB
:100B6800FD0E126E75EC09F0000E0101E56F000E26
:100B7800E46F000E066E800E056E08EC12F02AEF88
:100B880006F080B4CAEF05F0CCEF05F0E1EF05F010
:100B980080A4D1EF05F0D3EF05F0CCEF05F0400EBF
:100BA8000101E05DD8B0DBEF05F0DDEF05F0E1EF26
:100BB80005F0200EDF27000EE02380B6E6EF05F0F3
:100BC800E8EF05F0FFEF05F080A6EDEF05F0EFEF99
:100BD80005F0E8EF05F00101E05109E1210EDF5DC4
:100BE800D8A0F9EF05F0FBEF05F0FFEF05F0200EB8
:100BF800DF5F000EE05BA1A204EF06F006EF06F04F
:100C08002AEF06F0000E066E000E056E75EC12F067
:100C1800A1920101E551E66F000EE625D96EDA6A68
:100C2800010EDA22DF50356E3550056E066A08EC83
:100C380012F00101DF51E425356EE051E521366EF1
:100C4800FF0E3514E46F3F0E3614E56F6FEC13F0AA
:100C58000009D8B432EF06F034EF06F0C5EF05F01E
:100C6800000E066E000E056E08EC12F089EC12F00C
:100C7800CC0E116EFB0E126E75EC09F0CA0E116ED9
:100C8800FF0E126E75EC09F09CEF00F0C80E116EA5
:100C9800FB0E126E75EC09F0640E116EFC0E126EEE
:100CA80075EC09F0000E066E000E056EF0EC11F002
:100CB8008D0E116EFA0E126E75EC09F0FB0E116EA8
:100CC800F50E126E75EC09F03C0E116EFA0E126EEE
:100CD80075EC09F04E0E116EF60E126E75EC09F0F9
:100CE800000E0101E66F090EE6657DEF06F07FEF65
:100CF80006F081EF06F096EF06F0A70E116EFF0ED4
:100D0800126EE6C113F0146AE6510A0D000EF324C0
:100D1800156E020EF420166E75EC09F00101E62B33
:100D280077EF06F06FEC13F00009D8A49EEF06F0F9
:100D3800A0EF06F096EF06F089EC12F00101E36FE0
:100D48002F0EE365AAEF06F0ACEF06F0CDEF06F044
:100D58003A0EE361B2EF06F0B4EF06F0CDEF06F01D
:100D6800D00EE325096E0A6AFF0E0A224BEC0DF03D
:100D7800BD0E116EFC0E126E0101E3510A0D200E1C
:100D8800F324136E000EF420146E75EC09F0D6EF00
:100D980006F0100E116EFA0E126EE3C113F0146A0B
:100DA80075EC09F0CA0E116EFF0E126E75EC09F0A3
:100DB8009CEF00F0F00E116EFF0E126E75EC09F04C
:100DC800820E116EFC0E126E75EC09F0950E116E06
:100DD800F60E126E75EC09F0DA0E116EFC0E126E3C
:100DE80075EC09F0010E39EC13F088EF07F0BFEC51
:100DF80013F079EC13F00009D8B405EF07F007EF0A
:100E080007F0FDEF06F083EC13F0070E356ED8906F
:100E180006320532352E0BEF07F005C0E1F106C0AA
:100E2800E2F10101E25107E1580EE15DD8B01FEF90
:100E380007F021EF07F04FEF07F0000E116EFB0EE1
:100E4800126E75EC09F043EF07F0BFEC13F079EC84
:100E580013F00009D8B433EF07F035EF07F02BEFA4
:100E680007F083EC13F0070E356ED8900632053282
:100E7800352E39EF07F005C0E1F106C0E2F10101B6
:100E8800E25109E1590EE15DD8A04DEF07F04FEFAF
:100E980007F029EF07F0E25109E1A90EE15DD8A0BA
:100EA80058EF07F05AEF07F088EF07F0DB0E116EE6
:100EB800FA0E126E75EC09F07CEF07F0BFEC13F038
:100EC80079EC13F00009D8B46CEF07F06EEF07F077
:100ED80064EF07F083EC13F0070E356ED8900632F6
:100EE8000532352E72EF07F005C0E1F106C0E2F1D8
:100EF8000101E25107E1A80EE15DD8B086EF07F0E5
:100F080088EF07F062EF07F06FEC13F00009D8B430
:100F180090EF07F092EF07F0FBEF06F089EC12F084
:100F2800CA0E116EFF0E126E75EC09F09CEF00F000
:100F3800EC0E116EFF0E126E75EC09F0260E116E96
:100F4800FF0E126E75EC09F0DA0E116EFC0E126EC1
:100F580075EC09F0860E116EF90E126E75EC09F03B
:100F68000AEF08F080B4BBEF07F0BDEF07F0E0EF41
:100F780007F0A00E116EFC0E126E75EC09F0D9EF99
:100F880007F080B6CAEF07F0CCEF07F0D9EF07F00B
:100F9800250E116EFB0E126E75EC09F080A6D7EFC8
:100FA80007F0D9EF07F0D2EF07F080A4DEEF07F0E3
:100FB800E0EF07F0C5EF07F080B6E5EF07F0E7EFE1
:100FC80007F00AEF08F02F0E116EFD0E126E75EC89
:100FD80009F003EF08F080B4F4EF07F0F6EF07F03C
:100FE80003EF08F0250E116EFB0E126E75EC09F07A
:100FF80080A401EF08F003EF08F0FCEF07F080A6EB
:1010080008EF08F00AEF08F0EFEF07F06FEC13F0C5
:101018000009D8B412EF08F014EF08F0B6EF07F0A3
:1010280089EC12F0CA0E116EFF0E126E75EC09F003
:101038009CEF00F0F40E116EFF0E126E75EC09F0C5
:101048002D0E116EFE0E126E75EC09F0470E116E24
:10105800FB0E126E75EC09F0B50E116EF90E126EDC
:1010680075EC09F0DA0E116EF60E126E75EC09F0D9
:10107800690E116EFB0E126E75EC09F0BDEC13F0E3
:10108800000EF2EC0DF06FEC13F00009D8B44FEF3E
:1010980008F051EF08F047EF08F089EC12F0010E64
:1010A80098EC0EF0C80E116EFF0E126E75EC09F07A
:1010B8009CEF00F0B00E116EFF0E126E75EC09F089
:1010C8002D0E116EFE0E126E75EC09F0460E116EA5
:1010D800FC0E126E75EC09F0DD0E116EF70E126E35
:1010E80075EC09F0400E056E010E066E8AEC11F0E3
:1010F80005500101DD6F000EE56F000EE46FC0EFD3
:1011080008F0E4C10CF0E5C10DF0DDC10EF00F6A86
:10111800BBEC10F0400E0C24D96E010E0D20DA6ED7
:10112800640E0101E425E16E020EE521E26EDFCFD7
:10113800E7FFE44BE52BE4C10CF0E5C10DF0DDC1A0
:101148000EF00F6ABBEC10F0400E0C24D96E010EA5
:101158000D20DA6EDF50D8B4B4EF08F0B6EF08F01F
:10116800C0EF08F0020E0101E55DD8A0BEEF08F05F
:10117800C0EF08F085EF08F0020E0101E55DD8A088
:10118800C8EF08F0CAEF08F09FEF08F0000E066EEF
:10119800000E076E000E086E000E096E640E0A6ED1
:1011A800020E0B6E7DEC0FF06EEC11F0FF0AD8B456
:1011B800E0EF08F0E2EF08F0D8EF08F0000E066E56
:1011C800000E056E75EC12F0A19265EC13F00009A3
:1011D800D8B4F1EF08F0F3EF08F0E9EF08F0000EEB
:1011E8000101E56F000EE46F640EE425D96E020E6E
:1011F800E521DA6E000EDF6EE44BE52B020EE55DAD
:10120800D8A009EF09F00BEF09F0F8EF08F0000E8D
:10121800066E000E076E000E086E000E096E640E54
:101228000A6E020E0B6EE8EC0EF0640E2B6E020EC8
:101238002C6E5EEC0CF0C80E116EFF0E126E75EC83
:1012480009F09CEF00F0490E116EFF0E126EE3C11B
:1012580013F0146A75EC09F0CA0E116EFF0E126EC7
:1012680075EC09F09CEF00F0E3513F0AD8B4ACEFFD
:1012780000F0650AD8B42CEF01F03B0AD8B469EF46
:1012880001F0030AD8B49CEF07F0010AD8B408EFBC
:1012980003F0070AD8B403EF02F00C0AD8B4DEEF63
:1012A80006F0010AD8B41EEF08F0050AD8B47CEF9E
:1012B80005F0010AD8B4E5EF04F0020AD8B41EEF2D
:1012C80001F01C0AD8B45EEF08F0070AD8B44AEF58
:1012D80006F00E0AD8B44BEF01F027EF09F026EF1D
:1012E80000F0130E236E000E246E4BEF0CF0250E4B
:1012F8002A18D8B482EF09F084EF09F089EF09F0D1
:101308002A50B3EC13F04BEF0CF0000E296E000ED0
:10131800286E000E276E94EF09F02784114A122ACE
:1013280011C0F6FF12C0F7FFF86A0800F550300A3E
:10133800D8B491EF09F0A1EF09F011C0F6FF12C07F
:10134800F7FFF86A0800F550A5EC11F0D8A0AFEF48
:1013580009F0B1EF09F094EF0AF0000E296E000EC3
:10136800286E28C005F029C006F0000E086E0A0E87
:10137800076E9DEC12F005C028F006C029F0D00ECB
:10138800196EFF0E1A6E11C0F6FF12C0F7FFF86A49
:101398000800F5501B6E1C6A19501B261A501C2297
:1013A8001B5028261C502922114A122A11C0F6FF68
:1013B80012C0F7FFF86A0800F550A5EC11F0D8B094
:1013C800E8EF09F0EAEF09F0B5EF09F094EF0AF059
:1013D800278EBDEF0AF023C0D9FF24C0DAFFDECF85
:1013E8001FF0DDCF20F0020E2326000E24221F500E
:1013F8002010D8A402EF0AF004EF0AF008EF0AF070
:10140800D00E1F6EFF0E206E000E226E000E216E93
:1014180010EF0AF0214A222A21501F24196E225067
:1014280020201A6E19C0F6FF1AC0F7FF000EF86EDA
:101438000F0EF76403D00800F55005D0F6CFE9FF8A
:10144800F7CFEAFFEF500009D8A42DEF0AF02FEFED
:101458000AF00EEF0AF02850215C29502258D8B023
:1014680038EF0AF03AEF0AF040EF0AF02150285E10
:101478002250295A49EF0AF0000E296E000E286EF4
:1014880049EF0AF0200EB3EC13F02806D8A029067D
:10149800282806E12928D8A454EF0AF056EF0AF0C4
:1014A80046EF0AF06DEF0AF01FC0F6FF20C0F7FF05
:1014B800000EF86E0F0EF76403D00800F55005D043
:1014C800F6CFE9FFF7CFEAFFEF50B3EC13F01F4A6E
:1014D800202A2106D8A02206212806E12228D8A4FD
:1014E80078EF0AF07AEF0AF058EF0AF04BEF0CF0B9
:1014F80023C0D9FF24C0DAFFDF502A6E020E23264C
:10150800000E24222A0E1F6E000E206E000E226E80
:10151800010E216E2FEF0AF0C00E2712BDEF0AF060
:1015280011C0F6FF12C0F7FF114A122AF86A080024
:10153800F5CF2AF02A50000AD8B45DEF0CF0630A00
:10154800D8B47CEF0AF0070AD8B4BDEF0AF00D0A48
:10155800D8B4BDEF0AF01A0AD8B4EFEF09F0060ABA
:10156800D8B490EF0AF00D0AD8B4ECEF09F086EF82
:101578000AF027C019F0C00E1916D8A4C6EF0AF051
:10158800C8EF0AF0E3EF0AF023C0D9FF24C0DAFF5E
:10159800DECF25F0DDCF26F0020E2326000E242212
:1015A80026BEDBEF0AF0D9EF0AF045EF0BF0030E89
:1015B8002712256C261ED8B0262A45EF0BF023C02B
:1015C800D9FF24C0DAFFDECF25F0DDCF26F0020EEA
:1015D8002326000E242245EF0BF0010E2A6E050E7D
:1015E8002A18D8A4FAEF0AF0FCEF0AF0FEEF0AF086
:1015F80055EF0BF02A50020D3C0EF324F66EF50E53
:10160800F420F76EF86A000EF8220900F550255C00
:101618000900F5502658D8B014EF0BF016EF0BF070
:1016280018EF0BF055EF0BF02A2AF3EF0AF0010E32
:101638002A6E040E2A18D8A424EF0BF026EF0BF01C
:1016480028EF0BF055EF0BF02A50020D460EF3244D
:10165800F66EF50EF420F76EF86A000EF82209000F
:10166800F550255C0900F5502658D8B03EEF0BF030
:1016780040EF0BF042EF0BF055EF0BF02A2A1DEF6D
:101688000BF02750C00B000AD8B4F1EF0AF0800A1B
:10169800D8B41BEF0BF0400AD8B4F1EF0AF055EFBD
:1016A8000BF028502910D8B45CEF0BF05EEF0BF06C
:1016B8006CEF0BF027C019F0030E1916D8B467EFBA
:1016C8000BF069EF0BF06CEF0BF02806D8A0290699
:1016D8002A50196E1A6A2850195C1A50800A1B6E13
:1016E8002950800A1B58D8B07CEF0BF07EEF0BF026
:1016F80084EF0BF02A50285E000E295A88EF0BF071
:10170800000E296E000E286E27A48DEF0BF08FEFC8
:101718000BF0B7EF0BF027C019F0030E1916D8B469
:1017280098EF0BF09AEF0BF09DEF0BF02D0EB3EC4A
:1017380013F028502910D8B4A4EF0BF0A6EF0BF043
:10174800DDEF0BF0300EB3EC13F02806D8A0290615
:1017580028502910D8A4B3EF0BF0B5EF0BF0A6EF83
:101768000BF0DDEF0BF028502910D8B4BEEF0BF0CA
:10177800C0EF0BF0CFEF0BF0200EB3EC13F0280600
:10178800D8A0290628502910D8A4CDEF0BF0CFEF08
:101798000BF0C0EF0BF027C019F0030E1916D8B4E0
:1017A800D8EF0BF0DAEF0BF0DDEF0BF02D0EB3EC0A
:1017B80013F02AC01EF042EF0CF01E50020D3C0E32
:1017C800F324F66EF50EF420F76EF86A000EF82290
:1017D8000900F5CF07F00A00F5CF08F025C005F09D
:1017E80026C006F04FEC10F005C00CF006C00DF056
:1017F800000E0F6E0A0E0E6EBBEC10F00C50300F80
:101808002A6E3FEF0CF025C005F026C006F01E50EA
:10181800020D460EF324F66EF50EF420F76EF86A04
:10182800000EF8220900F5CF07F00A00F5CF08F0FE
:101838004FEC10F005500F0B1D6E380E1D24F66E80
:10184800F76AFF0EF722F86A000EF8220800F5CFB3
:101858002AF03FEF0CF02750C00B000AD8B4E1EF94
:101868000BF0800AD8B407EF0CF0400AD8B4E1EFC7
:101878000BF03FEF0CF02A50B3EC13F01E061E28B5
:10188800D8A449EF0CF04BEF0CF02FEF0CF011C07F
:10189800F6FF12C0F7FF114A122AF86A0800F5CFBE
:1018A8002AF02A50D8A45BEF0CF05DEF0CF07BEF28
:1018B80009F01200E40E116EFF0E126E75EC09F0BD
:1018C800000E346E000E336E33503410D8B46FEF00
:1018D8000CF071EF0CF086EF0CF0070E33142D6E40
:1018E800000E34142E6E2D502E10D8A47EEF0CF05E
:1018F80080EF0CF086EF0CF0EC0E116EFE0E126EFF
:1019080075EC09F033503410D8B48DEF0CF08FEF2C
:101918000CF0E6EF0CF00F0E33142D6E000E34149D
:101928002E6E2D502E10D8A49CEF0CF09EEF0CF0CC
:10193800E6EF0CF0770E116EFF0E126E75EC09F0E3
:10194800F00E33242F6EFF0E3420306ED5EF0CF0DE
:101958002F502B24D96E30502C20DA6E200EDF60E9
:10196800B8EF0CF0BAEF0CF0C2EF0CF0630E116E8A
:10197800FA0E126E75EC09F0D3EF0CF0FC0E116E36
:10198800FF0E126E2F502B24D96E30502C20DA6E99
:10199800DF502D6E2D50136E146A75EC09F02F4A26
:1019A800302A33502F5C34503058D8A0DEEF0CF07A
:1019B800E0EF0CF0ACEF0CF09A0E116EF70E126E11
:1019C80075EC09F0DE0E116EFF0E126E33502B24EB
:1019D800D96E34502C20DA6EDF502D6E2D50136ED8
:1019E800146A75EC09F0334A342A020E345CD8A024
:1019F80000EF0DF002EF0DF068EF0CF0760E116EAF
:101A0800FF0E126E75EC09F0F00E3324316EFF0EE6
:101A18003420326E39EF0DF031502B24D96E32500C
:101A28002C20DA6E200EDF601CEF0DF01EEF0DF09B
:101A380026EF0DF0630E116EFA0E126E75EC09F0BA
:101A480037EF0DF0FC0E116EFF0E126E31502B2485
:101A5800D96E32502C20DA6EDF502D6E2D50136E59
:101A6800146A75EC09F0314A322A3350315C34502B
:101A78003258D8A042EF0DF044EF0DF010EF0DF002
:101A88009A0E116EF70E126E75EC09F01200720EB6
:101A9800066E480E056E61EC12F09E90000E066E02
:101AA8002A0E056EF0EC11F05BEC13F00009D8B4C7
:101AB80060EF0DF062EF0DF058EF0DF0BA0E066E04
:101AC800000E056E61EC12F09E90000E066E000E80
:101AD800056EF0EC11F05BEC13F00009D8B477EF69
:101AE8000DF079EF0DF06FEF0DF0CA0E0B6E000ED2
:101AF8000C6ED8900934D96E0A34DA6ED890D9367B
:101B0800DA360B50D9260C50DA22DECF11F0DECFB0
:101B180012F0DECF13F0DECF14F0000E166E000EBA
:101B2800156E14AE9AEF0DF09CEF0DF0A2EF0DF0CC
:101B3800190E106EC80E0F6EA6EF0DF0080E106E7F
:101B4800300E0F6EF60E066EE00E056E61EC12F0AA
:101B58009E90000E066E2A0E056EF0EC11F05BECFE
:101B680013F00009D8B4BBEF0DF0BDEF0DF0B3EFE3
:101B78000DF00F500008056E1050D8A0E82A000894
:101B8800066E61EC12F09E90000E066E000E056E59
:101B9800F0EC11F05BEC13F00009D8B4D6EF0DF0BF
:101BA800D8EF0DF0CEEF0DF0D8901134116E12343D
:101BB800126E1334136E1434146E154A162A16BE98
:101BC800EFEF0DF0165009E1210E155CD8A0EFEFEC
:101BD8000DF0F1EF0DF095EF0DF01200066E6CBAF6
:101BE800F8EF0DF0FAEF0DF047EF0EF00650040D88
:101BF800010EF326000EF4224E0EF324F66EF50EB7
:101C0800F420F76EF86A000EF8220800F5CF6DFF91
:101C18000650040D4E0EF324F66EF50EF420F76E02
:101C2800F86A000EF8220800F5CF6CFF000E6B6E04
:101C38000650040D020EF326000EF4224E0EF32475
:101C4800F66EF50EF420F76EF86A000EF82208001A
:101C5800F5CF6EFF0650040D030EF326000EF42296
:101C68004E0EF324F66EF50EF420F76EF86A000EA9
:101C7800F8220800F5CF05F0054693500518FD0B2E
:101C88000518936E6C8A1200808D99A5B1BDC8D2D3
:101C9800DBE3EBF1F6FAFDFFFFFEFCF8F4EEE7DF1D
:101CA800D6CDC2B7AB9F93867A6D6155493E332A2C
:101CB8002119120C080402010103060A0F151D253B
:101CC8002E38434F5B6773800000FF03FF0300005B
:101CD8000000FF03FF030000FF03FF0300000000F4
:101CE800FF03FF0300000000FF0300000000FF03E4
:101CF800FF03D7289718EF1097186E9197181DE2D1
:101D08009718AB549718AE5197182BD497189D6213
:101D18009718E21D9718827D9718070A0A0C0A0A75
:101D28000C0B0C0C0B0D0D0D2F6E2F5035EC0FF00E
:101D38008A98FF0E20EC13F0410E20EC13F0000EF1
:101D480020EC13F0000E20EC13F0000E20EC13F042
:101D5800000E20EC13F0FF0E20EC13F0FF0E20EC29
:101D680013F0FF0E20EC13F0306E8A883050D8A4A0
:101D7800C0EF0EF0C2EF0EF09CEF0EF02F04D8A4C7
:101D8800C8EF0EF0CAEF0EF0D3EF0EF09C0E116EF6
:101D9800FD0E126E30C013F0146A75EC09F0EDEC0C
:101DA80010F0306E2F04D8A4DCEF0EF0DEEF0EF04A
:101DB800E7EF0EF0F70E116EFC0E126E30C013F046
:101DC800146A75EC09F012008A98FF0E20EC13F0E3
:101DD800510E20EC13F0095020EC13F0085020ECC1
:101DE80013F0075020EC13F0065020EC13F0FF0E10
:101DF80020EC13F0FF0E20EC13F0FF0AD8B407EF25
:101E08000FF009EF0FF0FEEF0EF0FF0E20EC13F0CD
:101E1800FF0AD8B412EF0FF014EF0FF009EF0FF02C
:101E2800000E0D6E000E0C6E0C500A24D96E0D506B
:101E38000B20DA6EFF0E20EC13F0DF6E0C4A0D2A31
:101E4800020E0D5CD8A02BEF0FF02DEF0FF018EF5E
:101E58000FF0FF0E20EC13F0FF0E20EC13F08A8831
:101E680012002B6E000E2E6E000E2D6EFF0E20EC53
:101E780013F02D4A2E2A2EBE4BEF0FF02E5009E1FB
:101E88000A0E2D5CD8A04BEF0FF04DEF0FF03AEF94
:101E98000FF08A98FF0E20EC13F0400E20EC13F0A0
:101EA800000E20EC13F0000E20EC13F0000E20ECD6
:101EB80013F0000E20EC13F0950E20EC13F0FF0E3B
:101EC80020EC13F0FF0E20EC13F02C6E8A882B0404
:101ED800D8A471EF0FF073EF0FF07CEF0FF04B0EFB
:101EE800116EFD0E126E2CC013F0146A75EC09F019
:101EF80012008A98FF0E20EC13F0580E20EC13F015
:101F0800095020EC13F0085020EC13F0075020EC97
:101F180013F0065020EC13F0FF0E20EC13F0FF0E28
:101F280020EC13F0FF0AD8B49CEF0FF09EEF0FF0EF
:101F380093EF0FF0FF0E20EC13F0FF0E20EC13F0E0
:101F4800FF0E20EC13F0FE0E20EC13F0000E0D6EC9
:101F5800000E0C6E0C500A24D96E0D500B20DA6E50
:101F6800DF5020EC13F00C4A0D2A020E0D5CD8A0AD
:101F7800C0EF0FF0C2EF0FF0AEEF0FF08A8812003B
:101F88003B4A3C2A080E3B183C10D8A4CEEF0FF071
:101F9800D0EF0FF0E6EF0FF08ABED5EF0FF0D8EFD5
:101FA8000FF0010ED9EF0FF0000EFF0A016E01329B
:101FB80001328A5001187F0B01188A6E000E3C6EA0
:101FC800000E3B6E394A3A2A510E39183A10D8A4F5
:101FD800F0EF0FF0F2EF0FF009EF10F0000E3A6E8D
:101FE800000E396E8ABCFBEF0FF0FEEF0FF0010E0A
:101FF800FFEF0FF0000EFF0A016E013A014601469D
:102008008A500118BF0B01188A6E1200120EF66E64
:10201800210EF76E000EF86E02EE00F010EE64F07E
:102028000900F5CFEEFFE550E150FAE1700EF66ECB
:10203800270EF76E000EF86E01EEE7F010EE06F0D0
:102048000900F5CFEEFFE550E150FAE1900EF66E8B
:102058001C0EF76E000EF86E00EE60F010EEA0F0A9
:102068000900F5CFEEFFE550E150FAE102EE64F029
:1020780012EE00F0EE6AE550E150FCE1E250FAE1C0
:1020880000EE39F0190EEE6AE806FDE15290529220
:10209800000128EF00F0000E0A6E000E096E0750CE
:1020A8000810D8B45AEF10F05CEF10F084EF10F07D
:1020B800010E0B6E64EF10F0D890073608360B2A25
:1020C80008AE69EF10F06BEF10F060EF10F0D890E9
:1020D80009360A360750055C08500658D8A077EF2D
:1020E80010F079EF10F07EEF10F00750055E085001
:1020F800065A0980D890083207320B2E6BEF10F081
:1021080009C005F00AC006F012004F46460000005C
:10211800000000004F4E00000000000000004D418C
:10212800472B000000000000504943204D555445FE
:102138000000504720555000000000004D41472D39
:10214800000000000000504720444F574E00000098
:102158004D454E550000000000005550000000009D
:10216800000000004C4546540000000000000E50DE
:102178000F10D8B4C2EF10F0C4EF10F0E8EF10F071
:10218800010E106ECCEF10F0D8900E360F36102AD4
:102198000FAED1EF10F0D3EF10F0C8EF10F00E50E3
:1021A8000C5C0F500D58D8A0DCEF10F0DEEF10F0EB
:1021B800E2EF10F00E500C5E0F500D5AD8900F320F
:1021C8000E32102ED3EF10F00CC00CF00DC00DF035
:1021D80012008A98FF0E20EC13F0500E20EC13F03A
:1021E800000E20EC13F0000E20EC13F0020E20EC91
:1021F80013F0000E20EC13F0FF0E20EC13F0FF0E8E
:1022080020EC13F0FF0E20EC13F0066E8A880628E7
:10221800D8B411EF11F013EF11F0EDEF10F00650F4
:102228001200080EB86E900EAB6E240EAC6E820EC5
:10223800AF6E060EB06E000E056E000E066EA9ECAF
:1022480013F0000E056E000E066EA4EC13F0000EDF
:10225800056E000E066EAEEC13F0000E516E120005
:10226800BBEC13F096EC13F036EC12F012EC13F012
:10227800C2EC12F08DEC13F02DEC13F0B0EC12F070
:1022880045EC13F0D4EC12F0F6EC12F020EC12F05E
:1022980004EC13F015EC11F012007E924BC001F023
:1022A8004CC002F04CEC12F049504A10D8B45FEF21
:1022B80011F061EF11F06DEF11F002D86DEF11F030
:1022C8000500FA6E4950FD6E4A50FE6EFF6AFA50DC
:1022D800120012008A980D0E20EC13F0066E8A8800
:1022E8000628D8A47AEF11F07CEF11F07FEF11F0F7
:1022F800FF0E89EF11F0FF0E20EC13F0FF0E20EC1B
:1023080013F0FF0E20EC13F00650120005C007F082
:1023180006C008F092EF11F0074A082A07C0D9FF53
:1023280008C0DAFFDF50D8A49CEF11F09EEF11F03F
:1023380090EF11F00550075C056E06500858066EC0
:102348001200076E000E066E3A0E0760AEEF11F02F
:10235800B0EF11F0BAEF11F02F0E0764B6EF11F0DD
:10236800B8EF11F0BAEF11F0010E066E06C005F0D5
:102378000530120005C007F006C008F0D8900832F2
:102388000732D8900832073207500F01586F05C03E
:1023980007F0030E0716073AF00E07165751CF0B32
:1023A8000710576F120005C007F006C008F0D89054
:1023B80008320732D8900832073207500F015E6F93
:1023C80005C007F0030E0716073AF00E07165D5111
:1023D800CF0B07105D6F120005C007F006C008F0AC
:1023E800D89008320732D890083207320750676E03
:1023F80005C007F0030E0716073AF00E07166650D9
:10240800CF0B0710666E120005C007F006C008F073
:10241800D89008320732D890083207320750BE6E7B
:1024280005C007F0030E0716073AF00E0716BD5051
:10243800CF0B0710BD6E1200000E0F014D6F5069D3
:10244800600E4F6F4FCF4BF050CF4CF07E927D8295
:10245800820E056E270E066E9FEC13F0010E0F011B
:102468004E6F1200000E896E000E8A6E000E8B6E83
:102478009268040E936EA90E946E280E0F013A6F9F
:10248800000E396F220E386F000E616EF18E120049
:102498000F014EA552EF12F054EF12F05CEF12F05C
:1024A8004E910250506F01C04FFF4E8160EF12F005
:1024B8000250506F01C04FFF1200CDA466EF12F01A
:1024C80068EF12F070EF12F0CD900650CF6E05C095
:1024D800CEFFCD8074EF12F00650CF6E05C0CEFF50
:1024E8001200B1A47AEF12F07CEF12F084EF12F030
:1024F800B1900650B36E05C0B2FFB18088EF12F0FC
:102508000650B36E05C0B2FF12009EAA8EEF12F0FD
:1025180090EF12F089EF12F0000E516EABA297EF18
:1025280012F099EF12F09BEF12F0AB98AB88AE5017
:10253800120005500702F3CF09F0F4CF0AF0055056
:102548000802F3500A2606500702F3500A2609C06B
:1025580005F00AC006F012001C0E0F015D6F000E98
:102568005B6F800E5C6F010E5A6F000E5F6F340E4A
:102578005E6F49513F0B4009496F12001C0E666E91
:10258800000E646E800E656E010E636E000E686E3E
:10259800340E676E0F014951E70B0809496F1200A5
:1025A8001C0EBD6E000EB66E800EB76E010EB96EB3
:1025B800000EBF6E340EBE6E0F014951FC0B0109AF
:1025C800496F1200B182B2CF0CF0B3CF0BF00B50B1
:1025D800076E0C50096E07C00AF009C005F00AC062
:1025E80006F01200000EB46EE00EB36E000EB26E6E
:1025F800B2CF4FF0B3CF50F0A192310EB16E1200AE
:10260800000ECC6EC00ECF6E000ECE6ECECF4DF04B
:10261800CFCF4EF09E90210ECD6E1200700ED36E6D
:10262800040ED26E400E9B6ED2AE1DEF13F01FEF5C
:1026380013F018EF13F01200056E05C06FFFA4AE7B
:1026480028EF13F02AEF13F023EF13F0A49E6F5036
:1026580012000C0E0F01576F000E586F000E596FC5
:102668004851FC0B0109486F1200066E06C005F0C0
:1026780005460546C2500518830B0518C26EC28070
:102688001200000EC16E060EC06E000EC36E000E64
:10269800C46E110EC26E1200056E9EA856EF13F09E
:1026A80058EF13F051EF13F005C0ADFF12009EB0C4
:1026B80060EF13F063EF13F0010E64EF13F0000EF8
:1026C8001200A1B26AEF13F06DEF13F0010E6EEF76
:1026D80013F0000E12009EBA74EF13F077EF13F0A8
:1026E800010E78EF13F0000E1200C2A27EEF13F075
:1026F80081EF13F0010E82EF13F0000E1200C450A8
:10270800086E076AC3500724056E000E0820066E7F
:102718001200680E0F01526F000E536F7E90050E67
:10272800516F1200400E6D6E010E6C6E010E6E6ED2
:1027380093926C9A120005C049F006C04AF0120044
:1027480005C043F006C044F0120005C045F006C0BD
:1027580046F0120005C041F006C042F01200066EB5
:10276800065050EC13F01200EC07E008F809D09E70
:0C27780012006C9A1200C28212001200C3
:10F51A000045454E4720333833202D20534420439D
:10F52A006172642054657374205061737365642139
:10F53A00210001000A006400E803102701001000FE
:10F54A00000100100140010020202020436F6E6E50
:10F55A00656374206F7363696C6C6F73636F706536
:10F56A00206368616E6E656C203220746F204C5087
:10F57A00466F75742070696E206F6E2068656164CD
:10F58A0065722028766572746963616C20736361A1
:10F59A006C652031762F646976292E0D0A002020A9
:10F5AA002020436F6E6E656374206F7363696C6CA1
:10F5BA006F73636F7065206368616E6E656C20316E
:10F5CA0020746F2050494320686561646572207019
:10F5DA00696E2043322028766572746963616C20F3
:10F5EA007363616C652032762F646976292E0D0A61
:10F5FA000020202020436F6E6E656374206F736352
:10F60A00696C6C6F73636F7065206368616E6E6599
:10F61A006C203120746F205049432068656164650D
:10F62A00722070696E20433420287665727469638B
:10F63A00616C207363616C652032762F6469762968
:10F64A002E0D0A002020202053656C6563742074F7
:10F65A00686520696E646578206F66207468652025
:10F66A00636F6D6D616E6420746F2073656E6420C4
:10F67A0066726F6D2074686520666F6C6C6F77694F
:10F68A006E67206C6973743A0D0A00202020205797
:10F69A00617665206E6F72746820616E6420736F84
:10F6AA0075746820706F6C6573206F66206D616772
:10F6BA006E65742061626F76652048616C6C2065A6
:10F6CA0066666563742073656E736F722E0D0A0029
:10F6DA0020202020496620796F7520686176652090
:10F6EA006E6F7420696E7374616C6C6564207468E3
:10F6FA0065205344206361726420686F6C6465728C
:10F70A002C20726573657420746865205049430D16
:10F71A000A003D3D3D3D3D3D3D3D3D3D3D3D3D3D7F
:10F72A003D3D3D3D3D3D3D3D3D3D3D3D3D3D3D3DFF
:10F73A003D3D3D3D3D3D3D3D3D3D3D3D3D3D3D3DEF
:10F74A003D3D3D3D3D3D3D3D3D3D3D3D3D3D3D3DDF
:10F75A000D0A0020202020506C6163652061206A18
:10F76A00756D706572206F766572204A5031206E11
:10F77A00657874202869742773206E6578742074FC
:10F78A006F207468652055534220706F7274292E59
:10F79A000D0A00202020205072657373207468655A
:10F7AA0020757070657220627574746F6E20746F44
:10F7BA0020706C617920746865206E657874206E9B
:10F7CA006F74652066726F6D206120736F6E672E8D
:10F7DA000D0A0020202020496620796F7520686173
:10F7EA007665206E6F7420696E7374616C6C6564E3
:10F7FA0020746865205344206361726420686F6CCA
:10F80A006465722C207265736574205049430D0A31
:10F81A000020202020436F6E6E6563742050494398
:10F82A002070696E20433420746F204C5046696EF4
:10F83A002070696E207573696E672061206A756D24
:10F84A0070657220776972652E0D0A0020202020CB
:10F85A00436F6E6E656374207468652073706561AA
:10F86A006B657220746F2074686520677265656EB7
:10F87A00207465726D696E616C20626C6F636B2EA9
:10F88A000D0A0020202020496E7374616C6C206A76
:10F89A00756D706572206F766572205243322061F1
:10F8AA006E64204C5046696E206F6E2068656164F4
:10F8BA0065722E0D0A0020202020506C616365209D
:10F8CA0061206A756D706572206F76657220746842
:10F8DA0065204C50466F75742F414D50696E206AF1
:10F8EA00756D7065722E0D0A0020202020576869F8
:10F8FA006C652077686973746C696E67206E6561E0
:10F90A007220746865206D69632C20707265737348
:10F91A0020616E79206B65792E0D0A002020202047
:10F92A005072657373206C6F776572206275747498
:10F93A006F6E20746F2064656372656173652066FB
:10F94A0072657175656E63792E0D0A00202020207C
:10F95A005072657373207570706572206275747465
:10F96A006F6E20746F20696E6372656173652066BD
:10F97A0072657175656E63792E0D0A00202020204C
:10F98A005072657373207468652075707065722C87
:10F99A00206C6F7765722C206F7220626F746820FA
:10F9AA00627574746F6E732E0D0A00202020204D2C
:10F9BA00616B6520737572652053442063617264BC
:10F9CA002069732070726F7065726C7920696E732A
:10F9DA0065727465642E0D0A002020202053657418
:10F9EA002074686520686F72697A6F6E74616C2022
:10F9FA007363616C6520746F203235306D732F64C8
:10FA0A0069762E0D0A0020202020496E76616C69E5
:10FA1A006420646967697420256320656E74657261
:10FA2A0065642E2020456E74657220302D392E0DA6
:10FA3A000A00202020205365742074686520686FAE
:10FA4A0072697A6F6E74616C207363616C6520747D
:10FA5A006F20356D732F6469762E00202020205088
:10FA6A007265737320612049522072656D6F7465E7
:10FA7A0020636F6E74726F6C20627574746F6E2E71
:10FA8A000D0A0020202020436F6E6E656374206A81
:10FA9A00756D706572206F7665722049525F545891
:10FAAA00206865616465722E0D0A00436F6C6F727F
:10FABA0061646F205363686F6F6C206F66204D69B5
:10FACA006E6573202D2045454E47203338330D0A85
:10FADA0000202020204E6F727468206D61676E6569
:10FAEA00746963206669656C64206465746563740F
:10FAFA0065642E0D0A0020202020536F757468203B
:10FB0A006D61676E65746963206669656C642064FB
:10FB1A00657465637465642E0D0A002020202042F6
:10FB2A006F746820627574746F6E73206265696E93
:10FB3A006720707265737365642E0D0A0020202099
:10FB4A00205344206361726420696E697469616C30
:10FB5A00697A6174696F6E20746573740D0A002086
:10FB6A00202020507265737320616E79206B65794D
:10FB7A0020746F20636F6E74696E75652E0D0A00AE
:10FB8A006C3A204C6F7720706173732066696C74CD
:10FB9A00657220284C50462920746573742E0D0A0C
:10FBAA0000202020204C6F772070617373206669D3
:10FBBA006C74657220284C50462920746573740D44
:10FBCA000A0020202020446F6E65206C6F77206623
:10FBDA0072657175656E637920776176652E0D0A97
:10FBEA000020202020446F6E65206465636F64697D
:10FBFA006E67204952207061636B65742E0D0A008E
:10FC0A00743A204952204C4544207472616E736DD7
:10FC1A00697474657220746573742E0D0A00683AEB
:10FC2A002048616C6C206566666563742073656E36
:10FC3A00736F7220746573742E0D0A0020202020C1
:10FC4A005344206361726420726561642F7772691C
:10FC5A00746520746573740D0A00202020204952AF
:10FC6A00204C4544207472616E736D6974746572B8
:10FC7A0020746573740D0A002020202048616C6C82
:10FC8A00206566666563742073656E736F7220748F
:10FC9A006573740D0A0020202020557070706572FB
:10FCAA0020627574746F6E20707265737365642E4A
:10FCBA000D0A00202020204A7573742073656E7423
:10FCCA0020636F6D6D616E643A2025732E0D0A00F4
:10FCDA0020202020507265737320616E79206B6535
:10FCEA007920746F20657869742E0D0A00426C6F52
:10FCFA00636B204C656E67746820526573706F6E13
:10FD0A0073653A2025780D0A002020202054726954
:10FD1A0067676572206F6E206368616E6E656C201E
:10FD2A00322E0D0A00202020204C6F776572206247
:10FD3A007574746F6E20707265737365642E0D0A24
:10FD4A0000434D44302C205265736574205265730C
:10FD5A00706F6E73653A2025780D0A0020202020E6
:10FD6A0053616D706C6564206576657279203130F7
:10FD7A003075532E0D0A0020202020486974206116
:10FD8A006E79206B657920746F20657869742E0D01
:10FD9A000A00434D44312C20496E69742052657320
:10FDAA00706F6E73653A2025780D0A002020202096
:10FDBA00436F6E6E6563742052423520746F204221
:10FDCA002E0D0A0020202020436F6E6E656374207A
:10FDDA0052423020746F20472E0D0A002020202026
:10FDEA00436F6E6E6563742052433220746F2052E3
:10FDFA002E0D0A007A3A20636C6561722074686578
:10FE0A00207465726D696E616C0D0A0020202020D5
:10FE1A00446F6E6520636F6C6F7220746F75722EFB
:10FE2A000D0A002020202048696464656E206D65F3
:10FE3A006E75206974656D0D0A00643A2049522076
:10FE4A006465636F64657220746573742E0D0A00AD
:10FE5A00202020204D6963726F70686F6E65207470
:10FE6A006573740D0A0020202020495220646563BE
:10FE7A006F64657220746573740D0A0061202041F5
:10FE8A006D706C696669657220746573742E0D0AEB
:10FE9A00005A3A2072657365742070726F636573D5
:10FEAA00736F720D0A006D3A204D6963726F706844
:10FEBA006F6E6520746573740D0A0020202020413E
:10FECA006D706C696669657220746573740D0A00D9
:10FEDA00202020206269740968696768096C6F7755
:10FEEA000D0A2000633A20524742204C45442074B0
:10FEFA006573742E0D0A0020202020524742204CA0
:10FF0A00454420746573740D0A00623A2042757480
:10FF1A00746F6E20746573742E0D0A0020202020E1
:10FF2A00427574746F6E20746573740D0A003031F3
:10FF3A003233343536373839616263646566005561
:10FF4A006E6B6E6F776E206B65792025630D0A00E4
:10FF5A002020202025643A0925780925780D0A00F1
:10FF6A00202020204D49433A200D0A20202020003D
:10FF7A0044657627323120426F6172640D0A00545B
:10FF8A006573742050726F6772616D0D0A003F3A93
:10FF9A002068656C70206D656E750D0A0020202042
:10FFAA00202564202025730D0A0046616C6C2032DE
:10FFBA003032300D0A006F3A096F6B0D0A000D0AD4
:10FFCA00434D443E2000286E756C6C29006F3A2020
:10FFDA006B0D0A002530327820000D0A0A00610DE7
:10FFEA000A00620D0A00680D0A00690D0A002575EB
:06FFFA0020002563000059
:020000040020DA
:08000000FFFFFFFFFFFFFFFF00
:020000040030CA
:0E000000FF281F3CFFBF85FF0FC00FE00F4021
:00000001FF
