:020000040000FA
:040000004EEF00F0CF
:100008005E82FACF74F0FBCF75F0E1CF76F0E2CFE5
:1000180077F0D9CF78F0DACF79F0F3CF7AF0F4CF60
:100028007BF0F6CF7CF0F7CF7DF0F8CF7EF0F5CF00
:100038007FF0F2AC22EF00F024EF00F034EF00F094
:100048009DA029EF00F02BEF00F034EF00F09EA008
:1000580030EF00F032EF00F034EF00F04EEC0EF02D
:100068007FC0F5FF7EC0F8FF7DC0F7FF7CC0F6FFBC
:100078007BC0F4FF7AC0F3FF79C0DAFF78C0D9FFFC
:1000880077C0E2FF76C0E1FF75C0FBFF74C0FAFFDE
:100098005E9211000EEF0EF002C1D9FF03C1DAFF24
:1000A800DECFF6FFDDCFF7FFF86A0800F550250A26
:1000B800D8A461EF00F063EF00F047EF02F002C14F
:1000C800D9FF03C1DAFFDE2A000EDD22000E00018F
:1000D800C56F000EC46FC4C0C8F0C5C0C9F0C669FA
:1000E800C769000E0101136F000E126FC8EF00F010
:1000F8000001C88102C1D9FF03C1DAFFDE2A000E60
:10010800DD22C8EF00F00001C8837EEF00F0000197
:10011800C8857EEF00F00001C8877EEF00F000017F
:10012800C8897EEF00F0000E136F010E126FC8EF42
:1001380000F002C1D9FF03C1DAFFDECFF6FFDDCF41
:10014800F7FFF86A0800F550066F076B0751000AB9
:10015800D8B4B1EF00F097EF00F00651200AD8B4F8
:100168008FEF00F0030AD8B493EF00F0080AD8B470
:100178008BEF00F0060AD8B47CEF00F01D0AD8B463
:1001880087EF00F097EF00F0010112511311D8B476
:10019800D0EF00F0D2EF00F09DEF00F00001C8A111
:1001A800D8EF00F0DAEF00F0DBEF00F0C89302C1FF
:1001B800D9FF03C1DAFFDECFF6FFDDCFF7FFF86A1C
:1001C8000800F5502A0AD8A4ECEF00F0EEEF00F092
:1001D80017EF01F002C1D9FF03C1DAFFDE2A000ED2
:1001E800DD2204C1D9FF05C1DAFFDFCF06F1020E17
:1001F800DE26DFCF07F1000EDD2206C1D9FF07C1D9
:10020800DAFFDECFC4F0DDCFC5F0C5BF10EF01F0D7
:100218000EEF01F05CEF01F0C881C46DC51FD8B0C6
:10022800C52B5CEF01F002C1D9FF03C1DAFFDECFB5
:1002380087F0DDCF88F0D6EC08F087C0C4F088C01E
:10024800C5F02EEF01F002C1D9FF03C1DAFFDE2AA3
:10025800000EDD22D00E0101066FFF0E076F02C1EE
:10026800D9FF03C1DAFFDECFF6FFDDCFF7FFF86A6B
:100278000800F550086F096B065108270751092334
:1002880009510AE10A0E085DD8A04DEF01F050EFC0
:1002980001F0010E51EF01F0000E146F156B1451AF
:1002A8001511D8A45AEF01F05CEF01F027EF01F027
:1002B80002C1D9FF03C1DAFFDECFF6FFDDCFF7FFBA
:1002C800F86A0800F550630AD8A46DEF01F06FEFE3
:1002D80001F097EF01F002C1D9FF03C1DAFFDE2A6E
:1002E800000EDD2204C1D9FF05C1DAFFDFCF06F118
:1002F800020EDE26DFCF07F1000EDD2206C1D9FF90
:1003080007C1DAFFDF500101166F00C19DF001C17E
:100318009EF016C19FF0C6EC0CF09DC000F19EC087
:1003280001F164EF02F002C1D9FF03C1DAFFDECFA9
:10033800F6FFDDCFF7FFF86A0800F550780AD8B461
:10034800A8EF01F0AAEF01F0BDEF01F002C1D9FF5B
:1003580003C1DAFFDECFF6FFDDCFF7FFF86A08004A
:10036800F550580AD8A4BBEF01F0BDEF01F00DEF2E
:1003780002F002C1D9FF03C1DAFFDECFF6FFDDCFFD
:10038800F7FFF86A0800F5CF16F102C1D9FF03C1DB
:10039800DAFFDE2A000EDD2204C1D9FF05C1DAFF2B
:1003A800DFCF06F1020EDE26DFCF07F1000EDD22D9
:1003B80006C1D9FF07C1DAFFDECF08F1DDCF09F1A9
:1003C80008C10AF109C10BF101010C6B0D6B0E6B31
:1003D8000F6B106B116B00C19DF001C19EF00AC13B
:1003E8009FF00BC1A0F00CC1A1F00DC1A2F00EC18D
:1003F800A3F00FC1A4F010C1A5F011C1A6F016C159
:10040800A7F0FCEC05F09DC000F19EC001F164EF7F
:1004180002F002C1D9FF03C1DAFFDECFF6FFDDCF5C
:10042800F7FFF86A0800F550250AD8A41EEF02F075
:1004380020EF02F039EF02F002C1D9FF03C1DAFF61
:10044800DE2A000EDD22000E0001836F250E826F6A
:1004580000C184F001C185F09BEC0BF0000E010196
:10046800016F010E006F64EF02F002C1D9FF03C1F2
:10047800DAFFDE2A000EDD22000E0101016F000EF8
:10048800006F64EF02F002C1D9FF03C1DAFFDECFCB
:10049800F6FFDDCFF7FFF86A0800F5500001826F1C
:1004A800836B00C184F001C185F09BEC0BF002C1A5
:1004B800D9FF03C1DAFFDE2A000EDD2232EF02F097
:1004C800120047C0D9FF48C0DAFFDECFF6FFDDCF04
:1004D800F7FFF86A0800F550250AD8A476EF02F06D
:1004E80078EF02F054EF04F047C0D9FF48C0DAFFB4
:1004F800DE2A000EDD22000E0001C56F000EC46F5B
:10050800C4C0C8F0C5C0C9F0C669C769000E586E36
:10051800000E576EDCEF02F00001C88147C0D9FF1A
:1005280048C0DAFFDE2A000EDD22DCEF02F000010F
:10053800C88392EF02F00001C88592EF02F0000133
:10054800C88792EF02F00001C88992EF02F0000E0E
:10055800586E010E576EDCEF02F047C0D9FF48C055
:10056800DAFFDECFF6FFDDCFF7FFF86A0800F550B7
:100578004B6E4C6A4C50000AD8B4C5EF02F0ABEF92
:1005880002F04B50200AD8B4A3EF02F0030AD8B403
:10059800A7EF02F0080AD8B49FEF02F0060AD8B411
:1005A80090EF02F01D0AD8B49BEF02F0ABEF02F017
:1005B80057505810D8B4E3EF02F0E5EF02F0B1EF6E
:1005C80002F00001C8A1EBEF02F0EDEF02F0EEEF50
:1005D80002F0C89347C0D9FF48C0DAFFDECFF6FF64
:1005E800DDCFF7FFF86A0800F5502A0AD8A4FFEF14
:1005F80002F001EF03F02AEF03F047C0D9FF48C02B
:10060800DAFFDE2A000EDD2249C0D9FF4AC0DAFF30
:10061800DFCF4BF0020EDE26DFCF4CF0000EDD22DE
:100628004BC0D9FF4CC0DAFFDECFC4F0DDCFC5F038
:10063800C5BF23EF03F021EF03F06EEF03F0C8818D
:10064800C46DC51FD8B0C52B6EEF03F047C0D9FFE6
:1006580048C0DAFFDECF08F0DDCF09F0A5EC09F0DD
:1006680008C0C4F009C0C5F041EF03F047C0D9FF86
:1006780048C0DAFFDE2A000EDD22D00E4B6EFF0ED8
:100688004C6E47C0D9FF48C0DAFFDECFF6FFDDCF9A
:10069800F7FFF86A0800F5504D6E4E6A4B504D262C
:1006A8004C504E224E500AE10A0E4D5CD8A05FEF26
:1006B80003F062EF03F0010E63EF03F0000E596ED2
:1006C8005A6A59505A10D8A46CEF03F06EEF03F031
:1006D8003AEF03F047C0D9FF48C0DAFFDECFF6FF94
:1006E800DDCFF7FFF86A0800F550630AD8A47FEF5A
:1006F80003F081EF03F0A8EF03F047C0D9FF48C02B
:10070800DAFFDE2A000EDD2249C0D9FF4AC0DAFF2F
:10071800DFCF4BF0020EDE26DFCF4CF0000EDD22DD
:100728004BC0D9FF4CC0DAFFDF505B6E45C01EF0EE
:1007380046C01FF05BC020F024EC0DF01EC045F051
:100748001FC046F070EF04F047C0D9FF48C0DAFF79
:10075800DECFF6FFDDCFF7FFF86A0800F550780A1C
:10076800D8B4B9EF03F0BBEF03F0CEEF03F047C006
:10077800D9FF48C0DAFFDECFF6FFDDCFF7FFF86A12
:100788000800F550580AD8A4CCEF03F0CEEF03F0D8
:100798001DEF04F047C0D9FF48C0DAFFDECFF6FFEF
:1007A800DDCFF7FFF86A0800F5CF5BF047C0D9FF47
:1007B80048C0DAFFDE2A000EDD2249C0D9FF4AC050
:1007C800DAFFDFCF4BF0020EDE26DFCF4CF0000E53
:1007D800DD224BC0D9FF4CC0DAFFDECF4DF0DDCFB4
:1007E8004EF04DC04FF04EC050F0516A526A536AF5
:1007F800546A556A566A45C01EF046C01FF04FC07D
:1008080020F050C021F051C022F052C023F053C054
:1008180024F054C025F055C026F056C027F05BC020
:1008280028F069EC07F01EC045F01FC046F070EFD5
:1008380004F047C0D9FF48C0DAFFDECFF6FFDDCFAE
:10084800F7FFF86A0800F550250AD8A42EEF04F03F
:1008580030EF04F047EF04F047C0D9FF48C0DAFF93
:10086800DE2A000EDD22000E046E250E036E45C042
:1008780005F046C006F0E7EC0BF0000E466E010EE0
:10088800456E70EF04F047C0D9FF48C0DAFFDE2A92
:10089800000EDD22000E466E000E456E70EF04F06D
:1008A80047C0D9FF48C0DAFFDECFF6FFDDCFF7FF3C
:1008B800F86A0800F550036E046A45C005F046C0A2
:1008C80006F0E7EC0BF047C0D9FF48C0DAFFDE2A94
:1008D800000EDD2241EF04F0120053EC10F0000E80
:1008E8000001816F000E806F84EC0FF09E909EA037
:1008F80080EF04F082EF04F07BEF04F0740E000147
:10090800806F160E816F7AEC10F0F28EF28CD90E91
:1009180001011F6FFF0E206FC5EC0FF0550E01018E
:100928001F6FFF0E206FC5EC0FF0E40E01011F6F63
:10093800FF0E206FC5EC0FF0BB0E01011F6FFF0EFD
:10094800206FC5EC0FF03E0E01011F6FFE0E206FE9
:10095800C5EC0FF0F90E01011F6FFF0E206FC5ECFB
:100968000FF069EC10F00009D8B4BDEF04F0BFEF48
:1009780004F0B5EF04F0B0EC0FF00101296FC5EFFA
:1009880005F0920E1F6FFE0E206FC5EC0FF0270EBC
:1009980001011F6FFF0E206F28EC10F080C021F1BD
:1009A80081C022F1C5EC0FF0920E01011F6FFE0EFF
:1009B800206FC5EC0FF0CA0E01011F6FFF0E206FEC
:1009C800C5EC0FF0ED0E01011F6FFF0E206FC5EC97
:1009D8000FF0950E01011F6FFF0E206FC5EC0FF091
:1009E8000F0E01011F6FFF0E206FC5EC0FF0B30E45
:1009F80001011F6FFE0E206FC5EC0FF0F20E010112
:100A08001F6FFE0E206FC5EC0FF06B0E01011F6FFC
:100A1800FE0E206FC5EC0FF0D30E01011F6FFE0E06
:100A2800206FC5EC0FF0920E01011F6FFE0E206FB4
:100A3800C5EC0FF0B5EF04F03F0E1F6FFF0E206FEF
:100A4800C5EC0FF0010E0001D86FB5EF04F06B0E86
:100A58001F6FFF0E206FC5EC0FF0000E0001D86F5E
:100A6800B5EF04F0800E1F6FFF0E206FC5EC0FF07E
:100A7800010E0001D76FB5EF04F0620E2919D8A452
:100A880048EF05F04AEF05F04DEF05F0010E0001C3
:100A9800D66F420E01012919D8A455EF05F057EF7A
:100AA80005F0B5EF04F0000E0001D66FB5EF04F0C5
:100AB800F29EED0E1F6FFD0E206FC5EC0FF069EC76
:100AC80010F00009D8B46BEF05F06DEF05F063EF97
:100AD80005F0B0EC0FF0898CE40E01011F6FFE0EDB
:100AE800206FC5EC0FF0899C69EC10F00009D8B4B0
:100AF80080EF05F082EF05F078EF05F0B0EC0FF02D
:100B0800B0EC0FF0F28EB5EF04F0F40E1F6FFF0E8D
:100B1800206FC5EC0FF0B5EF04F0000E2A6FB00E91
:100B28001F6FFE0E206FC5EC0FF001012A2B270E58
:100B38002A65A1EF05F0A3EF05F093EF05F0FF009C
:100B4800B5EF04F0000E2A6FB00E1F6FFE0E206F77
:100B5800C5EC0FF001012A2B270E2A65B6EF05F028
:100B6800B8EF05F0A8EF05F0B5EF04F0AA0E1F6F77
:100B7800FF0E206F29C121F1226BC5EC0FF0B5EFF4
:100B880004F02951276F286B2851000AD8B4CFEFF9
:100B980005F0BAEF05F027513F0AD8B4C5EF04F0C5
:100BA8007D0AD8B441EF05F00C0AD8B42BEF05F054
:100BB800140AD8B491EF05F0380AD8B441EF05F01B
:100BC8000B0AD8B436EF05F0070AD8B420EF05F0C1
:100BD800010AD8B489EF05F01B0AD8B45CEF05F018
:100BE8000E0AD8B4A6EF05F0BAEF05F04EEF00F004
:100BF8000001C7BF02EF06F004EF06F005EF06F0AC
:100C0800C893C7BF12EF06F0C75106E1C605D8B0B2
:100C180010EF06F012EF06F018EF06F0000EB56FB1
:100C2800010EB46F1CEF06F0C6C0B4F0C7C0B5F033
:100C3800C4C0B6F0C5C0B7F0C8A925EF06F027EFC5
:100C480006F02BEF06F0FE0EB627FF0EB7239FC067
:100C5800B8F0A0C0B9F0A1C0BAF0A2C0BBF0A3C060
:100C6800BCF0A4C0BDF0A5C0BEF0A6C0BFF0000E89
:100C7800C16F1F0EC06F000E01014C6FF8EF06F038
:100C8800C007D8A0C1070F0EB815C26FC36BC3BF8A
:100C980057EF06F0C35109E10A0EC25DD8A057EF1D
:100CA80006F059EF06F061EF06F0570EC225C26F45
:100CB800000EC321C36F67EF06F0300EC225C26F66
:100CC800000EC321C36FBF0EA86FFF0EA96FA751F7
:100CD800AA6FAB6BA851AA27A951AB23AB510AE164
:100CE8001A0EAA5DD8A07BEF06F07EEF06F0010E83
:100CF8007FEF06F0000EB06FB16BB051B111D8B4F0
:100D080088EF06F08AEF06F0BAEF06F09F0EA86F9C
:100D1800FF0EA96F200EC211AA6F000EC311AB6F90
:100D2800A851AA27A951AB23AB510AE11A0EAA5D13
:100D3800D8A0A1EF06F0A4EF06F0010EA5EF06F08B
:100D4800000EB26FB36BB251B311D8B4AEEF06F068
:100D5800B0EF06F0BAEF06F0C2C086F0C3C087F065
:100D680096EC0CF086C0C2F087C0C3F02D0E0001CF
:100D7800C025D96E010EC121DA6EC2C0DFFFB407EB
:100D8800D8A0B507B607D8A0B707B8C0A8F0B9C0AB
:100D9800A9F0BAC0AAF0BBC0ABF0BCC0ACF0BDC0F3
:100DA800ADF0BEC0AEF0BFC0AFF0050EE5EF06F087
:100DB800D890AF33AE33AD33AC33AB33AA33A933AA
:100DC800A833E82EDCEF06F0A8C0B8F0A9C0B9F047
:100DD800AAC0BAF0ABC0BBF0ACC0BCF0ADC0BDF0AF
:100DE800AEC0BEF0AFC0BFF00001C1BF05EF07F055
:100DF800C15109E1020EC05DD8A005EF07F007EF69
:100E080007F037EF07F0B851B911BA11BB11BC118F
:100E1800BD11BE11BF11D8A414EF07F016EF07F0EB
:100E280044EF06F0B5BF23EF07F0B55106E1B4056E
:100E3800D8B021EF07F023EF07F044EF06F0B7BF73
:100E48002EEF07F0B75108E1B605D8A02EEF07F04E
:100E580030EF07F037EF07F0C8B335EF07F037EF9B
:100E680007F044EF06F0C8A93CEF07F03EEF07F0A3
:100E780054EF07F0C007D8A0C1072D0EC025D96EC2
:100E8800010EC121DA6EA7C0DFFFC007D8A0C107D5
:100E98002D0EC025D96E010EC121DA6E300EDF6E1F
:100EA8009DC092F09EC093F02D0EC025946F010E48
:100EB800C121956FB6C096F0B7C097F072EC0AF0F2
:100EC80092C09DF093C09EF012000001C7BF6FEF63
:100ED80007F071EF07F072EF07F0C893C7BF7FEF15
:100EE80007F0C75106E1C605D8B07DEF07F07FEFE0
:100EF80007F085EF07F0000E366E010E356E89EFAC
:100F080007F0C6C035F0C7C036F0C4C037F0C5C05A
:100F180038F0C8A992EF07F094EF07F098EF07F0C0
:100F2800FE0E3726FF0E382220C039F021C03AF0D5
:100F380022C03BF023C03CF024C03DF025C03EF069
:100F480026C03FF027C040F0000E426E1F0E416ED3
:100F5800000E01014C6F64EF08F04106D8A042066C
:100F68000F0E3914436E446A44BEC4EF07F0445070
:100F780009E10A0E435CD8A0C4EF07F0C6EF07F0FA
:100F8800CEEF07F0570E4324436E000E4420446E04
:100F9800D4EF07F0300E4324436E000E4420446E15
:100FA800BF0E296EFF0E2A6E28502B6E2C6A295010
:100FB8002B262A502C222C500AE11A0E2B5CD8A082
:100FC800E8EF07F0EBEF07F0010EECEF07F0000E8B
:100FD800316E326A31503210D8B4F5EF07F0F7EFBE
:100FE80007F027EF08F09F0E296EFF0E2A6E200EDD
:100FF80043102B6E000E44102C6E29502B262A50BD
:101008002C222C500AE11A0E2B5CD8A00EEF08F007
:1010180011EF08F0010E12EF08F0000E336E346A7B
:1010280033503410D8B41BEF08F01DEF08F027EF49
:1010380008F043C007F044C008F0F5EC0CF007C016
:1010480043F008C044F02D0E4124D96E010E422011
:10105800DA6E43C0DFFF3506D8A036063706D8A0BB
:10106800380639C029F03AC02AF03BC02BF03CC002
:101078002CF03DC02DF03EC02EF03FC02FF040C0F8
:1010880030F0050E51EF08F0D89030322F322E3262
:101098002D322C322B322A322932E82E48EF08F032
:1010A80029C039F02AC03AF02BC03BF02CC03CF0E4
:1010B8002DC03DF02EC03EF02FC03FF030C040F0B4
:1010C80042BE70EF08F0425009E1020E415CD8A020
:1010D80070EF08F072EF08F0A3EF08F039503A10FB
:1010E8003B103C103D103E103F104010D8A47FEF3D
:1010F80008F081EF08F0B1EF07F036BE8EEF08F088
:10110800365006E13504D8B08CEF08F08EEF08F0C1
:10111800B1EF07F038BE99EF08F0385008E137040E
:10112800D8A099EF08F09BEF08F0A3EF08F00001B2
:10113800C8B3A1EF08F0A3EF08F0B1EF07F0000182
:10114800C8A9A9EF08F0ABEF08F0C1EF08F0410615
:10115800D8A042062D0E4124D96E010E4220DA6E27
:1011680028C0DFFF4106D8A042062D0E4124D96EC3
:10117800010E4220DA6E300EDF6E1EC013F01FC063
:1011880014F02D0E4124156E010E4220166E37C044
:1011980017F038C018F0D7EC0AF013C01EF014C0CE
:1011A8001FF01200000E0001956F000E946F000EE4
:1011B8008E6F000E8D6FE3EF08F0874B882B010EC2
:1011C800936F87C0F6FF88C0F7FFF86A0800F550EC
:1011D800200AD8B4F2EF08F0F4EF08F012EF09F0A3
:1011E800F70E896FFF0E8A6F87C0F6FF88C0F7FF7A
:1011F800F86A0800F5508B6F8C6B89518B278A51E0
:101208008C238C5109E1050E8B5DD8A00EEF09F0F7
:1012180010EF09F012EF09F0000E936F93C08FF0F2
:10122800906B8F519011D8A41CEF09F01EEF09F0B4
:10123800E1EF08F028EF09F0000E8E6F010E8D6FB8
:10124800874B882B60EF09F087C0F6FF88C0F7FF4F
:10125800F86A0800F550896F8A6B8A51000AD8B479
:1012680038EF09F060EF09F089512B0AD8B424EF60
:1012780009F0060AD8B420EF09F060EF09F094C02D
:1012880080F095C081F0000E836F0A0E826FD9EC52
:101298000FF087C0F6FF88C0F7FFF86A0800F5501E
:1012A8000001805F000E815B300E8025946F000E78
:1012B8008121956F24EF09F0D00E896FFF0E8A6F98
:1012C80087C0F6FF88C0F7FFF86A0800F5508B6FF3
:1012D8008C6B89518B278A518C238C510AE10A0E19
:1012E8008B5DD8A07AEF09F07DEF09F0010E7EEF53
:1012F80009F0000E916F926B91519211D8A487EF6B
:1013080009F089EF09F043EF09F08D518E11D8A447
:1013180090EF09F092EF09F0A0EF09F094C089F07E
:1013280095C08AF0891F8A1F894B8A2B89C087F04C
:101338008AC088F0A4EF09F094C087F095C088F0BF
:101348001200000E166E000E156E000E0F6E000EC7
:101358000E6EB1EF09F0084A092A010E146E08C092
:10136800F6FF09C0F7FFF86A0800F550200AD8B45C
:10137800C0EF09F0C2EF09F0E0EF09F0F70E0A6ECE
:10138800FF0E0B6E08C0F6FF09C0F7FFF86A0800E9
:10139800F5500C6E0D6A0A500C260B500D220D509C
:1013A80009E1050E0C5CD8A0DCEF09F0DEEF09F0CE
:1013B800E0EF09F0000E146E14C010F0116A10501E
:1013C8001110D8A4EAEF09F0ECEF09F0AFEF09F03B
:1013D800F6EF09F0000E0F6E010E0E6E084A092A8C
:1013E8002DEF0AF008C0F6FF09C0F7FFF86A0800F9
:1013F800F5500A6E0B6A0B50000AD8B406EF0AF0D3
:101408002DEF0AF00A502B0AD8B4F2EF09F0060AB9
:10141800D8B4EEEF09F02DEF0AF015C001F016C0B0
:1014280002F0000E046E0A0E036E15EC10F008C0F0
:10143800F6FF09C0F7FFF86A0800F550015E000ED4
:10144800025A300E0124156E000E0220166EF2EFBD
:1014580009F0D00E0A6EFF0E0B6E08C0F6FF09C029
:10146800F7FFF86A0800F5500C6E0D6A0A500C2652
:101478000B500D220D500AE10A0E0C5CD8A047EF64
:101488000AF04AEF0AF0010E4BEF0AF0000E126E56
:10149800136A12501310D8A454EF0AF056EF0AF04A
:1014A80011EF0AF00E500F10D8A45DEF0AF05FEFAD
:1014B8000AF06DEF0AF015C00AF016C00BF00A1E0C
:1014C8000B1E0A4A0B2A0AC008F00BC009F071EF7C
:1014D8000AF015C008F016C009F012000001C8A1F2
:1014E80078EF0AF07AEF0AF084EF0AF094C08BF0F4
:1014F80095C08CF092C08DF093C08EF0A5EC0DF0E5
:10150800000197BF8AEF0AF08CEF0AF092EF0AF019
:1015180096C09BF097C09CF096EF0AF0000E9C6F67
:10152800000E9B6F000E9A6F000E996FA9EF0AF0DC
:10153800000E836F200E826F92C084F093C085F0F6
:101548009BEC0BF00001994B9A2B9B51995D9A519A
:10155800800A986F9C51800A9859D8A0B6EF0AF073
:10156800B8EF0AF09CEF0AF0C8B1BDEF0AF0BFEF80
:101578000AF0C9EF0AF094C08BF095C08CF092C0C5
:101588008DF093C08EF0A5EC0DF094C080F095C05E
:1015980081F0C4EC0EF000019B518025926F9C51A4
:1015A8008121936F12000001C8A1DDEF0AF0DFEF7F
:1015B8000AF0E9EF0AF015C00CF016C00DF013C0E0
:1015C8000EF014C00FF0ECEC0DF018BEEEEF0AF0C0
:1015D800F0EF0AF0F6EF0AF017C01CF018C01DF083
:1015E800FAEF0AF0000E1D6E000E1C6E000E1B6E48
:1015F800000E1A6E0CEF0BF0000E046E200E036E38
:1016080013C005F014C006F0E7EC0BF01A4A1B2AC9
:101618001C501A5C1B50800A196E1D50800A1958FC
:10162800D8A019EF0BF01BEF0BF000EF0BF0000147
:10163800C8B121EF0BF023EF0BF02DEF0BF015C025
:101648000CF016C00DF013C00EF014C00FF0ECEC47
:101658000DF015C001F016C002F052EC0FF01C504E
:101668000124136E1D500220146E120020EED9F0D2
:1016780010EE6EF0050EDBCFE3FFE806FCE2898C86
:101688000001D705D8A44BEF0BF04DEF0BF05AEF44
:101698000BF0D52B020ED56554EF0BF056EF0BF07F
:1016A80058EF0BF0000ED56F000ED76FD805D8A4F1
:1016B80060EF0BF062EF0BF08BEF0BF0D551020DE2
:1016C8006E0EF324D96E000EF420DA6EDECF6CF0C5
:1016D800DDCF6DF06C510008016E6D51D8A0E82A7D
:1016E8000008026E01EC10F08ABA7DEF0BF080EF73
:1016F8000BF0010E81EF0BF0000EFF0A00016C6F7A
:101708006C3B6C478A506C19DF0B6C198A6ED605D6
:10171800D8A491EF0BF093EF0BF099EF0BF0E40ED8
:10172800666FFE0E676FEDEC0FF0899C12000001EA
:1017380084518511D8B4A3EF0BF0A5EF0BF0AEEFF1
:101748000BF084518511D8A4ACEF0BF0AEEF0BF081
:10175800B3EF0BF0825173EC10F0E6EF0BF020EED4
:1017680004F08451D9268551DA22DE50DE10D8B42F
:10177800C0EF0BF0C2EF0BF0DDEF0BF020EE04F042
:101788008451D9268551DA2210EE02F08451E126DF
:101798008551E222DE50E65CE650800A8A6FDE5010
:1017A800800A8A59D8B0DBEF0BF0DDEF0BF0E6EFDB
:1017B8000BF020EE02F08451D9268551DA22DE2A78
:1017C800000EDD22120005500610D8B4EEEF0BF023
:1017D800F0EF0BF0F9EF0BF005500610D8A4F7EF77
:1017E8000BF0F9EF0BF0FEEF0BF003508EEC10F05E
:1017F80031EF0CF020EE04F00550D9260650DA221D
:10180800DE50DE10D8B40BEF0CF00DEF0CF028EF23
:101818000CF020EE04F00550D9260650DA2210EE1E
:1018280002F00550E1260650E222DE50E65CE65062
:10183800800A0B6EDE50800A0B58D8B026EF0CF0E9
:1018480028EF0CF031EF0CF020EE02F00550D9260D
:101858000650DA22DE2A000EDD22120019C11DF11F
:101868001AC11EF1000E01012C6F000E2B6F50EFF4
:101878000CF017C100F118C101F11D0E026F010E25
:10188800036F1BC104F11CC105F150EC00F001010C
:1018980000512B2701512C231DC1F6FF1EC1F7FF54
:1018A800F86A0800F5500009D8A45DEF0CF05FEF66
:1018B8000CF03DEF0CF02BC117F12CC118F1120000
:1018C80062C05CF063C05DF0000E01012C6F000E79
:1018D8002B6F82EF0CF060C045F061C046F05C0EE3
:1018E800476E000E486E64C049F065C04AF065EC6A
:1018F80002F0455001012B2746502C235CC0F6FF0F
:101908005DC0F7FFF86A0800F5500009D8A48FEF0A
:101918000CF091EF0CF06FEF0CF02BC160F02CC1C4
:1019280061F012009F0E0001886FFF0E896F86C05C
:101938008AF087C08BF088518A2789518B238B5175
:101948000AE11A0E8A5DD8A0ACEF0CF0AFEF0CF0EC
:10195800010EB0EF0CF0000E8C6F8D6B8C518D1159
:10196800D8B4B9EF0CF0BBEF0CF0C1EF0CF05F0E80
:101978008615866F876BC5EF0CF086C086F087C02A
:1019880087F012000001C451C511D8A4CEEF0CF0A5
:10199800D0EF0CF0D6EF0CF0C4C0A0F0C5C0A1F099
:1019A800DCEF0CF0FF0EC425A06FFF0EC521A16F60
:1019B8009FC02DF1000E01012E6F9DC092F09EC0B8
:1019C80093F02D0E0001946F010E956FA0C096F054
:1019D800A1C097F072EC0AF092C09DF093C09EF0FF
:1019E80012009F0E096EFF0E0A6E07C00BF008C0AA
:1019F8000CF009500B260A500C220C500AE11A0E62
:101A08000B5CD8A00AEF0DF00DEF0DF0010E0EEFF4
:101A18000DF0000E0D6E0E6A0D500E10D8B417EFB3
:101A28000DF019EF0DF01FEF0DF05F0E0714076EA4
:101A3800086A23EF0DF007C007F008C008F012008D
:101A48000001C451C511D8A42CEF0DF02EEF0DF0F4
:101A580034EF0DF0C4C021F0C5C022F03AEF0DF00C
:101A6800FF0EC425216EFF0EC521226E20C02DF168
:101A7800000E01012E6F1EC013F01FC014F02D0EB2
:101A8800156E010E166E21C017F022C018F0D7ECA3
:101A98000AF013C01EF014C01FF01200010E00015E
:101AA800866F200E80198111D8B45DEF0DF05FEFBD
:101AB8000DF078EF0DF0F70E826FFF0E836F80C088
:101AC80084F081C085F08251842783518523855114
:101AD80009E1050E845DD8A074EF0DF076EF0DF0E6
:101AE80078EF0DF0000E866F86C080F0816B1200D3
:101AF800010E076E200E01180210D8B486EF0DF003
:101B080088EF0DF0A1EF0DF0F70E036EFF0E046ED7
:101B180001C005F002C006F0035005260450062255
:101B2800065009E1050E055CD8A09DEF0DF09FEF6A
:101B38000DF0A1EF0DF0000E076E07C001F0026A6C
:101B48001200000E0001916F000E906FB8EF0DF0BB
:101B58008FC082F0836B8DC084F08EC085F09BECC3
:101B68000BF00001904B912B90518B25D96E915120
:101B78008C21DA6EDF508F6F8F51D8A4C6EF0DF02D
:101B8800C8EF0DF0ACEF0DF01200080EB86E900E15
:101B9800AB6E240EAC6E820EAF6E060EB06E000EEB
:101BA8000001806F000E816F84EC10F0000E0001C0
:101BB800806F000E816F7FEC10F0000E0001806FC7
:101BC800000E816F89EC10F0000E0001D46F120036
:101BD800000E126E000E116EFDEF0DF010C003F036
:101BE800046A0EC005F00FC006F0E7EC0BF0114ACE
:101BF800122A11500C24D96E12500D20DA6EDF50C3
:101C0800106E1050D8A40BEF0EF00DEF0EF0F2EF9F
:101C18000DF01200260EF66E210EF76E000EF86E0D
:101C280000EED9F010EE06F00900F5CFEEFFE55012
:101C3800E150FAE101EE2BF0220EEE6AE806FDE132
:101C480000EEC4F0150EEE6AE806FDE15E905E92C5
:101C5800000171EF04F09F0E0001826FFF0E836F89
:101C6800200E8011846F000E8111856F82518427A8
:101C78008351852385510AE11A0E845DD8A047EF68
:101C88000EF04AEF0EF0010E4BEF0EF0000E806FD3
:101C9800816B12009E90D2C001F0D3C002F001EC1B
:101CA80010F00001D051D111D8B45DEF0EF05FEF04
:101CB8000EF06BEF0EF002D86BEF0EF00500FA6E27
:101CC800D051FD6ED151FE6EFF6AFA50120012001B
:101CD8009F0E036EFF0E046E200E0110056E000E9F
:101CE8000210066E035005260450062206500AE12B
:101CF8001A0E055CD8A083EF0EF086EF0EF0010EE9
:101D080087EF0EF0000E016E026A12009F0E0001AE
:101D1800826FFF0E836F80C084F081C085F082518E
:101D280084278351852385510AE11A0E845DD8A042
:101D3800A0EF0EF0A3EF0EF0010EA4EF0EF0000ED0
:101D4800806F816B1200BF0E0001826FFF0E836FE0
:101D580080C084F081C085F0825184278351852317
:101D680085510AE11A0E845DD8A0BDEF0EF0C0EFD0
:101D78000EF0010EC1EF0EF0000E806F816B1200A5
:101D880080C082F081C083F0CDEF0EF00001804B5F
:101D9800812B80C0D9FF81C0DAFFDF50D8A4D7EFEC
:101DA8000EF0D9EF0EF0CAEF0EF000018251805DFF
:101DB800806F83518159816F1200D00E0001826FAC
:101DC800FF0E836F80C084F081C085F08251842724
:101DD8008351852385510AE10A0E845DD8A0F7EF67
:101DE8000EF0FAEF0EF0010EFBEF0EF0000E806F12
:101DF800816B12009F0E036EFF0E046E01C005F08A
:101E080002C006F0035005260450062206500AE1D7
:101E18001A0E055CD8A013EF0FF016EF0FF0010EA5
:101E280017EF0FF0000E016E026A1200BF0E036E6C
:101E3800FF0E046E01C005F002C006F0035005262F
:101E48000450062206500AE11A0E055CD8A02FEFAE
:101E58000FF032EF0FF0010E33EF0FF0000E016EAE
:101E6800026A1200D00E036EFF0E046E01C005F068
:101E780002C006F0035005260450062206500AE167
:101E88000A0E055CD8A04BEF0FF04EEF0FF0010ED5
:101E98004FEF0FF0000E016E026A120001C003F04E
:101EA80002C004F05AEF0FF0014A022A01C0D9FF1C
:101EB80002C0DAFFDF50D8A464EF0FF066EF0FF02E
:101EC80058EF0FF00350015C016E04500258026E87
:101ED8001200000E896E000E8A6E000E8B6EBF0E09
:101EE800926EDF0E936EBF0E946E3C0E0F013A6F2A
:101EF8003F0E396F2F0E386F000E616EF18E120093
:101F0800CDA489EF0FF08BEF0FF094EF0FF0CD9089
:101F180000018151CF6E80C0CEFFCD8099EF0FF0C8
:101F280000018151CF6E80C0CEFF1200000ECC6E32
:101F3800000ECF6E000ECE6ECECFD2F0CFCFD3F044
:101F48009E909D80300E0001806F210E816F7AEC8B
:101F580010F0010ECD6E12009EAAB5EF0FF0B7EF8C
:101F68000FF0B0EF0FF0000E0001D46FABA2BFEF7F
:101F78000FF0C1EF0FF0C3EF0FF0AB98AB88AE5086
:101F88001200210E0101256F010E266F000E176F3A
:101F9800000E186F1FC119F120C11AF1250E1B6F11
:101FA800010E1C6F32EC0CF012000001805182030C
:101FB800F3CF84F0F4CF85F080518303F350852765
:101FC80081518203F350852784C080F085C081F059
:101FD8001200680E00016A6F000E6B6F000E606FD2
:101FE800000E616F66C062F067C063F06A0E646FCE
:101FF800000E656F64EC0CF01200CDA406EF10F033
:1020080008EF10F010EF10F0CD900250CF6E01C025
:10201800CEFFCD8014EF10F00250CF6E01C0CEFF7E
:10202800120001500302F3CF05F0F4CF06F001507F
:102038000402F350062602500302F350062605C098
:1020480001F006C002F01200CD82CECF87F0CFCFCC
:1020580086F000018651826F8751846F82C085F0B7
:1020680084C080F085C081F01200700ED36E040E1B
:10207800D26E400E9B6ED2AE44EF10F046EF10F0D9
:102088003FEF10F012000001806F9EA84EEF10F095
:1020980050EF10F049EF10F080C0ADFF120096EC41
:1020A80010F06DEC0FF039EC10F09AEC0FF0C9EC71
:1020B8000DF01200016E9EA864EF10F066EF10F0AC
:1020C8005FEF10F001C0ADFF12009EBA6EEF10F086
:1020D80071EF10F0010E72EF10F0000E1200000107
:1020E800816F0001815147EC10F0120080C0D0F0E0
:1020F80081C0D1F0120080C0CCF081C0CDF01200B8
:1021080080C0CEF081C0CFF0120080C0CAF081C07C
:10211800CBF01200026E02505EEC10F01200B01FFD
:0A2128008023E027D09E1200120071
:10FDEC0000436F6E6E656374206F73636F70652074
:10FDFC00746F205243312E20205072657373206132
:10FE0C006E79206B6579207768656E207265616408
:10FE1C0079207468656E20707265737320616E79D9
:10FE2C00206B657920746F20726573756D652E0D6E
:10FE3C000A00524235202D3E204C5046696E2061FE
:10FE4C006E6420696E7374616C6C204C50466F75D7
:10FE5C00742F414D50696E206A756D706572006229
:10FE6C002F423A2073746172742F73746F70207008
:10FE7C0072696E74696E6720696E20544D52312020
:10FE8C004953520D0A002D2D2D2D2D2D2D2D2D2D9F
:10FE9C002D2D2D2D2D2D2D2D2D2D2D2D2D2D2D2D86
:10FEAC002D2D2D2D0D0A006E2F4E3A20706C617980
:10FEBC002F53746F7020706C6179696E67206120AC
:10FECC006E6F74650D0A00743A2074696D65207448
:10FEDC006F207072696E742068656C6C6F20776F20
:10FEEC00726C640D0A00693A20696E6372656D6507
:10FEFC006E74206E6F746520696E20736F6E672E42
:10FF0C000D0A007A3A20436C656172207468652092
:10FF1C007465726D696E616C0D0A002020202020C2
:10FF2C00202020544D5231203D203078253034781B
:10FF3C000D0A00537461727420706C6179696E677C
:10FF4C00206E6F74652E0D0A00496E7465727275A1
:10FF5C007074204D7573696320426F780D0A0053DD
:10FF6C00746F7020706C6179696E67206E6F746548
:10FF7C002E0D0A00506C6179696E67206E6578747D
:10FF8C00206E6F74652E0D0A005A3A205265736507
:10FF9C00742070726F636573736F720D0A00556E07
:10FFAC006B6E6F776E206B65792025630D0A0042AE
:10FFBC006F61726420776972696E670D0A003F3A4F
:10FFCC002048656C70206D656E750D0A00696E4C6D
:10FFDC0061622030340D0A004465762732310D0AF7
:10FFEC00006F3A206B0D0A006B2E0D0A000D0A3EB5
:03FFFC00200000E2
:020000040020DA
:08000000FFFFFFFFFFFFFFFF00
:020000040030CA
:0E000000FF281F3CFFBF85FF0FC00FE00F4021
:00000001FF
