:020000040000FA
:040000002FEF00F0EE
:100008005282FACF07F0FBCF08F0D9CF09F0DACF48
:100018000AF0F3CF0BF0F4CF0CF0F2AA16EF00F0D1
:1000280018EF00F021EF00F0F2A41DEF00F01FEF31
:1000380000F021EF00F074EC07F00CC0F4FF0BC0E7
:10004800F3FF0AC0DAFF09C0D9FF08C0FBFF07C0E9
:10005800FAFF52921100DEEF06F0010E0001936FD5
:10006800000E926F010E956F000E946F010E976F40
:10007800000E966FA9EC08F0180E0D6E0A0E0E6EA3
:100088001CEC09F0F28EF28C0F015E696768BE689D
:10009800010E0E6E000E0D6E0FEC08F0010E0E6EC6
:1000A800000E0D6EF7EC07F0010E0E6E000E0D6ED1
:1000B800C5EC07F0EE0E0001896FFF0E8A6F81EC28
:1000C80008F0E10E0001896FFF0E8A6F81EC08F0DD
:1000D8001D0E0001896FFF0E8A6F81EC08F0700E0B
:1000E8000001896FFF0E8A6F81EC08F0490E00014C
:1000F800896FFF0E8A6F81EC08F05D0E0001896F31
:10010800FF0E8A6F81EC08F0AA0E0001896FFE0EBF
:100118008A6F81EC08F005EC09F00009D8B497EF74
:1001280000F099EF00F08FEF00F095EC08F0000177
:100138008F6F2DEF02F08C0E896FFE0E8A6F81ECA7
:1001480008F0B40E0001896FFF0E8A6FBECF8BF0E6
:100158008C6B81EC08F0D20E0001896FFF0E8A6F5C
:1001680067CF8BF08C6B81EC08F0C30E0001896FB0
:10017800FF0E8A6F5ECF8BF08C6B81EC08F08C0ED3
:100188000001896FFE0E8A6F81EC08F0A50E000150
:10019800896FFF0E8A6F81EC08F0340E0001896FB9
:1001A800FF0E8A6F81EC08F0050E0001896FFF0EC3
:1001B8008A6F81EC08F0650E0001896FFE0E8A6F68
:1001C80081EC08F0140E0001896FFE0E8A6F81EC35
:1001D80008F03D0E0001896FFE0E8A6F81EC08F071
:1001E800AD0E0001896FFE0E8A6F81EC08F0820E59
:1001F8000001896FFF0E8A6F81EC08F0E50E00019F
:10020800896FFD0E8A6F81EC08F08C0E0001896FF2
:10021800FE0E8A6F81EC08F08FEF00F0000E906FF1
:10022800AB0E896FFE0E8A6F81EC08F00001902BEF
:10023800270E906522EF01F024EF01F014EF01F092
:10024800FF008FEF00F0000E916FAB0E896FFE0E6E
:100258008A6F81EC08F00001912B270E916537EF2A
:1002680001F039EF01F029EF01F08FEF00F0935121
:1002780007E1F10E925DD8B044EF01F046EF01F0CE
:100288004AEF01F00F0E9227000E932392C00DF053
:1002980093C00EF00FEC08F08FEF00F0935109E1D6
:1002A8000F0E925DD8A05BEF01F05DEF01F04AEF11
:1002B80001F00F0E925F000E935B4AEF01F095512B
:1002C80007E1F10E945DD8B06CEF01F06EEF01F02C
:1002D80072EF01F00F0E9427000E952394C00DF0D5
:1002E80095C00EF0F7EC07F08FEF00F0955109E19B
:1002F8000F0E945DD8A083EF01F085EF01F072EF47
:1003080001F00F0E945F000E955B72EF01F09751AC
:1003180007E1F10E965DD8B094EF01F096EF01F089
:100328009AEF01F00F0E9627000E972396C00DF056
:1003380097C00EF0C5EC07F08FEF00F0975109E178
:100348000F0E965DD8A0ABEF01F0ADEF01F09AEF7C
:1003580001F00F0E965F000E975B9AEF01F0F70E13
:10036800896FFF0E8A6F81EC08F00001A651D8A4AE
:10037800C0EF01F0C2EF01F0CEEF01F0E5C092F05E
:10038800E6C093F0DFC094F0E0C095F0D9C096F0D5
:10039800DAC097F0030EEE6FE80EED6F010EA66F50
:1003A8008FEF00F0000EA66F8FEF00F0000EA66F23
:1003B800010E0E6E000E0D6E0FEC08F0010E0E6EA3
:1003C800000E0D6EF7EC07F0010E0E6E000E0D6EAE
:1003D800C5EC07F08FEF00F0EE5107E1650EED5D1B
:1003E800D8B0F9EF01F0FBEF01F003EF02F0E80EEF
:1003F800896FFE0E8A6F81EC08F08FEF00F0640EB3
:10040800ED5F000EEE5B8FEF00F09C0EED5DFF0ED2
:10041800EE59D8A012EF02F014EF02F01CEF02F030
:10042800CB0E896FFE0E8A6F81EC08F08FEF00F01B
:10043800640EED27000EEE238FEF00F0940E896F07
:10044800FF0E8A6F8FC08BF08C6B81EC08F08FEFFA
:1004580000F08F518D6F8E6B8E51000AD8B437EF34
:1004680002F022EF02F08D512B0AD8B4F0EF01F020
:10047800060AD8B409EF02F0120AD8B49FEF00F0C8
:100488007D0AD8B4A2EF01F0010AD8B4B3EF01F0A5
:10049800040AD8B47AEF01F0150AD8B452EF01F083
:1004A800080AD8B412EF01F03B0AD8B4DAEF01F029
:1004B800030AD8B48BEF01F0010AD8B4D6EF01F0E3
:1004C800040AD8B463EF01F0150AD8B43BEF01F081
:1004D800080AD8B427EF01F022EF02F02FEF00F05E
:1004E8004ABE79EF02F07BEF02F07CEF02F04B920C
:1004F8004ABE89EF02F04A5006E14904D8B087EFB6
:1005080002F089EF02F090EF02F0000E0001656F33
:10051800010E646F94EF02F049C064F04AC065F0C0
:1005280047C066F048C067F04BA89DEF02F09FEF08
:1005380002F0A4EF02F00001FE0E6627FF0E67230B
:100548002CC068F02DC069F02EC06AF02FC06BF087
:1005580030C06CF031C06DF032C06EF033C06FF057
:10056800000E0001716F1F0E706F000EC66F71EFE5
:1005780003F07007D8A071070F0E6815726F736BC0
:1005880073BFD0EF02F0735109E10A0E725DD8A073
:10059800D0EF02F0D2EF02F0DAEF02F0570E722538
:1005A800726F000E7321736FE0EF02F0300E722548
:1005B800726F000E7321736FBF0E356EFF0E366EAD
:1005C8003450376E386A355037263650382238500E
:1005D8000AE11A0E375CD8A0F4EF02F0F7EF02F048
:1005E800010EF8EF02F0000E606F616B605161114F
:1005F800D8B401EF03F003EF03F033EF03F09F0EDD
:10060800356EFF0E366E200E7211376E000E7311A6
:10061800386E355037263650382238500AE11A0ECF
:10062800375CD8A01AEF03F01DEF03F0010E1EEFA0
:1006380003F0000E626F636B62516311D8B427EF49
:1006480003F029EF03F033EF03F072C013F073C027
:1006580014F060EC06F013C072F014C073F0A70E2B
:1006680000017025D96E000E7121DA6E72C0DFFFAD
:100678006407D8A065076607D8A0670768C035F083
:1006880069C036F06AC037F06BC038F06CC039F01A
:100698006DC03AF06EC03BF06FC03CF0050E5EEFE7
:1006A80003F0D8903C323B323A3239323832373262
:1006B80036323532E82E55EF03F035C068F036C0D3
:1006C80069F037C06AF038C06BF039C06CF03AC0D6
:1006D8006DF03BC06EF03CC06FF071BF7DEF03F072
:1006E800715109E1020E705DD8A07DEF03F07FEF34
:1006F80003F0AFEF03F0685169116A116B116C11C7
:100708006D116E116F11D8A48CEF03F08EEF03F00A
:10071800BDEF02F065BF9BEF03F0655106E164058C
:10072800D8B099EF03F09BEF03F0BDEF02F067BF7D
:10073800A6EF03F0675108E16605D8A0A6EF03F01D
:10074800A8EF03F0AFEF03F04BB2ADEF03F0AFEF5C
:1007580003F0BDEF02F04BA8B4EF03F0B6EF03F0DF
:10076800CCEF03F07007D8A07107A70E7025D96EDB
:10077800000E7121DA6E34C0DFFF7007D8A0710750
:10078800A70E7025D96E000E7121DA6E300EDF6E5D
:100798002AC01FF02BC020F0A70E7025216E000E76
:1007A8007121226E66C023F067C024F082EC05F048
:1007B8001FC02AF020C02BF0120076C0D9FF77C0E6
:1007C800DAFFDECFF6FFDDCFF7FFF86A0800F55055
:1007D800250AD8A4F2EF03F0F4EF03F0EFEF04F0EA
:1007E80076C0D9FF77C0DAFFDE2A000EDD22000EC0
:1007F800486E000E476E47C04BF048C04CF0496841
:100808004A6876C0D9FF77C0DAFFDECFF6FFDDCFC2
:10081800F7FFF86A0800F550630AD8A416EF04F049
:1008280018EF04F040EF04F076C0D9FF77C0DAFF84
:10083800DE2A000EDD2278C0D9FF79C0DAFFDFCFCB
:100848003DF0020EDE26DFCF3EF0000EDD223DC079
:10085800D9FF3EC0DAFFDF500001826F74C02AF072
:1008680075C02BF082C02CF08FEC06F02AC074F013
:100878002BC075F00BEF05F076C0D9FF77C0DAFF13
:10088800DECFF6FFDDCFF7FFF86A0800F550780AEB
:10089800D8B451EF04F053EF04F066EF04F076C0DB
:1008A800D9FF77C0DAFFDECFF6FFDDCFF7FFF86AB2
:1008B8000800F550580AD8A464EF04F066EF04F075
:1008C800B6EF04F076C0D9FF77C0DAFFDECFF6FFC7
:1008D800DDCFF7FFF86A0800F5CF82F076C0D9FFC0
:1008E80077C0DAFFDE2A000EDD2278C0D9FF79C092
:1008F800DAFFDFCF3DF0020EDE26DFCF3EF0000E3E
:10090800DD223DC0D9FF3EC0DAFFDECF3FF0DDCFAC
:1009180040F03FC07AF040C07BF000017C6B7D6BFB
:100928007E6B7F6B806B816B74C02AF075C02BF077
:100938007AC02CF07BC02DF07CC02EF07DC02FF04B
:100948007EC030F07FC031F080C032F081C033F01B
:1009580082C034F074EC02F02AC074F02BC075F039
:100968000BEF05F076C0D9FF77C0DAFFDECFF6FFD0
:10097800DDCFF7FFF86A0800F550250AD8A4C7EFBD
:1009880004F0C9EF04F0E1EF04F076C0D9FF77C0B6
:10099800DAFFDE2A000EDD22000E106E250E0F6E25
:1009A80074C011F075C012F0E3EC05F0000E000100
:1009B800756F010E746F0BEF05F076C0D9FF77C025
:1009C800DAFFDE2A000EDD22000E0001756F000E30
:1009D800746F0BEF05F076C0D9FF77C0DAFFDECF72
:1009E800F6FFDDCFF7FFF86A0800F5500F6E106AC2
:1009F80074C011F075C012F0E3EC05F076C0D9FFB1
:100A080077C0DAFFDE2A000EDD22DAEF04F01200EA
:100A18000001A605D8A413EF05F015EF05F081EF46
:100A280005F0ED510008016EEE51D8A0E82A000843
:100A3800026E30EC09F04F50020DD30EF324D96E3C
:100A4800000EF420DA6EDECF05F0DDCF06F00001EF
:100A58009C5105249C6F9D5106209D6F4F50020D9F
:100A6800CD0EF324D96E000EF420DA6EDECF05F039
:100A7800DDCF06F09A5105249A6F9B5106209B6F93
:100A88004F50020DC70EF324D96E000EF420DA6E13
:100A9800DECF05F0DDCF06F0EB510524EB6FEC510E
:100AA8000620EC6F9CC001F09DC002F03FEC08F0FE
:100AB8009AC001F09BC002F027EC08F0EBC001F0EF
:100AC800ECC002F0DEEC07F05028506E5028D8A495
:100AD80070EF05F072EF05F081EF05F0000E506E33
:100AE8004F284F6E030E4F18D8A47DEF05F07FEF07
:100AF80005F081EF05F0000E4F6E12004BA087EF56
:100B080005F089EF05F093EF05F021C018F022C039
:100B180019F01FC01AF020C01BF0BCEC06F024BE70
:100B280098EF05F09AEF05F0A0EF05F023C028F044
:100B380024C029F0A4EF05F0000E296E000E286EDF
:100B4800000E276E000E266EB6EF05F0000E106E32
:100B5800200E0F6E1FC011F020C012F0E3EC05F05C
:100B6800264A272A2850265C2750800A256E2950B5
:100B7800800A2558D8A0C3EF05F0C5EF05F0AAEF05
:100B880005F04BB0CAEF05F0CCEF05F0D6EF05F055
:100B980021C018F022C019F01FC01AF020C01BF0A5
:100BA800BCEC06F021C00DF022C00EF090EC07F06E
:100BB80028500D241F6E29500E20206E120011504F
:100BC8001210D8B4EAEF05F0ECEF05F0F5EF05F0F8
:100BD80011501210D8A4F3EF05F0F5EF05F0FAEF75
:100BE80005F00F5017EC09F02DEF06F020EE04F099
:100BF8001150D9261250DA22DE50DE10D8B407EF91
:100C080006F009EF06F024EF06F020EE04F011508C
:100C1800D9261250DA2210EE02F01150E1261250B5
:100C2800E222DE50E65CE650800A176EDE50800A4B
:100C38001758D8B022EF06F024EF06F02DEF06F093
:100C480020EE02F01150D9261250DA22DE2A000EC8
:100C5800DD22120085C041F086C042F0000E00017E
:100C6800996F000E986F4CEF06F083C074F084C043
:100C780075F0410E766F000E776F87C078F088C0E8
:100C880079F0E1EC03F0000174519827755199232C
:100C980041C0F6FF42C0F7FFF86A0800F5500009A6
:100CA800D8A459EF06F05BEF06F039EF06F098C0CC
:100CB80083F099C084F012009F0E156EFF0E166E19
:100CC80013C017F014C018F0155017261650182224
:100CD80018500AE11A0E175CD8A075EF06F078EFE5
:100CE80006F0010E79EF06F0000E196E1A6A195017
:100CF8001A10D8B482EF06F084EF06F08AEF06F0F7
:100D08005F0E1314136E146A8EEF06F013C013F0FF
:100D180014C014F0120047504810D8A496EF06F0FB
:100D280098EF06F09EEF06F047C02DF048C02EF071
:100D3800A4EF06F0FF0E47242D6EFF0E48202E6EFE
:100D48002CC0A7F0000E0001A86F2AC01FF02BC00E
:100D580020F0A70E216E000E226E2DC023F02EC0AB
:100D680024F082EC05F01FC02AF020C02BF01200FE
:100D7800000E1E6E000E1D6ECDEF06F01CC00FF0AB
:100D8800106A1AC011F01BC012F0E3EC05F01D4AFE
:100D98001E2A1D501824D96E1E501920DA6EDF50F5
:100DA8001C6E1C50D8A4DBEF06F0DDEF06F0C2EF96
:100DB80006F01200DA0EF66E100EF76E000EF86EE0
:100DC80000EEC7F010EE28F00900F5CFEEFFE55071
:100DD800E150FAE100EE98F02F0EEE6AE806FDE128
:100DE80000EE47F00B0EEE6AE806FDE152905292D3
:100DF800000131EF00F0080EB86E900EAB6E240EB5
:100E0800AC6E820EAF6E060EB06E000E0D6E000E4A
:100E18000E6E26EC09F0000E0D6E000E0E6E21EC23
:100E280009F0000E0D6E000E0E6E2BEC09F0000E90
:100E3800516E12009F0E0F6EFF0E106E200E0D10D9
:100E4800116E000E0E10126E0F5011261050122245
:100E580012500AE11A0E115CD8A035EF07F038EFEE
:100E680007F0010E39EF07F0000E0D6E0E6A120042
:100E78009F0E0F6EFF0E106E0DC011F00EC012F017
:100E88000F5011261050122212500AE11A0E115C4E
:100E9800D8A051EF07F054EF07F0010E55EF07F017
:100EA800000E0D6E0E6A1200BF0E0F6EFF0E106E52
:100EB8000DC011F00EC012F00F5011261050122262
:100EC80012500AE11A0E115CD8A06DEF07F070EF0E
:100ED80007F0010E71EF07F0000E0D6E0E6A12009A
:100EE800F2944E50D76E4DC0D6FF0001A451A51103
:100EF800D8B481EF07F083EF07F08FEF07F002D83F
:100F08008FEF07F00500FA6EA451FD6EA551FE6E35
:100F1800FF6AFA50120012000DC00FF00EC010F058
:100F280098EF07F00D4A0E2A0DC0D9FF0EC0DAFF60
:100F3800DF50D8A4A2EF07F0A4EF07F096EF07F070
:100F48000F500D5C0D6E10500E580E6E1200D59C91
:100F5800F50ED76ED668D650D7CF0FF0106A0FC0EF
:100F680010F00F6A0F104D6E10504E6EF294F28A08
:100F78006E0E0D6E120E0E6E1CEC09F0930ED56EF1
:100F880012000DC00FF00EC010F0D89010320F32C2
:100F9800D89010320F320F500F015E6F0DC00FF056
:100FA800030E0F160F3AF00E0F165D51CF0B0F10F0
:100FB8005D6F120001C003F002C004F0D890043243
:100FC8000332D8900432033203500F015E6F01C020
:100FD80003F0030E0316033AF00E03165D51CF0B10
:100FE80003105D6F12000DC00FF00EC010F0D89006
:100FF80010320F32D89010320F320F50676E0DC07A
:101008000FF0030E0F160F3AF00E0F166650CF0BA7
:101018000F10666E12000DC00FF00EC010F0D890C1
:1010280010320F32D89010320F320F50BE6E0DC0F2
:101038000FF0030E0F160F3AF00E0F16BD50CF0B20
:101048000F10BD6E120001C003F002C004F0D8906A
:1010580004320332D890043203320350676E01C061
:1010680003F0030E0316033AF00E03166650CF0B77
:101078000310666E120001C003F002C004F0D8909D
:1010880004320332D890043203320350BE6E01C0DA
:1010980003F0030E0316033AF00E0316BD50CF0BF0
:1010A8000310BD6E1200000E896E000E8A6E000ECF
:1010B8008B6E9268DF0E936EB90E946E3C0E0F0124
:1010C8003A6F3F0E396F2F0E386F000E616EF18E3A
:1010D8001200FFFF0000010000000100FFFF0100F7
:1010E800FFFF0000FF000000000000000000FF00FC
:1010F8000000FF000000FF00E8038B0E456E000EA5
:10110800466E000E0001836F000E846F89C085F063
:101118008AC086F0450E876F000E886F2EEC06F0A9
:1011280012009EAA9AEF08F09CEF08F095EF08F0DD
:10113800000E516EABA2A3EF08F0A5EF08F0A7EFE1
:1011480008F0AB98AB88AE50120035EC09F057ECBC
:1011580008F0ECEC08F0CCEC08F0BCEC08F0DCECA7
:1011680008F00FEC09F0ABEC07F0FFEC06F012000A
:101178003C0E0F015D6F000E5B6F800E5C6F010E01
:101188005A6F000E5F6F1F0E5E6F3F0E49171200F9
:101198003C0E666E000E646E800E656E010E636E08
:1011A800000E686E1F0E676EE70E0F0149171200DA
:1011B8003C0EBD6E000EB66E800EB76E010EB96E97
:1011C800000EBF6E1F0EBE6EFC0E0F0149171200F7
:1011D800700ED36E040ED26E400E9B6ED2AEF7EF39
:1011E80008F0F9EF08F0F2EF08F012000D6E9EA873
:1011F80000EF09F002EF09F0FBEF08F00DC0ADFFBA
:1012080012009EBA0AEF09F00DEF09F0010E0EEF79
:1012180009F0000E12003F0EBB6E000EBC6E9E92CF
:10122800060EBA6E12000E6E0E50FAEC08F012009E
:101238000DC0A4F00EC0A5F012000DC0A0F00EC0A5
:10124800A1F012000DC0A2F00EC0A3F012000DC054
:101258009EF00EC09FF012000250D76E01C0D6FF5C
:081268001200D09E12001200DA
:10FDE400002B2F2D3A20696E6372656173652F6451
:10FDF400656372656173652074686520636F6C6FF9
:10FE04007220746F75722073706565642E0D0A001C
:10FE1400472F673A20696E6372656173652F646565
:10FE240063726561736520477265656E20696E74DF
:10FE3400656E736974790D0A00422F623A20696E07
:10FE44006372656173652F646563726561736520B0
:10FE5400426C756520696E74656E736974790D0AF8
:10FE640000522F723A20696E6372656173652F6464
:10FE7400656372656173652052656420696E74659B
:10FE84006E736974790D0A002D2D2D2D2D2D2D2DB8
:10FE94002D2D2D2D2D2D2D2D2D2D2D2D2D2D2D2D8E
:10FEA4002D2D2D2D2D2D0D0A00432F633A20737413
:10FEB4006172742F73746F7020636F6C6F72206340
:10FEC40079636C650D0A0074696D65496E746572B9
:10FED40076616C20697320617420697473206D6984
:10FEE4006E0D0A0074696D65496E74657276616C95
:10FEF40020697320617420697473206D61780D0A20
:10FF0400007A3A20436C65617220746865207465D8
:10FF1400726D696E616C0D0A00436F6E6E65637479
:10FF2400206A756D7065722077697265730D0A00B9
:10FF34005A3A2052657365742070726F63657373E7
:10FF44006F720D0A00524331203C2D3E20477265EA
:10FF5400656E204C45440D0A00524235203C2D3E2E
:10FF640020426C7565204C45440D0A0052433220F2
:10FF74003C2D3E20526564204C45440D0A00613AF4
:10FF840020416C6C204C454473206F66660D0A005A
:10FF9400556E6B6E6F776E206B65792025630D0A45
:10FFA400003F3A2048656C70206D656E750D0A003F
:10FFB400095265643A202020307825780D0A00091A
:10FFC400426C75653A2020307825780D0A0009477F
:10FFD4007265656E3A20307825780D0A00436F6C9F
:10FFE4006F7220437562650D0A004C6162203035E2
:0CFFF4000D0A0053746172740D0A0000C5
:020000040020DA
:08000000FFFFFFFFFFFFFFFF00
:020000040030CA
:0E000000FF281F3CFFBF85FF0FC00FE00F4021
:00000001FF
