:020000040000FA
:0400000058EF00F0C5
:100008005982FACF03F0FBCF04F0D9CF05F0DACF4D
:1000180006F0F2AC12EF00F014EF00F04EEF00F033
:10002800A3A819EF00F01BEF00F031EF00F0A4A82F
:1000380020EF00F022EF00F031EF00F002D82FEFB0
:1000480000F00500FA6E00018A51FD6E8B51FE6EBC
:10005800FF6AFA5012004EEF00F0A3AA36EF00F044
:1000680038EF00F04EEF00F0A4AA3DEF00F03FEFAC
:1000780000F04EEF00F002D84CEF00F00500FA6EE9
:1000880000018851FD6E8951FE6EFF6AFA50120018
:100098004EEF00F006C0DAFF05C0D9FF04C0FBFF31
:1000A80003C0FAFF5992110032EF11F023EC13F05C
:1000B800380E076E1F0E086EA6EC13F0F28EF28C47
:1000C800000E086E000E076E8FEC12F060EC13F055
:1000D8000009D8B472EF00F074EF00F076EF00F08A
:1000E80059EC11F060EC13F00009D8B47EEF00F081
:1000F80080EF00F082EF00F059EC11F0000E086E6E
:10010800000E076EE8EC12F09E9077EC13F00009F1
:10011800D8B491EF00F093EF00F089EF00F0DE0E15
:100128000001D56FFF0ED66FFCEC12F0120E000125
:10013800D56FFE0ED66FFCEC12F08B0E0001D56F5A
:10014800FE0ED66FFCEC12F06B0E0001D56FFC0EA4
:10015800D66FFCEC12F0740E0001D56FFD0ED66F51
:10016800FCEC12F0F50E0001D56FFF0ED66FFCEC1B
:1001780012F081EC13F00009D8B4C5EF00F0C7EF16
:1001880000F0BDEF00F0D3EC12F00001E36F7AEF5E
:1001980003F0E70ED56FFC0ED66FFCEC12F005EFFE
:1001A80001F0D30ED56FFF0ED66FFCEC12F027EFDF
:1001B80001F0A40ED56FFF0ED66FFCEC12F027EFFE
:1001C80001F0B00ED56FFF0ED66FFCEC12F027EFE2
:1001D80001F0BC0ED56FFF0ED66FFCEC12F027EFC6
:1001E80001F0970ED56FFF0ED66FFCEC12F027EFDB
:1001F80001F0A40ED56FFF0ED66FFCEC12F027EFBE
:1002080001F00001F851DF6FE06BE051000AD8B44B
:1002180010EF01F0FDEF00F0DF51000AD8B4D5EF80
:1002280000F0010AD8B4DDEF00F0030AD8B4E5EF16
:1002380000F0010AD8B4EDEF00F0070AD8B4F5EFE2
:1002480000F0FDEF00F0E70E0001D56FFC0ED66F51
:10025800FCEC12F06C0E0001D56FFF0ED66FFCECB3
:1002680012F0EE0E0001D56FFF0ED66FFCEC12F007
:10027800B60E0001D56FFE0ED66FFCEC12F0730EB1
:100288000001D56FFE0ED66FFCEC12F01B0E0001BC
:10029800D56FFD0ED66FFCEC12F0CB0E0001D56FBA
:1002A800FE0ED66FFCEC12F0EF0E0001D56FFD0EBE
:1002B800D66FFCEC12F0340E0001D56FFE0ED66F2F
:1002C800FCEC12F0B10E0001D56FFC0ED66FFCEC01
:1002D80012F0E70E0001D56FFC0ED66FFCEC12F0A1
:1002E800BDEF00F0E60ED56FFF0ED66FFCEC12F0F6
:1002F800BDEF00F0000EE66F190ED56FFD0ED66F3C
:10030800FCEC12F00001E62B270EE6658EEF01F0FB
:1003180090EF01F080EF01F0FF00BDEF00F0000E5C
:10032800E66F190ED56FFD0ED66FFCEC12F00001CA
:10033800E62B270EE665A3EF01F0A5EF01F095EF98
:1003480001F0BDEF00F0490ED56FFD0ED66FFCEC45
:1003580012F0890E0001D56FFF0ED66FFCEC12F07B
:10036800300E0001D56FFF0ED66FFCEC12F03F0E79
:100378000001D56FFF0ED66FFCEC12F04E0E000197
:10038800D56FFF0ED66FFCEC12F0100E0001D56F82
:10039800FF0ED66FFCEC12F081EC13F00009D8A424
:1003A800D8EF01F0DAEF01F0D0EF01F0D3EC12F062
:1003B800D00F0001F86FFFEF01F0D00E766E540EEB
:1003C800756E20EF02F0340E766E140E756E20EF07
:1003D80002F01A0E766E0A0E756E20EF02F0060E07
:1003E800766E820E756E20EF02F0030E766E400E6A
:1003F800756E20EF02F0F851DF6FE06BE051000AF4
:10040800D8B409EF02F0E7EF01F0DF51000AD8B4E1
:10041800E1EF01F0010AD8B4E7EF01F0030AD8B41C
:10042800EDEF01F0010AD8B4F3EF01F0070AD8B4F0
:10043800F9EF01F0E7EF01F0540ED56FFE0ED66F1D
:1004480076CFD7F0D86B75CFD9F0DA6BFCEC12F019
:10045800BDEF00F071987188A10ED56FFE0ED66FB2
:10046800FCEC12F0BDEF00F0000E926F000E916FE1
:100478009E0ED56FFD0ED66FFCEC12F0FD0E00013E
:10048800D56FFF0ED66FFCEC12F081EC13F000096B
:10049800D8A451EF02F053EF02F049EF02F0000E3A
:1004A8000001926F9B0E9225D96EDA6A000EDA224D
:1004B800D3EC12F0DF6E9B0E00019225D96EDA6A3A
:1004C800000EDA22DF509127FA0ED56FFF0ED66F95
:1004D8009B0E9225D96EDA6A000EDA22DF50DF6FA2
:1004E800DF51D76FD86BFCEC12F09B0E0001922500
:1004F800D96EDA6A000EDA220D0EDE18D8A487EF5C
:1005080002F089EF02F093EF02F00D0E915F180EE2
:10051800D56FFD0ED66FFCEC12F09CEF02F0922B1B
:10052800160E92659AEF02F09CEF02F056EF02F079
:100538009C0E00019225D96EDA6A000EDA22000EAE
:10054800DF6E9D0E9225D96EDA6A000EDA2291C00E
:10055800DFFFEF0ED56FFE0ED66F9B0ED76F000E26
:10056800D86FFCEC12F0000E0001D56FFF0ED66FAD
:1005780091C0D7F0D86BFCEC12F0BDEF00F0000E84
:10058800906F9305D8A4CBEF02F0CDEF02F009EFFE
:1005980003F0C80ED56FFF0ED66FFCEC12F05D0E9F
:1005A8000001D56FFF0ED66F200ED76F010ED86FE2
:1005B800FCEC12F0000E0001E66FE4EF02F0E62B0F
:1005C800200EE625D96EDA6A010EDA22DF50D8A4A9
:1005D800F0EF02F0F2EF02F0E3EF02F0E62B200E6C
:1005E800E625D96EDA6A010EDA22DF50906F200E06
:1005F800D56FFF0ED66F90C0D7F0D86BFCEC12F019
:10060800000E0001936FBDEF00F0C70ED56FFD0E11
:10061800D66FFCEC12F0BDEF00F0F851020DE70EBA
:10062800F324D96E000EF420DA6EDECFE1F0DDCFD0
:10063800E2F0000EE56F9B0EE525D96EDA6A000E32
:10064800DA22DF50E46FE1C00BF0E2C00CF0E451B5
:1006580001EC0EF09B0E0001E525D96EDA6A000E5A
:10066800DA22DF50D8A43BEF03F03DEF03F04EEF62
:1006780003F09C0EE525D96EDA6A000EDA22DF5007
:10068800E46FE1C00BF0E2C00CF0E45101EC0EF0B5
:1006980051EF03F0E52B1FEF03F07B0E0001D56F40
:1006A800FF0ED66FFCEC12F05D0E0001D56FFF0E49
:1006B800D66F9B0ED76F000ED86FFCEC12F0200E91
:1006C8000001D56FFF0ED66F91C0D7F0D86BFCEC48
:1006D80012F0BDEF00F0DE0ED56FFE0ED66FE3C050
:1006E800D7F0D86BFCEC12F0BDEF00F0E351DF6FF0
:1006F800E06BE051000AD8B484EF03F06FEF03F029
:10070800DF513F0AD8B4CDEF00F06D0AD8B4C3EF7B
:1007180002F0010AD8B411EF03F0090AD8B47EEF49
:1007280001F0380AD8B4A7EF01F00F0AD8B438EFAF
:1007380002F0020AD8B476EF01F01D0AD8B42EEF01
:1007480002F0080AD8B493EF01F06FEF03F058EF06
:1007580000F04DC0D9FF4EC0DAFFDECFF6FFDDCF87
:10076800F7FFF86A0800F550250AD8A4BEEF03F091
:10077800C0EF03F08FEF06F04DC0D9FF4EC0DAFF8F
:10078800DE2A000EDD22000E00017B6F000E7A6F5C
:100798007AC055F07BC056F053685468000EC36F9A
:1007A800000EC26F1FEF04F055804DC0D9FF4EC038
:1007B800DAFFDE2A000EDD221FEF04F05582D9EFA2
:1007C80003F05584D9EF03F05586D9EF03F0558827
:1007D800D9EF03F0000EC36F010EC26F1FEF04F0D4
:1007E8004DC0D9FF4EC0DAFFDECFF6FFDDCFF7FFF1
:1007F800F86A0800F550B46FB56BB551000AD8B463
:1008080008EF04F0EEEF03F0B451200AD8B4E8EF93
:1008180003F0030AD8B4EBEF03F0080AD8B4E5EF05
:1008280003F0060AD8B4D8EF03F01D0AD8B4E2EFF3
:1008380003F0EEEF03F0C251C311D8B426EF04F071
:1008480028EF04F0F4EF03F055A02DEF04F02FEF9C
:1008580004F030EF04F055924DC0D9FF4EC0DAFFD6
:10086800DECFF6FFDDCFF7FFF86A0800F5502A0A59
:10087800D8A441EF04F043EF04F06CEF04F04DC04E
:10088800D9FF4EC0DAFFDE2A000EDD224FC0D9FFA5
:1008980050C0DAFFDFCFB4F0020EDE26DFCFB5F0AE
:1008A800000EDD22B4C0D9FFB5C0DAFFDECF7AF082
:1008B800DDCF7BF07BBF65EF04F063EF04F0B1EFB1
:1008C80004F055807A6D7B1FD8B07B2BB1EF04F014
:1008D8004DC0D9FF4EC0DAFFDECF0EF0DDCF0FF0EE
:1008E80085EC0AF00EC07AF00FC07BF083EF04F0BD
:1008F8004DC0D9FF4EC0DAFFDE2A000EDD22D00E31
:100908000001B46FFF0EB56F4DC0D9FF4EC0DAFFBE
:10091800DECFF6FFDDCFF7FFF86A0800F550B66FB7
:10092800B76BB451B627B551B723B7510AE10A0ED0
:10093800B65DD8A0A2EF04F0A5EF04F0010EA6EF73
:1009480004F0000EC46FC56BC451C511D8A4AFEF35
:1009580004F0B1EF04F07CEF04F04DC0D9FF4EC0B5
:10096800DAFFDECFF6FFDDCFF7FFF86A0800F550B3
:10097800630AD8A4C2EF04F0C4EF04F0EBEF04F06C
:100988004DC0D9FF4EC0DAFFDE2A000EDD224FC06F
:10099800D9FF50C0DAFFDFCFB4F0020EDE26DFCF7A
:1009A800B5F0000EDD22B4C0D9FFB5C0DAFFDF50C4
:1009B800CE6F4BC024F04CC025F0CEC026F0DBEC47
:1009C80010F024C04BF025C04CF0ABEF06F04DC042
:1009D800D9FF4EC0DAFFDECFF6FFDDCFF7FFF86AAA
:1009E8000800F550640AD8B4FCEF04F0FEEF04F0F8
:1009F80011EF05F04DC0D9FF4EC0DAFFDECFF6FF8C
:100A0800DDCFF7FFF86A0800F550690AD8A40FEFA0
:100A180005F011EF05F051EF05F04DC0D9FF4EC0BC
:100A2800DAFFDE2A000EDD224FC0D9FF50C0DAFF00
:100A3800DFCFB4F0020EDE26DFCFB5F0000EDD22E8
:100A4800B4C0D9FFB5C0DAFFDECFB8F0DDCFB9F05A
:100A5800000EB9BFFF0EBA6FBB6FBC6FBD6FBE6F24
:100A6800BF6F4BC024F04CC025F0B8C026F0B9C009
:100A780027F0BAC028F0BBC029F0BCC02AF0BDC01E
:100A88002BF0BEC02CF0BFC02DF0ACEC06F024C09B
:100A98004BF025C04CF0ABEF06F04DC0D9FF4EC06F
:100AA800DAFFDECFF6FFDDCFF7FFF86A0800F55072
:100AB800730AD8A462EF05F064EF05F08FEF05F034
:100AC8004DC0D9FF4EC0DAFFDE2A000EDD224FC02E
:100AD800D9FF50C0DAFFDFCFB4F0020EDE26DFCF39
:100AE800B5F0000EDD22B4C0D9FFB5C0DAFFDECF05
:100AF800C0F0DDCFC1F04BC012F04CC013F0C0C045
:100B080014F0C1C015F016EC0CF012C04BF013C075
:100B18004CF0ABEF06F04DC0D9FF4EC0DAFFDECF88
:100B2800F6FFDDCFF7FFF86A0800F550750AD8A47C
:100B3800A0EF05F0A2EF05F0E3EF05F04DC0D9FFF7
:100B48004EC0DAFFDE2A000EDD224FC0D9FF50C0AA
:100B5800DAFFDFCFB4F0020EDE26DFCFB5F0000EED
:100B6800DD22B4C0D9FFB5C0DAFFDECFB6F0DDCFE5
:100B7800B7F0B6C0C6F0B7C0C7F0C86BC96BCA6BD0
:100B8800CB6BCC6BCD6B4BC024F04CC025F0C6C0F2
:100B980026F0C7C027F0C8C028F0C9C029F0CAC0CD
:100BA8002AF0CBC02BF0CCC02CF0CDC02DF085ECBA
:100BB80009F024C04BF025C04CF0ABEF06F04DC057
:100BC800D9FF4EC0DAFFDECFF6FFDDCFF7FFF86AB8
:100BD8000800F550780AD8B4F4EF05F0F6EF05F000
:100BE80009EF06F04DC0D9FF4EC0DAFFDECFF6FFA1
:100BF800DDCFF7FFF86A0800F550580AD8A407EFC8
:100C080006F009EF06F058EF06F04DC0D9FF4EC0C8
:100C1800DAFFDECFF6FFDDCFF7FFF86A0800F5CF81
:100C2800CEF04DC0D9FF4EC0DAFFDE2A000EDD221D
:100C38004FC0D9FF50C0DAFFDFCFB4F0020EDE2676
:100C4800DFCFB5F0000EDD22B4C0D9FFB5C0DAFFA2
:100C5800DECFB6F0DDCFB7F0B6C0C6F0B7C0C7F08C
:100C6800C86BC96BCA6BCB6BCC6BCD6B4BC024F01C
:100C78004CC025F0C6C026F0C7C027F0C8C028F071
:100C8800C9C029F0CAC02AF0CBC02BF0CCC02CF0C8
:100C9800CDC02DF0CEC02EF01BEC08F024C04BF0D8
:100CA80025C04CF0ABEF06F04DC0D9FF4EC0DAFFBF
:100CB800DECFF6FFDDCFF7FFF86A0800F550250A0A
:100CC800D8A469EF06F06BEF06F082EF06F04DC08E
:100CD800D9FF4EC0DAFFDE2A000EDD22000E0A6EB2
:100CE800250E096E4BC00BF04CC00CF0F4EC0FF065
:100CF800000E4C6E010E4B6EABEF06F04DC0D9FFE7
:100D08004EC0DAFFDE2A000EDD22000E4C6E000E09
:100D18004B6EABEF06F04DC0D9FF4EC0DAFFDECF09
:100D2800F6FFDDCFF7FFF86A0800F550096E0A6A8A
:100D38004BC00BF04CC00CF0F4EC0FF04DC0D9FFD9
:100D48004EC0DAFFDE2A000EDD227CEF06F012002C
:100D580026C03EF027C03FF028C040F029C041F02F
:100D68002AC042F02BC043F02CC044F02DC045F0FF
:100D780045BEC1EF06F0C4EF06F0010EC5EF06F060
:100D8800000E3C6E3D6A3C503D10D8B4CEEF06F0E4
:100D9800D0EF06F0E0EF06F0451E441E431E421E4B
:100DA800411E401E3F1E3E6C000E3F224022412243
:100DB800422243224422452254BEE5EF06F0E7EFE3
:100DC80006F0E8EF06F0559254BEF5EF06F05450E1
:100DD80006E15304D8B0F3EF06F0F5EF06F0FBEFA9
:100DE80006F0000E396E010E386EFFEF06F053C0A4
:100DF80038F054C039F07AC03AF07BC03BF03C5030
:100E08003D10D8A40AEF07F00CEF07F013EF07F036
:100E180055A411EF07F013EF07F016EF07F03A06A5
:100E2800D8A03B06000E476E1F0E466E000E01014D
:100E38001F6F9BEF07F04606D8A04706000E462412
:100E4800D96E010E4720DA6E3EC007F03FC008F0A9
:100E580040C009F041C00AF042C00BF043C00CF09A
:100E680044C00DF045C00EF00A0E0F6E000E106E55
:100E7800000E116E000E126E000E136E000E146E30
:100E8800000E156E000E166ED7EC0CF007C02EF093
:100E980008C02FF009C030F00AC031F00BC032F0A2
:100EA8000CC033F00DC034F00EC035F02EC019F070
:100EB80030C01AF0C2EC11F01950300FDF6E38064E
:100EC800D8A039063A06D8A03B063EC007F03FC076
:100ED80008F040C009F041C00AF042C00BF043C01E
:100EE8000CF044C00DF045C00EF00A0E0F6E000E57
:100EF800106E000E116E000E126E000E136E000EB4
:100F0800146E000E156E000E166E52EC0BF007C034
:100F18003EF008C03FF009C040F00AC041F00BC0E5
:100F280042F00CC043F00DC044F00EC045F047BE7F
:100F3800A6EF07F0475008E14604D8A0A6EF07F04F
:100F4800A8EF07F0D8EF07F03E503F1040104110CF
:100F58004210431044104510D8A4B5EF07F0B7EF7E
:100F680007F01FEF07F039BEC4EF07F0395006E16C
:100F78003804D8B0C2EF07F0C4EF07F01FEF07F04E
:100F88003BBECFEF07F03B5008E13A04D8A0CFEFC3
:100F980007F0D1EF07F0D8EF07F055B2D6EF07F01A
:100FA800D8EF07F01FEF07F03C503D10D8A4DFEF53
:100FB80007F0E1EF07F0E8EF07F055A4E6EF07F0D8
:100FC800E8EF07F006EF08F04606D8A047063C50C1
:100FD8003D10D8A4F2EF07F0F4EF07F0FAEF07F0AE
:100FE800000E376E2B0E366EFEEF07F0000E376ED2
:100FF8002D0E366E000E4624D96E010E4720DA6E8D
:1010080036C0DFFF24C019F025C01AF0000E4624B0
:101018001B6E010E47201C6E3AC01DF03BC01EF02F
:10102800DDEC0EF019C024F01AC025F0120054BEF1
:1010380020EF08F022EF08F023EF08F0559254BE95
:1010480030EF08F0545006E15304D8B02EEF08F002
:1010580030EF08F036EF08F0000E3C6E010E3B6EE4
:101068003AEF08F053C03BF054C03CF07AC03DF072
:101078007BC03EF055A843EF08F045EF08F049EF74
:1010880008F0FE0E3D26FF0E3E2226C03FF027C088
:1010980040F028C041F029C042F02AC043F02BC0DC
:1010A80044F02CC045F02DC046F0000E486E1F0ECF
:1010B800476E000E01011F6F15EF09F04706D8A013
:1010C80048060F0E3F14496E4A6A4ABE75EF08F08B
:1010D8004A5009E10A0E495CD8A075EF08F077EF8D
:1010E80008F07FEF08F0570E4924496E000E4A2099
:1010F8004A6E85EF08F0300E4924496E000E4A20EA
:101108004A6EBF0E2F6EFF0E306E2E50316E326A51
:101118002F5031263050322232500AE11A0E315CFB
:10112800D8A099EF08F09CEF08F0010E9DEF08F0A9
:10113800000E376E386A37503810D8B4A6EF08F06A
:10114800A8EF08F0D8EF08F09F0E2F6EFF0E306E54
:10115800200E4910316E000E4A10326E2F50312683
:101168003050322232500AE11A0E315CD8A0BFEF5B
:1011780008F0C2EF08F0010EC3EF08F0000E396E58
:101188003A6A39503A10D8B4CCEF08F0CEEF08F0EC
:10119800D8EF08F049C00DF04AC00EF0ACEC10F0E2
:1011A8000DC049F00EC04AF0000E4724D96E010E5A
:1011B8004820DA6E49C0DFFF3B06D8A03C063D0652
:1011C800D8A03E063FC02FF040C030F041C031F0FB
:1011D80042C032F043C033F044C034F045C035F06B
:1011E80046C036F0050E02EF09F0D8903632353297
:1011F800343233323232313230322F32E82EF9EF94
:1012080008F02FC03FF030C040F031C041F032C08C
:1012180042F033C043F034C044F035C045F036C026
:1012280046F048BE21EF09F0485009E1020E475C3C
:10123800D8A021EF09F023EF09F053EF09F03F5050
:101248004010411042104310441045104610D8A4D5
:1012580030EF09F032EF09F062EF08F03CBE3FEFE3
:1012680009F03C5006E13B04D8B03DEF09F03FEFF0
:1012780009F062EF08F03EBE4AEF09F03E5008E17F
:101288003D04D8A04AEF09F04CEF09F053EF09F0FC
:1012980055B251EF09F053EF09F062EF08F055A885
:1012A80058EF09F05AEF09F070EF09F04706D8A097
:1012B8004806000E4724D96E010E4820DA6E2EC06B
:1012C800DFFF4706D8A04806000E4724D96E010E56
:1012D8004820DA6E300EDF6E24C019F025C01AF0EF
:1012E800000E47241B6E010E48201C6E3DC01DF0E9
:1012F8003EC01EF0DDEC0EF019C024F01AC025F037
:10130800120054BE8AEF09F08CEF09F08DEF09F056
:10131800559254BE9AEF09F0545006E15304D8B0E0
:1013280098EF09F09AEF09F0A0EF09F0000E376E78
:10133800010E366EA4EF09F053C036F054C037F0F2
:101348007AC038F07BC039F026C03AF027C03BF0AD
:1013580028C03CF029C03DF02AC03EF02BC03FF029
:101368002CC040F02DC041F0000E436E1F0E426E9F
:10137800000E01011F6F37EF0AF04206D8A043069E
:10138800000E4224D96E010E4320DA6E3AC007F0EF
:101398003BC008F03CC009F03DC00AF03EC00BF06D
:1013A8003FC00CF040C00DF041C00EF00A0E0F6EA9
:1013B800000E106E000E116E000E126E000E136EEF
:1013C800000E146E000E156E000E166E75EC0EF003
:1013D80007C02EF008C02FF009C030F00AC031F065
:1013E8000BC032F00CC033F00DC034F00EC035F035
:1013F8002E50300FDF6E3606D8A037063806D8A034
:1014080039063AC007F03BC008F03CC009F03DC0BF
:101418000AF03EC00BF03FC00CF040C00DF041C0D8
:101428000EF00A0E0F6E000E106E000E116E000EFA
:10143800126E000E136E000E146E000E156E000E66
:10144800166E89EC0DF007C03AF008C03BF009C0F1
:101458003CF00AC03DF00BC03EF00CC03FF00DC0A0
:1014680040F00EC041F042504310D8B43EEF0AF0AD
:1014780040EF0AF070EF0AF03A503B103C103D1074
:101488003E103F1040104110D8A44DEF0AF04FEF26
:101498000AF0C1EF09F037BE5CEF0AF0375006E1F9
:1014A8003604D8B05AEF0AF05CEF0AF0C1EF09F041
:1014B80039BE67EF0AF0395008E13804D8A067EF61
:1014C8000AF069EF0AF070EF0AF055B26EEF0AF011
:1014D80070EF0AF0C1EF09F024C019F025C01AF026
:1014E800000E42241B6E010E43201C6E38C01DF0F6
:1014F80039C01EF0DDEC0EF019C024F01AC025F03A
:101508001200000E1C6E000E1B6E000E156E000EF3
:10151800146E91EF0AF00E4A0F2A010E1A6E0EC0D1
:10152800F6FF0FC0F7FFF86A0800F550200AD8B494
:10153800A0EF0AF0A2EF0AF0C0EF0AF0F70E106E63
:10154800FF0E116E0EC0F6FF0FC0F7FFF86A080015
:10155800F550126E136A10501226115013221350B0
:1015680009E1050E125CD8A0BCEF0AF0BEEF0AF044
:10157800C0EF0AF0000E1A6E1AC016F0176A16505D
:101588001710D8A4CAEF0AF0CCEF0AF08FEF0AF0D0
:10159800D6EF0AF0000E156E010E146E0E4A0F2AD1
:1015A8000DEF0BF00EC0F6FF0FC0F7FFF86A08004A
:1015B800F550106E116A1150000AD8B4E6EF0AF01F
:1015C8000DEF0BF010502B0AD8B4D2EF0AF0060A30
:1015D800D8B4CEEF0AF00DEF0BF01BC007F01CC01B
:1015E80008F0000E0A6E0A0E096E10EC13F00EC019
:1015F800F6FF0FC0F7FFF86A0800F550075E000E07
:10160800085A300E07241B6E000E08201C6ED2EFFD
:101618000AF0D00E106EFF0E116E0EC0F6FF0FC04E
:10162800F7FFF86A0800F550126E136A1050122678
:101638001150132213500AE10A0E125CD8A027EFAA
:101648000BF02AEF0BF0010E2BEF0BF0000E186ECB
:10165800196A18501910D8A434EF0BF036EF0BF0B4
:10166800F1EF0AF014501510D8A43DEF0BF03FEF3E
:101678000BF04DEF0BF01BC010F01CC011F0101E4A
:10168800111E104A112A10C00EF011C00FF051EFB0
:101698000BF01BC00EF01CC00FF01200000E186EED
:1016A80016BE5BEF0BF059EF0BF06DEF0BF0161E4B
:1016B800151E141E131E121E111E101E0F6C000E76
:1016C8001022112212221322142215221622010E90
:1016D800186E0EBE74EF0BF072EF0BF086EF0BF086
:1016E8000E1E0D1E0C1E0B1E0A1E091E081E076C60
:1016F800000E082209220A220B220C220D220E2299
:10170800010E181A20EE19F0070EDE6AE806FDE24F
:101718000F5010101110121013101410151016106D
:10172800D8B499EF0BF09BEF0BF0EDEF0BF0010E37
:10173800176EA9EF0BF0D8900F3610361136123607
:101748001336143615361636172A16AEAEEF0BF0CA
:10175800B0EF0BF09FEF0BF0D89019361A361B3606
:101768001C361D361E361F3620360F50075C1050AB
:1017780008581150095812500A5813500B58145051
:101788000C5815500D5816500E58D8A0CEEF0BF027
:10179800D0EF0BF0E1EF0BF00F50075E1050085A36
:1017A8001150095A12500A5A13500B5A14500C5A15
:1017B80015500D5A16500E5A1980D89016321532F7
:1017C800143213321232113210320F32172EB0EF98
:1017D8000BF01850D8B4F3EF0BF0F5EF0BF005EF62
:1017E8000CF0201E1F1E1E1E1D1E1C1E1B1E1A1E58
:1017F800196C000E1A221B221C221D221E221F22D7
:10180800202219C007F01AC008F01BC009F01CC03C
:101818000AF01DC00BF01EC00CF01FC00DF020C058
:101828000EF0120020EEF1F010EE17F0060EDBCFEE
:10183800E3FFE806FCE214C022F015C023F02250B2
:101848002310D8A42AEF0CF02CEF0CF030EF0CF09A
:10185800170E226E000E236E22C007F023C008F078
:1018680074EC12F007C026F008C027F053C024F02B
:1018780054C025F025BE43EF0CF045EF0CF05AEFAD
:101888000CF02650245C2550800A166E2750800ADA
:101898001658D8A052EF0CF054EF0CF056EF0CF09D
:1018A8005AEF0CF024C026F025C027F026C024F0FB
:1018B80027C025F07AC020F07BC021F055B067EF33
:1018C8000CF069EF0CF086EF0CF077EF0CF0000EDF
:1018D8000A6E200E096E12C00BF013C00CF0F4EC67
:1018E8000FF0264A272A2050265C2750800A166EB9
:1018F8002150800A1658D8A084EF0CF086EF0CF01F
:101908006BEF0CF0000E1F6E000E1E6E9FEF0CF0BA
:1019180022C0D9FF23C0DAFFDF50166E1650096EB9
:101928000A6A12C00BF013C00CF0F4EC0FF0224A54
:10193800232A1E4A1F2A24501E5C1F50800A166E36
:101948002550800A1658D8A0ACEF0CF0AEEF0CF07A
:101958008CEF0CF055A0B3EF0CF0B5EF0CF0D2EF14
:101968000CF0C3EF0CF0000E0A6E200E096E12C0C8
:101978000BF013C00CF0F4EC0FF0264A272A205085
:10198800265C2750800A166E2150800A1658D8A067
:10199800D0EF0CF0D2EF0CF0B7EF0CF026C012F03D
:1019A80027C013F01200000E186E0EBEE0EF0CF008
:1019B800DEEF0CF0F2EF0CF00E1E0D1E0C1E0B1ECF
:1019C8000A1E091E081E076C000E082209220A2298
:1019D8000B220C220D220E22010E186E16BEF9EFF4
:1019E8000CF0F7EF0CF009EF0DF0161E151E141E83
:1019F800131E121E111E101E0F6C000E1022112233
:101A0800122213221422152216220F501010111020
:101A180012101310141015101610D8B416EF0DF07C
:101A280018EF0DF060EF0DF0010E176E26EF0DF0B8
:101A3800D8900F361036113612361336143615363E
:101A48001636172A16AE2BEF0DF02DEF0DF01CEF02
:101A58000DF00F50075C10500858115009581250DB
:101A68000A5813500B5814500C5815500D5816504E
:101A78000E58D8A042EF0DF044EF0DF054EF0DF0E2
:101A88000F50075E1050085A1150095A12500A5A3E
:101A980013500B5A14500C5A15500D5A16500E5A12
:101AA800D8901632153214321332123211321032E3
:101AB8000F32172E2DEF0DF01850D8B466EF0DF039
:101AC80068EF0DF078EF0DF00E1E0D1E0C1E0B1EAC
:101AD8000A1E091E081E076C000E082209220A2287
:101AE8000B220C220D220E2207C007F008C008F0B6
:101AF80009C009F00AC00AF00BC00BF00CC00CF0CA
:101B08000DC00DF00EC00EF0120020EE17F0070EFB
:101B1800DE6AE806FDE20F501010111012101310C3
:101B2800141015101610D8B49CEF0DF09EEF0DF0A0
:101B3800F0EF0DF0010E1F6EACEF0DF0D8900F36E0
:101B480010361136123613361436153616361F2A45
:101B580016AEB1EF0DF0B3EF0DF0A2EF0DF0D89087
:101B68001736183619361A361B361C361D361E36E9
:101B78000F50075C105008581150095812500A5855
:101B880013500B5814500C5815500D5816500E5829
:101B9800D8A0D1EF0DF0D3EF0DF0E4EF0DF00F501A
:101BA800075E1050085A1150095A12500A5A135019
:101BB8000B5A14500C5A15500D5A16500E5A1780BD
:101BC800D8901632153214321332123211321032C2
:101BD8000F321F2EB3EF0DF017C007F018C008F032
:101BE80019C009F01AC00AF01BC00BF01CC00CF099
:101BF8001DC00DF01EC00EF012000D6E010E0E6E0F
:101C0800000E086E190E076E8FEC12F00B500008CC
:101C1800076E0C50D8A0E82A0008086EE8EC12F00D
:101C28009E9077EC13F00009D8B41DEF0EF01FEF6B
:101C38000EF015EF0EF051EF0EF00D500E140009D6
:101C4800D8B429EF0EF02BEF0EF033EF0EF0000EA4
:101C5800086E000E076E8FEC12F039EF0EF0000ED2
:101C6800086E190E076E8FEC12F00E500E240E6ED1
:101C78000B500008076E0C50D8A0E82A0008086E20
:101C8800E8EC12F09E9077EC13F00009D8B44FEF0F
:101C98000EF051EF0EF047EF0EF00E50D8A457EFAC
:101CA8000EF059EF0EF021EF0EF0000E086E000E48
:101CB800076E8FEC12F00B500008076E0C50D8A07E
:101CC800E82A0008086EE8EC12F09E9077EC13F012
:101CD8000009D8B472EF0EF074EF0EF06AEF0EF050
:101CE80012000F50101011101210131014101510AC
:101CF8001610D8B482EF0EF084EF0EF0CCEF0EF091
:101D0800010E176E92EF0EF0D8900F36103611367E
:101D180012361336143615361636172A16AE97EFBE
:101D28000EF099EF0EF088EF0EF00F50075C105090
:101D380008581150095812500A5813500B5814508B
:101D48000C5815500D5816500E58D8A0AEEF0EF07E
:101D5800B0EF0EF0C0EF0EF00F50075E1050085AAB
:101D68001150095A12500A5A13500B5A14500C5A4F
:101D780015500D5A16500E5AD89016321532143284
:101D880013321232113210320F32172E99EF0EF031
:101D980007C007F008C008F009C009F00AC00AF037
:101DA8000BC00BF00CC00CF00DC00DF00EC00EF007
:101DB800120055A0E2EF0EF0E4EF0EF0EEEF0EF099
:101DC8001BC012F01CC013F019C014F01AC015F093
:101DD8007FEC11F01EBEF3EF0EF0F5EF0EF0FBEF07
:101DE8000EF01DC022F01EC023F0FFEF0EF0000E13
:101DF800236E000E226E000E216E000E206E11EF73
:101E08000FF0000E0A6E200E096E19C00BF01AC0F2
:101E18000CF0F4EC0FF0204A212A2250205C2150CB
:101E2800800A1F6E2350800A1F58D8A01EEF0FF09B
:101E380020EF0FF005EF0FF055B025EF0FF027EF6B
:101E48000FF031EF0FF01BC012F01CC013F019C0D7
:101E580014F01AC015F07FEC11F01BC007F01CC07D
:101E680008F074EC12F022500724196E2350082051
:101E78001A6E1200600E5824D96EDA6A000EDA2241
:101E8800000EDF6E71A44BEF0FF04DEF0FF061EF16
:101E98000FF0600E5824D96EDA6A000EDA220001BB
:101EA800DF8202D861EF0FF00500FA6E8651FD6EF1
:101EB8008751FE6EFF6AFA50120071A266EF0FF0AA
:101EC80068EF0FF07CEF0FF0600E5824D96EDA6AD5
:101ED800000EDA220001DF8402D87CEF0FF0050043
:101EE800FA6E8451FD6E8551FE6EFF6AFA5012003B
:101EF800600E5824D96EDA6A000EDA22DF50D8B4A0
:101F080088EF0FF08AEF0FF099EF0FF002D897EFF4
:101F18000FF00500FA6E00018251FD6E8351FE6ECE
:101F2800FF6AFA5012009BEF0FF0BDEC12F012009E
:101F3800D9EF0FF0010E8F6F000E8E6F200E8E25D9
:101F4800D96EDA6A010EDA2274CFDFFF8E2BF3EF37
:101F58000FF0200E8E25D96EDA6A010EDA2274CFC0
:101F6800DFFF8E2B1F0E8E25D96EDA6A010EDA225C
:101F7800DF50D8A4C2EF0FF0C4EF0FF0F3EF0FF06B
:101F8800020E8F6FF3EF0FF0200E8E25D96EDA6AEE
:101F9800010EDA2274CFDFFF8E2B000E946F010E34
:101FA800936F000E8F6FF3EF0FF000018F51016EEA
:101FB800026A0250000AD8B4E4EF0FF0F3EF0FF012
:101FC8000150000AD8B49EEF0FF0010AD8B4ADEF63
:101FD8000FF0030AD8B4C8EF0FF0F3EF0FF01200B8
:101FE8000B500C10D8B4FBEF0FF0FDEF0FF006EF1D
:101FF80010F00B500C10D8A404EF10F006EF10F0FE
:102008000BEF10F009509CEC13F03EEF10F020EEAF
:1020180004F00B50D9260C50DA22DE50DE10D8B46A
:1020280018EF10F01AEF10F035EF10F020EE04F072
:102038000B50D9260C50DA2210EE02F00B50E12694
:102048000C50E222DE50E65CE650800A116EDE504B
:10205800800A1158D8B033EF10F035EF10F03EEF8A
:1020680010F020EE02F00B50D9260C50DA22DE2AAE
:10207800000EDD221200A39A7C0E076E1E0E086E5B
:10208800A6EC13F0A398420E076E230E086EA1EC7F
:1020980013F0080E706E900E716E240E726E140E90
:1020A800756E340E766EA20E076E270E086EB0ECB3
:1020B80013F0920E076E270E086EABEC13F0980E15
:1020C800076E270E086EB5EC13F0000E0001966F30
:1020D800000E9A6F000E996F080E986F000E586EDA
:1020E800000E576E000E976FA38A1200D1C051F0F0
:1020F800D2C052F0000E0001796F000E786F98EF91
:1021080010F0CFC04BF0D0C04CF0510E4D6E000E09
:102118004E6ED3C04FF0D4C050F0ADEC03F04B502E
:10212800000178274C50792351C0F6FF52C0F7FFC1
:10213800F86A0800F5500009D8A4A5EF10F0A7EF39
:1021480010F085EF10F078C0CFF079C0D0F0120011
:102158009F0E0F6EFF0E106E0DC011F00EC012F024
:102168000F5011261050122212500AE11A0E115C5B
:10217800D8A0C1EF10F0C4EF10F0010EC5EF10F0B9
:10218800000E136E146A13501410D8B4CEEF10F06A
:10219800D0EF10F0D6EF10F05F0E0D140D6E0E6A32
:1021A800DAEF10F00DC00DF00EC00EF012000001B5
:1021B8007A517B11D8A4E3EF10F0E5EF10F0EBEFC4
:1021C80010F07AC027F07BC028F0F1EF10F0FF0E76
:1021D8007A25276EFF0E7B21286E26C000F1000E9F
:1021E8000101016F24C019F025C01AF0000E1B6E02
:1021F800010E1C6E27C01DF028C01EF0DDEC0EF08D
:1022080019C024F01AC025F01200010E0D6E200E20
:1022180007180810D8B413EF11F015EF11F02EEFCE
:1022280011F0F70E096EFF0E0A6E07C00BF008C01A
:102238000CF009500B260A500C220C5009E1050E2F
:102248000B5CD8A02AEF11F02CEF11F02EEF11F053
:10225800000E0D6E0DC007F0086A1200160EF66E1D
:10226800270EF76E000EF86E00EEE7F010EE12F093
:102278000900F5CFEEFFE550E150FAE101EE00F07C
:10228800390EEE6AE806FDE100EE60F0540EEE6AE3
:10229800E806FDE1586A576A566A556A546A536AED
:1022A8005990599200015AEF00F000019751D8B4A3
:1022B80060EF11F062EF11F059EF11F0600E572442
:1022C800D96EDA6A000EDA22DF50966F680E57244C
:1022D800D96EDA6A000EDA22572A070E576477EFAA
:1022E80011F079EF11F07BEF11F0000E576EA39A01
:1022F8009707A38A1200000E186E000E176E90EF53
:1023080011F016C009F00A6A14C00BF015C00CF0E1
:10231800F4EC0FF0174A182A17501224D96E1850E7
:102328001320DA6EDF50166E1650D8A49EEF11F007
:10233800A0EF11F085EF11F01200080E000198616E
:10234800A8EF11F0AAEF11F0C0EF11F0700E992567
:10235800D96EDA6A000EDA22DF50736E992B070EF7
:102368009965B9EF11F0BBEF11F0BDEF11F0000E58
:10237800996F982BC1EF11F0A39812001ABECFEFF6
:1023880011F01A5006E11904D8B0CDEF11F0CFEFD3
:1023980011F0DDEF11F019C01BF01AC01CF01B1E64
:1023A8001C1E1B4A1C2A1BC019F01CC01AF0E1EFA6
:1023B80011F019C019F01AC01AF01200080EB86E00
:1023C800900EAB6E240EAC6E820EAF6E060EB06E23
:1023D800000E076E000E086EBFEC13F0000E076EBD
:1023E800000E086EBAEC13F0000E076E000E086EB1
:1023F800C4EC13F0000E0001956F12009F0E096ED9
:10240800FF0E0A6E200E07100B6E000E08100C6EE1
:1024180009500B260A500C220C500AE11A0E0B5CCC
:10242800D8A019EF12F01CEF12F0010E1DEF12F0F8
:10243800000E076E086A12009F0E096EFF0E0A6EE4
:1024480007C00BF008C00CF009500B260A500C22EC
:102458000C500AE11A0E0B5CD8A035EF12F038EFD9
:1024680012F0010E39EF12F0000E076E086A120022
:10247800BF0E096EFF0E0A6E07C00BF008C00CF005
:1024880009500B260A500C220C500AE11A0E0B5C5C
:10249800D8A051EF12F054EF12F0010E55EF12F0E0
:1024A800000E076E086A1200D00E096EFF0E0A6E43
:1024B80007C00BF008C00CF009500B260A500C227C
:1024C8000C500AE10A0E0B5CD8A06DEF12F070EF09
:1024D80012F0010E71EF12F0000E076E086A12007A
:1024E80007C009F008C00AF07CEF12F0074A082A72
:1024F80007C0D9FF08C0DAFFDF50D8A486EF12F072
:1025080088EF12F07AEF12F00950075C076E0A5054
:102518000858086E120007C009F008C00AF0D890E1
:102528000A320932D8900A3209320950676E07C058
:1025380009F0030E0916093AF00E09166650CF0B7A
:102548000910666E1200000E896E000E8A6E000E6B
:102558008B6E9268BF0E936EBD0E946E3C0E0F018B
:102568003A6F3F0E396F2F0E386F000E616EF18E85
:102578001200680E5824D96EDA6A000EDA2274CF77
:10258800DFFF582A070E5864CCEF12F0CEEF12F096
:10259800D0EF12F0000E586E0001972B12009EAA81
:1025A800D8EF12F0DAEF12F0D3EF12F0000E0001BC
:1025B800956FABA2E2EF12F0E4EF12F0E6EF12F043
:1025C800AB98AB88AE501200CDA4EDEF12F0EFEF50
:1025D80012F0F7EF12F0CD900850CF6E07C0CEFF83
:1025E800CD80FBEF12F00850CF6E07C0CEFF12006F
:1025F800D70E0001DD6F000EDE6F000ECF6F000EEC
:10260800D06FD5C0D1F0D6C0D2F0DD0ED36F000E9A
:10261800D46F7AEC10F0120007500902F3CF0BF0D8
:10262800F4CF0CF007500A02F3500C2608500902A8
:10263800F3500C260BC007F00CC008F01200CFECCA
:1026480013F0A7EC12F052EC13F034EC13F094EC06
:1026580013F044EC13F0E2EC11F03FEC10F0120030
:102668000C0E666E000E646E800E656E010E636E53
:10267800000E686E000E676EE70E0F014917120014
:10268800000ECC6E000ECF6E000ECE6ECECF8CF04C
:10269800CFCF8DF09E90010ECD6E1200700ED36ECE
:1026A800040ED26E400E9B6ED2AE5DEF13F05FEF5C
:1026B80013F058EF13F0120000019751D8A467EFF8
:1026C80013F06AEF13F0010E6BEF13F0000E120017
:1026D800076E9EA872EF13F074EF13F06DEF13F00E
:1026E80007C0ADFF12009EB07CEF13F07FEF13F030
:1026F800010E80EF13F0000E12009EBA86EF13F061
:1027080089EF13F0010E8AEF13F0000E120055D076
:1027180015340A1A82064103286E756C6C2900016B
:10272800670EBB6E000EBC6E9E92050EBA6E12004E
:10273800086E08506CEC13F0120007C08AF008C04D
:102748008BF0120007C088F008C089F0120007C09B
:1027580084F008C085F0120007C086F008C087F032
:10276800120007C082F008C083F0120007C07EF094
:1027780008C07FF0120007C080F008C081F0120086
:1027880007C07CF008C07DF01200719871881200B3
:0C279800BDEC12F01200D09E12001200E6
:10FC6A0000496E7374616C6C2061206A756D7065F1
:10FC7A007220776972652066726F6D205243302058
:10FC8A00746F20524237204F4E4C592041465445FA
:10FC9A005220756E706C756767696E6720504943AC
:10FCAA004B6974330D0A00523A20526563656976CE
:10FCBA0065206D657373616765207573696E67206A
:10FCCA004555534152543220495352207669612096
:10FCDA004952206465636F6465720D0A002D2D2DEB
:10FCEA002D2D2D2D2D2D2D2D2D2D2D2D2D2D2D2D3A
:10FCFA002D2D2D2D2D2D2D2D2D2D2D2D2D2D2D2D2A
:10FD0A002D2D2D2D2D2D2D2D2D2D2D2D2D2D0D0A5C
:10FD1A0000623A20736574207468652042617564D4
:10FD2A002072617465206F66207468652073656E41
:10FD3A007420636861726163746572730D0A0043AB
:10FD4A00686F6F73652074686520696E64657820D2
:10FD5A006F662074686520746172676574206261D9
:10FD6A00756420726174650D0A00496E7374616C62
:10FD7A006C2061206A756D706572206F76657220DD
:10FD8A0049525F5458206865616465722070696ED3
:10FD9A00730D0A00456E7465722061206D65737378
:10FDAA006167652C206869742072657475726E20AB
:10FDBA007768656E20646F6E652E0D0A004E6F209F
:10FDCA006D6573736167652C207265636569766515
:10FDDA004E65776D657373616765203D2066616C5A
:10FDEA0073650D0A006D3A20456E74657220696E5E
:10FDFA0020746865207472616E736D6974204D6534
:10FE0A0073736167650D0A005265636569766520DB
:10FE1A00616E64206465636F646520616E20495277
:10FE2A00207061636B65740D0A00533A2053656E46
:10FE3A0064206D65737361676520696E20666F72F1
:10FE4A006567726F756E640D0A004261756420728F
:10FE5A006174652061737369676E65642025303249
:10FE6A00783A253032780D0A007A3A20436C656177
:10FE7A007220746865207465726D696E616C0D0A12
:10FE8A000044657627323120426F617264207769B7
:10FE9A0072696E670D0A004A75737420726573651C
:10FEAA007420455553415254320D0A005A3A205291
:10FEBA00657365742070726F636573736F720D0A70
:10FECA0000723A2072657365742045555341525445
:10FEDA00320D0A00556E6B6E6F776E206B65792056
:10FEEA0025630D0A004D6573736167653A200D0A33
:10FEFA000925730D0A0009636865636B73756D3AAA
:10FF0A002025640D0A00343A20313932303020621B
:10FF1A006175640D0A0009436865636B73756D3A10
:10FF2A002025750D0A00313A2031323030206261C5
:10FF3A0075640D0A00323A2032343030206261751D
:10FF4A00640D0A00333A2039363030206261756414
:10FF5A000D0A00094D6573736167653A2025730DB3
:10FF6A000A003F3A2068656C70206D656E750D0A4F
:10FF7A00005472616E736D69747465640D0A0030A1
:10FF8A003A2033303020626175640D0A003139320B
:10FF9A00303020426175640D0A003132303020421F
:10FFAA006175640D0A003234303020426175640D87
:10FFBA000A003936303020426175640D0A005265F4
:10FFCA006365697665640D0A0033303020426175D5
:10FFDA00640D0A004C616220360D0A006F3A096FFF
:10FFEA006B0D0A006F3A206B0D0A000D0A3E2000C5
:06FFFA002563003E00003B
:020000040020DA
:08000000FFFFFFFFFFFFFFFF00
:020000040030CA
:0E000000FF281F3CFFBF85FF0FC00FE00F4021
:00000001FF
