:020000040000FA
:04000000DBEF6CF0D6
:10D94400BCCF01F00150120001C09AF002C09BF05C
:10D95400120001C09EF002C09FF0120001C09CF0B2
:10D9640002C09DF012000250D76E01C0D6FF120013
:10D97400026E0250E5EC6CF012003F0EBB6E000E1E
:10D98400BC6E9E92060EBA6E12009EBACCEF6CF07C
:10D99400CFEF6CF0010ED0EF6CF0000E1200F2B479
:10D9A400D6EF6CF0D9EF6CF0010EDAEF6CF0000EEC
:10D9B400120000EE92F0300EEE6AE806FDE15F6AB6
:10D9C40000016FEF77F0016E9EA8EBEF6CF0EDEFC6
:10D9D4006CF0E6EF6CF001C0ADFF120079EC6DF075
:10D9E400FDEC6CF01AEC6DF0BFEC6CF051EC6DF0EA
:10D9F40033EC6EF01200700ED36E040ED26E400E35
:10DA04009B6ED2AE08EF6DF00AEF6DF003EF6DF090
:10DA14001200D6CF07F0D7CF08F00850036E075096
:10DA2400056E03C006F005C001F006C002F0120046
:10DA34003C0EBD6E000EB66E800EB76E010EB96E52
:10DA4400000EBF6E1F0EBE6EFC0E0F0149171200B2
:10DA540001500302F3CF05F0F4CF06F001500402A5
:10DA6400F350062602500302F350062605C001F0C7
:10DA740006C002F012009EAA42EF6DF044EF6DF072
:10DA84003DEF6DF0000E5F6EABA24BEF6DF04DEF0E
:10DA94006DF04FEF6DF0AB98AB88AE501200D59C93
:10DAA400F50ED76ED668D650D7CF01F0026A01C002
:10DAB40002F0016A01100001A06F0250A16FF294FC
:10DAC400930ED56E1200790E00017F6F000E806FE9
:10DAD400000E596E000E5A6E77C05BF078C05CF091
:10DAE4007F0E5D6E000E5E6E19EC6FF01200000E7C
:10DAF400896E000E8A6E000E8B6E92689368BB0E60
:10DB0400946E3C0E0F013A6F3F0E396F2F0E386F33
:10DB1400000E616EF18E120001C003F002C004F029
:10DB2400D89004320332D890043203320350BE6ECC
:10DB340001C003F0030E0316033AF00E0316BD50A2
:10DB4400CF0B0310BD6E120001C003F002C004F03D
:10DB5400AEEF6DF0014A022A01C0D9FF02C0DAFF1C
:10DB6400DF50D8A4B8EF6DF0BAEF6DF0ACEF6DF004
:10DB74000350015C016E04500258026E1200D00E74
:10DB8400036EFF0E046E01C005F002C006F00350E0
:10DB940005260450062206500AE10A0E055CD8A0A8
:10DBA400D6EF6DF0D9EF6DF0010EDAEF6DF0000EE7
:10DBB400016E026A1200BF0E036EFF0E046E01C0F6
:10DBC40005F002C006F00350052604500622065054
:10DBD4000AE11A0E055CD8A0F2EF6DF0F5EF6DF0D6
:10DBE400010EF6EF6DF0000E016E026A12009F0E38
:10DBF400036EFF0E046E01C005F002C006F0035070
:10DC040005260450062206500AE11A0E055CD8A027
:10DC14000EEF6EF011EF6EF0010E12EF6EF0000ECB
:10DC2400016E026A12009F0E036EFF0E046E200E38
:10DC34000110056E000E0210066E035005260450F6
:10DC4400062206500AE11A0E055CD8A02CEF6EF0ED
:10DC54002FEF6EF0010E30EF6EF0000E016E026ACF
:10DC64001200080EB86E900EAB6E240EAC6E820ECF
:10DC7400AF6E060EB06E000E016E000E026EABECBF
:10DC84006CF0000E016E000E026EB0EC6CF0000E33
:10DC9400016E000E026EA6EC6CF0000E5F6E1200B8
:10DCA40014BE5FEF6EF0145006E11304D8B05DEFBC
:10DCB4006EF05FEF6EF06DEF6EF013C015F014C0F0
:10DCC40016F0151E161E154A162A15C013F016C096
:10DCD40014F071EF6EF013C013F014C014F01200BE
:10DCE400000E126E000E116E83EF6EF010C003F082
:10DCF400046A0EC005F00FC006F04BEC6FF0114A39
:10DD0400122A11500C24D96E12500D20DA6EDF50F5
:10DD1400106E1050D8A491EF6EF093EF6EF078EF80
:10DD24006EF01200010E076E200E01180210D8B416
:10DD34009EEF6EF0A0EF6EF0B9EF6EF0F70E036E8B
:10DD4400FF0E046E01C005F002C006F00350052664
:10DD540004500622065009E1050E055CD8A0B5EF73
:10DD64006EF0B7EF6EF0B9EF6EF0000E076E07C0FD
:10DD740001F0026A1200000194519511D8A4C5EF74
:10DD84006EF0C7EF6EF0CDEF6EF094C021F095C049
:10DD940022F0D3EF6EF0FF0E9425216EFF0E952135
:10DDA400226E20C0A2F0000EA36F1EC013F01FC08D
:10DDB40014F0A20E156E000E166E21C017F022C0CC
:10DDC40018F096EC6FF013C01EF014C01FF0120090
:10DDD4009F0E096EFF0E0A6E07C00BF008C00CF010
:10DDE40009500B260A500C220C500AE11A0E0B5C47
:10DDF400D8A0FFEF6EF002EF6FF0010E03EF6FF0AB
:10DE0400000E0D6E0E6A0D500E10D8B40CEF6FF0AC
:10DE14000EEF6FF014EF6FF05F0E0714076E086AD1
:10DE240018EF6FF007C007F008C008F012005BC0DD
:10DE340075F05CC076F0000E0001936F000E926FD7
:10DE440037EF6FF059C045F05AC046F0750E476E73
:10DE5400000E486E5DC049F05EC04AF01CEC7AF0DA
:10DE64004550000192274650932375C0F6FF76C0B3
:10DE7400F7FFF86A0800F5500009D8A444EF6FF0E2
:10DE840046EF6FF024EF6FF092C059F093C05AF050
:10DE9400120005500610D8B452EF6FF054EF6FF033
:10DEA4005DEF6FF005500610D8A45BEF6FF05DEFE7
:10DEB4006FF062EF6FF00350BAEC6CF095EF6FF017
:10DEC40020EE04F00550D9260650DA22DE50DE108A
:10DED400D8B46FEF6FF071EF6FF08CEF6FF020EE4E
:10DEE40004F00550D9260650DA2210EE02F005504F
:10DEF400E1260650E222DE50E65CE650800A0B6E14
:10DF0400DE50800A0B58D8B08AEF6FF08CEF6FF0B8
:10DF140095EF6FF020EE02F00550D9260650DA2274
:10DF2400DE2A000EDD221200000198A19CEF6FF0A2
:10DF34009EEF6FF0A8EF6FF015C00CF016C00DF057
:10DF440013C00EF014C00FF072EC6EF018BEADEFFB
:10DF54006FF0AFEF6FF0B5EF6FF017C01CF018C0A3
:10DF64001DF0B9EF6FF0000E1D6E000E1C6E000E5A
:10DF74001B6E000E1A6ECBEF6FF0000E046E200EB7
:10DF8400036E13C005F014C006F04BEC6FF01A4A90
:10DF94001B2A1C501A5C1B50800A196E1D50800AE3
:10DFA4001958D8A0D8EF6FF0DAEF6FF0BFEF6FF029
:10DFB400000198B1E0EF6FF0E2EF6FF0ECEF6FF07B
:10DFC40015C00CF016C00DF013C00EF014C00FF005
:10DFD40072EC6EF015C001F016C002F0A6EC6DF004
:10DFE4001C500124136E1D500220146E120009509F
:10DFF4000A100B100C100D100E100F101010D8B4C6
:10E0040006EF70F008EF70F050EF70F0010E116E33
:10E0140016EF70F0D89009360A360B360C360D36EA
:10E024000E360F361036112A10AE1BEF70F01DEFAE
:10E0340070F00CEF70F00950015C0A5002580B505C
:10E0440003580C5004580D5005580E5006580F50E4
:10E05400075810500858D8A032EF70F034EF70F021
:10E0640044EF70F00950015E0A50025A0B50035AF3
:10E074000C50045A0D50055A0E50065A0F50075AA8
:10E084001050085AD89010320F320E320D320C3222
:10E094000B320A320932112E1DEF70F001C001F06B
:10E0A40002C002F003C003F004C004F005C005F090
:10E0B40006C006F007C007F008C008F0120001C04F
:10E0C40008F002C009F003C00AF004C00BF0050612
:10E0D400D8A00606052806E10628D8A474EF70F037
:10E0E40076EF70F083EF70F0000E026E000E016E9A
:10E0F400D5EF70F0084A092A0A4A0B2A0506D8A067
:10E10400060608C0F6FF09C0F7FFF86A0800F550D4
:10E114000009D8B490EF70F092EF70F0C1EF70F096
:10E124000AC0F6FF0BC0F7FFF86A0800F5500009B3
:10E13400D8B49FEF70F0A1EF70F0C1EF70F005500C
:10E144000610D8B4A8EF70F0AAEF70F0C1EF70F029
:10E1540008C0F6FF09C0F7FFF86A0800F5CF07F01A
:10E164000AC0F6FF0BC0F7FFF86A0800F55007185D
:10E17400D8B4BFEF70F0C1EF70F07CEF70F008C05E
:10E18400F6FF09C0F7FFF86A0800F5CF07F00AC0E8
:10E19400F6FF0BC0F7FFF86A0800F550075C016E44
:10E1A400026AD8A00206120020EE11F0070EDE6A01
:10E1B400E806FDE209500A100B100C100D100E10A9
:10E1C4000F101010D8B4E9EF70F0EBEF70F03DEFE2
:10E1D40071F0010E196EF9EF70F0D89009360A3615
:10E1E4000B360C360D360E360F361036192A10AE95
:10E1F400FEEF70F000EF71F0EFEF70F0D890113691
:10E2040012361336143615361636173618360950A4
:10E21400015C0A5002580B5003580C5004580D501E
:10E2240005580E5006580F50075810500858D8A0DB
:10E234001EEF71F020EF71F031EF71F00950015EC3
:10E244000A50025A0B50035A0C50045A0D50055AE6
:10E254000E50065A0F50075A1050085A1180D89081
:10E2640010320F320E320D320C320B320A320932B6
:10E27400192E00EF71F011C001F012C002F013C0AA
:10E2840003F014C004F015C005F016C006F017C062
:10E2940007F018C008F01200000E126E08BE57EF07
:10E2A40071F055EF71F069EF71F0081E071E061E3C
:10E2B400051E041E031E021E016C000E0222032210
:10E2C40004220522062207220822010E126E10BE25
:10E2D40070EF71F06EEF71F080EF71F0101E0F1E91
:10E2E4000E1E0D1E0C1E0B1E0A1E096C000E0A22A9
:10E2F4000B220C220D220E220F22102209500A108A
:10E304000B100C100D100E100F101010D8B48DEF50
:10E3140071F08FEF71F0D7EF71F0010E116E9DEF78
:10E3240071F0D89009360A360B360C360D360E3697
:10E334000F361036112A10AEA2EF71F0A4EF71F06F
:10E3440093EF71F00950015C0A5002580B500358C6
:10E354000C5004580D5005580E5006580F500758CD
:10E3640010500858D8A0B9EF71F0BBEF71F0CBEFA3
:10E3740071F00950015E0A50025A0B50035A0C50B6
:10E38400045A0D50055A0E50065A0F50075A105091
:10E39400085AD89010320F320E320D320C320B3232
:10E3A4000A320932112EA4EF71F01250D8B4DDEF05
:10E3B40071F0DFEF71F0EFEF71F0081E071E061E1B
:10E3C400051E041E031E021E016C000E02220322FF
:10E3D4000422052206220722082201C001F002C0FD
:10E3E40002F003C003F004C004F005C005F006C049
:10E3F40006F007C007F008C008F01200000E126E05
:10E4040010BE09EF72F007EF72F01BEF72F0101EEE
:10E414000F1E0E1E0D1E0C1E0B1E0A1E096C000E76
:10E424000A220B220C220D220E220F221022010E90
:10E43400126E08BE22EF72F020EF72F034EF72F029
:10E44400081E071E061E051E041E031E021E016C66
:10E45400000E022203220422052206220722082299
:10E46400010E121A20EE13F0070EDE6AE806FDE232
:10E4740009500A100B100C100D100E100F10101074
:10E48400D8B447EF72F049EF72F09BEF72F0010ECF
:10E49400116E57EF72F0D89009360A360B360C36E7
:10E4A4000D360E360F361036112A10AE5CEF72F0B0
:10E4B4005EEF72F04DEF72F0D890133614361536C5
:10E4C40016361736183619361A360950015C0A50B2
:10E4D40002580B5003580C5004580D5005580E5058
:10E4E40006580F50075810500858D8A07CEF72F007
:10E4F4007EEF72F08FEF72F00950015E0A50025AFB
:10E504000B50035A0C50045A0D50055A0E50065A1B
:10E514000F50075A1050085A1380D89010320F32F7
:10E524000E320D320C320B320A320932112E5EEFEA
:10E5340072F01250D8B4A1EF72F0A3EF72F0B3EFFF
:10E5440072F01A1E191E181E171E161E151E141EF2
:10E55400136C000E142215221622172218221922D7
:10E564001A2213C001F014C002F015C003F016C043
:10E5740004F017C005F018C006F019C007F01AC05F
:10E5840008F01200000E166E000E156E000E0F6ECF
:10E59400000E0E6ED0EF72F0084A092A010E146EB6
:10E5A40008C0F6FF09C0F7FFF86A0800F550200A12
:10E5B400D8B4DFEF72F0E1EF72F0FFEF72F0F70E14
:10E5C4000A6EFF0E0B6E08C0F6FF09C0F7FFF86A6B
:10E5D4000800F5500C6E0D6A0A500C260B500D22E3
:10E5E4000D5009E1050E0C5CD8A0FBEF72F0FDEFB5
:10E5F40072F0FFEF72F0000E146E14C010F0116A86
:10E6040010501110D8A409EF73F00BEF73F0CEEF94
:10E6140072F015EF73F0000E0F6E010E0E6E084AC5
:10E62400092A4CEF73F008C0F6FF09C0F7FFF86A37
:10E634000800F5500A6E0B6A0B50000AD8B425EF97
:10E6440073F04CEF73F00A502B0AD8B411EF73F047
:10E65400060AD8B40DEF73F04CEF73F015C001F057
:10E6640016C002F0000E046E0A0E036E2AEC6DF062
:10E6740008C0F6FF09C0F7FFF86A0800F550015E0C
:10E68400000E025A300E0124156E000E0220166E82
:10E6940011EF73F0D00E0A6EFF0E0B6E08C0F6FF7A
:10E6A40009C0F7FFF86A0800F5500C6E0D6A0A50AD
:10E6B4000C260B500D220D500AE10A0E0C5CD8A05A
:10E6C40066EF73F069EF73F0010E6AEF73F0000EFA
:10E6D400126E136A12501310D8A473EF73F075EF0F
:10E6E40073F030EF73F00E500F10D8A47CEF73F07A
:10E6F4007EEF73F08CEF73F015C00AF016C00BF0C8
:10E704000A1E0B1E0A4A0B2A0AC008F00BC009F0A5
:10E7140090EF73F015C008F016C009F01200000164
:10E7240097BF97EF73F099EF73F09AEF73F09893A4
:10E7340097BFA7EF73F0975106E19605D8B0A5EF00
:10E7440073F0A7EF73F0ADEF73F0000E316E010EAE
:10E75400306EB1EF73F096C030F097C031F094C0D2
:10E7640032F095C033F020C034F021C035F022C01F
:10E7740036F023C037F024C038F025C039F026C065
:10E784003AF027C03BF0000E3D6E1F0E3C6E000EAB
:10E79400C16F43EF74F03C06D8A03D06A20E3C24A2
:10E7A400D96E000E3D20DA6E34C001F035C002F09F
:10E7B40036C003F037C004F038C005F039C006F0A5
:10E7C4003AC007F03BC008F00A0E096E000E0A6E4C
:10E7D400000E0B6E000E0C6E000E0D6E000E0E6E13
:10E7E400000E0F6E000E106EF9EC6FF001C028F0F1
:10E7F40002C029F003C02AF004C02BF005C02CF09D
:10E8040006C02DF007C02EF008C02FF02850300F9E
:10E81400DF6E3006D8A031063206D8A0330634C0E5
:10E8240001F035C002F036C003F037C004F038C040
:10E8340005F039C006F03AC007F03BC008F00A0EF4
:10E84400096E000E0A6E000E0B6E000E0C6E000EAA
:10E854000D6E000E0E6E000E0F6E000E106ED6ECD6
:10E8640070F001C034F002C035F003C036F004C0CB
:10E8740037F005C038F006C039F007C03AF008C0D8
:10E884003BF03C503D10D8B44AEF74F04CEF74F0B8
:10E894007DEF74F0345035103610371038103910BD
:10E8A4003A103B10D8A459EF74F05BEF74F0CDEF3D
:10E8B40073F031BE68EF74F0315006E13004D8B023
:10E8C40066EF74F068EF74F0CDEF73F033BE73EF5E
:10E8D40074F0335008E13204D8A073EF74F075EF8C
:10E8E40074F07DEF74F0000198B37BEF74F07DEF6A
:10E8F40074F0CDEF73F01EC013F01FC014F0A20E1D
:10E904003C24156E000E3D20166E32C017F033C045
:10E9140018F096EC6FF013C01EF014C01FF0120034
:10E92400000197BF98EF74F09AEF74F09BEF74F0C6
:10E93400989397BFA8EF74F0975106E19605D8B065
:10E94400A6EF74F0A8EF74F0AEEF74F0000E366E1C
:10E95400010E356EB2EF74F096C035F097C036F004
:10E9640094C037F095C038F098A9BBEF74F0BDEFB0
:10E9740074F0C1EF74F0FE0E3726FF0E382220C06B
:10E9840039F021C03AF022C03BF023C03CF024C04F
:10E994003DF025C03EF026C03FF027C040F0000EF9
:10E9A400426E1F0E416E000EC16F8CEF75F0410672
:10E9B400D8A042060F0E3914436E446A44BEECEFED
:10E9C40074F0445009E10A0E435CD8A0ECEF74F0F3
:10E9D400EEEF74F0F6EF74F0570E4324436E000E1E
:10E9E4004420446EFCEF74F0300E4324436E000E5A
:10E9F4004420446EBF0E296EFF0E2A6E28502B6EE3
:10EA04002C6A29502B262A502C222C500AE11A0E4B
:10EA14002B5CD8A010EF75F013EF75F0010E14EF16
:10EA240075F0000E316E326A31503210D8B41DEFD9
:10EA340075F01FEF75F04FEF75F09F0E296EFF0E06
:10EA44002A6E200E43102B6E000E44102C6E29509B
:10EA54002B262A502C222C500AE11A0E2B5CD8A00B
:10EA640036EF75F039EF75F0010E3AEF75F0000EE0
:10EA7400336E346A33503410D8B443EF75F045EF35
:10EA840075F04FEF75F043C007F044C008F0EAECAE
:10EA94006EF007C043F008C044F0A20E4124D96EC2
:10EAA400000E4220DA6E43C0DFFF3506D8A03606DA
:10EAB4003706D8A0380639C029F03AC02AF03BC03E
:10EAC4002BF03CC02CF03DC02DF03EC02EF03FC0DA
:10EAD4002FF040C030F0050E79EF75F0D890303249
:10EAE4002F322E322D322C322B322A322932E82E7A
:10EAF40070EF75F029C039F02AC03AF02BC03BF012
:10EB04002CC03CF02DC03DF02EC03EF02FC03FF095
:10EB140030C040F042BE98EF75F0425009E1020E59
:10EB2400415CD8A098EF75F09AEF75F0CBEF75F0D3
:10EB340039503A103B103C103D103E103F1040102D
:10EB4400D8A4A7EF75F0A9EF75F0D9EF74F036BE2D
:10EB5400B6EF75F0365006E13504D8B0B4EF75F071
:10EB6400B6EF75F0D9EF74F038BEC1EF75F03850D8
:10EB740008E13704D8A0C1EF75F0C3EF75F0CBEF0F
:10EB840075F0000198B3C9EF75F0CBEF75F0D9EFCC
:10EB940074F0000198A9D1EF75F0D3EF75F0E9EFA7
:10EBA40075F04106D8A04206A20E4124D96E000E8B
:10EBB4004220DA6E28C0DFFF4106D8A04206A20E2A
:10EBC4004124D96E000E4220DA6E300EDF6E1EC074
:10EBD40013F01FC014F0A20E4124156E000E422043
:10EBE400166E37C017F038C018F096EC6FF013C0EB
:10EBF4001EF014C01FF0120020C038F021C039F0FC
:10EC040022C03AF023C03BF024C03CF025C03DF0C4
:10EC140026C03EF027C03FF03FBE13EF76F016EF5C
:10EC240076F0010E17EF76F0000E366E376A365026
:10EC34003710D8B420EF76F022EF76F032EF76F08A
:10EC44003F1E3E1E3D1E3C1E3B1E3A1E391E386CA6
:10EC5400000E39223A223B223C223D223E223F2210
:10EC6400000197BF38EF76F03AEF76F03BEF76F09D
:10EC7400989397BF48EF76F0975106E19605D8B080
:10EC840046EF76F048EF76F04EEF76F0000E336EF6
:10EC9400010E326E52EF76F096C032F097C033F028
:10ECA40094C034F095C035F036503710D8A45DEFD9
:10ECB40076F05FEF76F066EF76F098A564EF76F085
:10ECC40066EF76F069EF76F03406D8A03506000ECC
:10ECD400416E1F0E406E000EC16FEDEF76F04006E0
:10ECE400D8A04106A20E4024D96E000E4120DA6E4F
:10ECF40038C001F039C002F03AC003F03BC004F060
:10ED04003CC005F03DC006F03EC007F03FC008F02F
:10ED14000A0E096E000E0A6E000E0B6E000E0C6ECB
:10ED2400000E0D6E000E0E6E000E0F6E000E106EB5
:10ED34004EEC71F001C028F002C029F003C02AF0A3
:10ED440004C02BF005C02CF006C02DF007C02EF037
:10ED540008C02FF028C013F02AC014F052EC6EF053
:10ED64001350300FDF6E3206D8A033063406D8A015
:10ED7400350638C001F039C002F03AC003F03BC098
:10ED840004F03CC005F03DC006F03EC007F03FC0B3
:10ED940008F00A0E096E000E0A6E000E0B6E000ECD
:10EDA4000C6E000E0D6E000E0E6E000E0F6E000E39
:10EDB400106E00EC72F001C038F002C039F003C0EC
:10EDC4003AF004C03BF005C03CF006C03DF007C07B
:10EDD4003EF008C03FF041BEF8EF76F0415008E144
:10EDE4004004D8A0F8EF76F0FAEF76F02BEF77F046
:10EDF400385039103A103B103C103D103E103F1073
:10EE0400D8A407EF77F009EF77F071EF76F033BE0F
:10EE140016EF77F0335006E13204D8B014EF77F0F0
:10EE240016EF77F071EF76F035BE21EF77F03550BD
:10EE340008E13404D8A021EF77F023EF77F02BEF2B
:10EE440077F0000198B329EF77F02BEF77F071EFAB
:10EE540076F036503710D8A432EF77F034EF77F0ED
:10EE64003CEF77F0000198A53AEF77F03CEF77F0AC
:10EE74005AEF77F04006D8A0410636503710D8A490
:10EE840046EF77F048EF77F04EEF77F0000E316EF3
:10EE94002B0E306E52EF77F0000E316E2D0E306E69
:10EEA400A20E4024D96E000E4120DA6E30C0DFFF7E
:10EEB4001EC013F01FC014F0A20E4024156E000EE5
:10EEC4004120166E34C017F035C018F096EC6FF080
:10EED40013C01EF014C01FF01200AB0E00018B6FA4
:10EEE400AB0E896FCD0E886F000E8D6F7F0E8C6F09
:10EEF400F0EC6CF0000E026E000E016EB5EC6CF0DE
:10EF0400F294D1EC6CF00009D8B48BEF77F08DEF6C
:10EF140077F083EF77F0910E0001776FFF0E786F33
:10EF240065EC6DF0840E0001776FFF0E786F65EC71
:10EF34006DF0FE0E0001776FFE0E786F65EC6DF0DC
:10EF44003A0E0001776FFF0E786F65EC6DF0E50EF9
:10EF54000001776FFF0E786F65EC6DF0C7EC6CF015
:10EF64000009D8B4B8EF77F0BAEF77F0B0EF77F0E4
:10EF74003DEC6DF00001876FE5EF79F0750E776F6A
:10EF8400FE0E786F65EC6DF0590E0001776FFF0E81
:10EF9400786F65EC6DF0D10E0001776FFF0E786F1E
:10EFA40065EC6DF0140E0001776FFF0E786F65EC61
:10EFB4006DF0E60E0001776FFE0E786F65EC6DF074
:10EFC4001E0E0001776FFD0E786F65EC6DF0230E59
:10EFD40000018E6F010E8F6FCD0E906FAB0E916F8F
:10EFE400EA0E776FFF0E786FCD0E796FAB0E7A6FE6
:10EFF400000E7B6F000E7C6F65EC6DF0D80E000187
:10F00400776FFF0E786F230E796F010E7A6F000E03
:10F014007B6F000E7C6F65EC6DF09A0E0001776FCC
:10F02400FD0E786F65EC6DF0CC0E0001776FFE0E6F
:10F03400786F65EC6DF0B20E0001776FFE0E786F9D
:10F0440065EC6DF0720E0001776FFD0E786F65EC64
:10F054006DF0750E0001776FFE0E786F65EC6DF044
:10F06400B0EF77F0A50E776FFF0E786F8BC079F055
:10F074007A6B65EC6DF0B70E0001776FFF0E786F59
:10F084008BC079F07A6B65EC6DF0AE0E0001776F92
:10F09400FF0E786F8BC079F07A6B65EC6DF0C00E63
:10F0A4000001776FFF0E786F8BC079F07A6B65EC97
:10F0B4006DF04A0E0001776FFF0E786F8BC079F008
:10F0C4007A6B65EC6DF0A50E0001776FFF0E786F1B
:10F0D40088C079F089C07AF065EC6DF0B70E000154
:10F0E400776FFF0E786F88C079F089C07AF065EC8D
:10F0F4006DF0AE0E0001776FFF0E786F88C079F067
:10F1040089C07AF065EC6DF0C00E0001776FFF0ED8
:10F11400786F88C079F089C07AF065EC6DF04A0E9A
:10F124000001776FFF0E786F88C079F089C07AF09C
:10F1340065EC6DF0A50E0001776FFF0E786F8EC041
:10F1440079F08FC07AF090C07BF091C07CF065ECD0
:10F154006DF0B70E0001776FFF0E786F8EC079F0F7
:10F164008FC07AF090C07BF091C07CF065EC6DF0BC
:10F17400AE0E0001776FFF0E786F8EC079F08FC0EE
:10F184007AF090C07BF091C07CF065EC6DF0C00E1D
:10F194000001776FFF0E786F8EC079F08FC07AF020
:10F1A40090C07BF091C07CF065EC6DF0DF0E000147
:10F1B400776FFF0E786F90C079F091C07AF07B6B17
:10F1C4007C6B65EC6DF0D80E0001776FFF0E786FE5
:10F1D400FF0E8E15796FFF0E8F157A6F000E901546
:10F1E4007B6F000E91157C6F65EC6DF0C90E00010C
:10F1F400776FFF0E786F8EC079F08FC07AF090C071
:10F204007BF091C07CF065EC6DF0B0EF77F00D0E03
:10F21400776FFE0E786F65EC6DF0C10E0001776FAD
:10F22400FD0E786F65EC6DF04A0E0001776FFD0EF0
:10F23400786F65EC6DF0960E0001776FFE0E786FB7
:10F2440065EC6DF0530E0001776FFE0E786F65EC80
:10F254006DF09C0E0001776FFF0E786F65EC6DF01A
:10F26400E70E0001776FFD0E786F65EC6DF0310EDF
:10F274000001776FFE0E786F65EC6DF0B0EF77F0FC
:10F28400D30E776FFF0E786F65EC6DF0B0EF77F00B
:10F29400760E776FFF0E786FA2EC6CF00001816F31
:10F2A4008151796F7A6B65EC6DF0B0EF77F0680E91
:10F2B400776FFF0E786F0BEC6DF001C079F002C030
:10F2C4007AF065EC6DF0B0EF77F08D5109E1100E36
:10F2D4008C5DD8A070EF79F072EF79F076EF79F069
:10F2E400100E8C5F000E8D5B8CC001F08DC002F09F
:10F2F4008EEC6DF0D70E0001776FFC0E786F8CC02A
:10F3040079F08DC07AF0000E7C6F7B6965EC6DF04E
:10F31400B0EF77F08D5107E1F00E8C5DD8B095EF2A
:10F3240079F097EF79F09BEF79F0100E8C27000EAF
:10F334008D238CC001F08DC002F08EEC6DF0D70EE1
:10F344000001776FFC0E786F8CC079F08DC07AF075
:10F35400000E7C6F7B6965EC6DF0B0EF77F0000E0A
:10F364008A6F570E776FFF0E786F65EC6DF00001B2
:10F374008A2B270E8A65C1EF79F0C3EF79F0B3EFDA
:10F3840079F0FF00B0EF77F0000E8A6F570E776FB9
:10F39400FF0E786F65EC6DF000018A2B270E8A65ED
:10F3A400D6EF79F0D8EF79F0C8EF79F0B0EF77F0D5
:10F3B400290E776FFF0E786F87C079F07A6B65EC52
:10F3C4006DF0B0EF77F08751816F826B8251000A44
:10F3D400D8B4EFEF79F0DAEF79F081513F0AD8B47D
:10F3E400C0EF77F06F0AD8B48CEF79F0040AD8B480
:10F3F40059EF79F00E0AD8B4B1EF79F03F0AD8B4D6
:10F4040009EF79F0030AD8B434EF78F0090AD8B4D4
:10F4140042EF79F01F0AD8B467EF79F0040AD8B440
:10F424004AEF79F00E0AD8B4C6EF79F0DAEF79F042
:10F4340000EF00F047C0D9FF48C0DAFFDECFF6FF87
:10F44400DDCFF7FFF86A0800F550250AD8A42DEFA0
:10F454007AF02FEF7AF04EEF7EF047C0D9FF48C024
:10F46400DAFFDE2A000EDD22000E0001956F000E89
:10F47400946F94C098F095C099F096699769000EBE
:10F48400616F000E606F8EEF7AF0988147C0D9FFEC
:10F4940048C0DAFFDE2A000EDD228EEF7AF0988370
:10F4A40048EF7AF0988548EF7AF0988748EF7AF039
:10F4B400988948EF7AF0000E616F010E606F8EEF4D
:10F4C4007AF047C0D9FF48C0DAFFDECFF6FFDDCFC0
:10F4D400F7FFF86A0800F5504B6E4C6A4C50000A6E
:10F4E400D8B477EF7AF05DEF7AF04B50200AD8B4B5
:10F4F40057EF7AF0030AD8B45AEF7AF0080AD8B46E
:10F5040054EF7AF0060AD8B447EF7AF01D0AD8B45B
:10F5140051EF7AF05DEF7AF060516111D8B495EF54
:10F524007AF097EF7AF063EF7AF098A19CEF7AF093
:10F534009EEF7AF09FEF7AF0989347C0D9FF48C0C6
:10F54400DAFFDECFF6FFDDCFF7FFF86A0800F550EB
:10F554002A0AD8A4B0EF7AF0B2EF7AF0DBEF7AF0AF
:10F5640047C0D9FF48C0DAFFDE2A000EDD2249C0B9
:10F57400D9FF4AC0DAFFDFCF4BF0020EDE26DFCF21
:10F584004CF0000EDD224BC0D9FF4CC0DAFFDECFB9
:10F5940094F0DDCF95F095BFD4EF7AF0D2EF7AF006
:10F5A40020EF7BF09881946D951FD8B0952B20EFB8
:10F5B4007BF047C0D9FF48C0DAFFDECF08F0DDCFCB
:10F5C40009F0C4EC72F008C094F009C095F0F2EFB1
:10F5D4007AF047C0D9FF48C0DAFFDE2A000EDD22E8
:10F5E400D00E4B6EFF0E4C6E47C0D9FF48C0DAFFF9
:10F5F400DECFF6FFDDCFF7FFF86A0800F5504D6E59
:10F604004E6A4B504D264C504E224E500AE10A0E83
:10F614004D5CD8A010EF7BF013EF7BF0010E14EFDC
:10F624007BF0000E0001626F636B62516311D8A41A
:10F634001EEF7BF020EF7BF0EBEF7AF047C0D9FFB1
:10F6440048C0DAFFDECFF6FFDDCFF7FFF86A080027
:10F65400F550630AD8A431EF7BF033EF7BF05AEF17
:10F664007BF047C0D9FF48C0DAFFDE2A000EDD2256
:10F6740049C0D9FF4AC0DAFFDFCF4BF0020EDE26C5
:10F68400DFCF4CF0000EDD224BC0D9FF4CC0DAFFB7
:10F69400DF506C6F45C01EF046C01FF06CC020F0F8
:10F6A400BDEC6EF01EC045F01FC046F06AEF7EF060
:10F6B40047C0D9FF48C0DAFFDECFF6FFDDCFF7FF42
:10F6C400F86A0800F550640AD8B46BEF7BF06DEF6C
:10F6D4007BF080EF7BF047C0D9FF48C0DAFFDECF74
:10F6E400F6FFDDCFF7FFF86A0800F550690AD8A4E1
:10F6F4007EEF7BF080EF7BF0C0EF7BF047C0D9FF5B
:10F7040048C0DAFFDE2A000EDD2249C0D9FF4AC014
:10F71400DAFFDFCF4BF0020EDE26DFCF4CF0000E17
:10F72400DD224BC0D9FF4CC0DAFFDECF64F0DDCF61
:10F7340065F0000E65BFFF0E666F676F686F696FD7
:10F744006A6F6B6F45C01EF046C01FF064C020F0A6
:10F7540065C021F066C022F067C023F068C024F0C1
:10F7640069C025F06AC026F06BC027F0FEEC75F086
:10F774001EC045F01FC046F06AEF7EF047C0D9FFB7
:10F7840048C0DAFFDECF01F0DDCF02F0F20E036EE7
:10F79400FF0E046E000E066E020E056E61EC70F034
:10F7A40001500210D8B4D9EF7BF0DBEF7BF0F6EF19
:10F7B4007BF047C0D9FF48C0DAFFDECF01F0DDCFD0
:10F7C40002F0F50E036EFF0E046E000E066E020EBE
:10F7D400056E61EC70F001500210D8A4F4EF7BF0D8
:10F7E400F6EF7BF053EF7CF0020E47C0D9FF48C020
:10F7F400DAFFDE26000EDD2249C0D9FF4AC0DAFF57
:10F80400DFCF4BF0040EDE26DFCF4CF0000EDD22FE
:10F814004BC0D9FF4CC0DAFFDECF4DF0DECF4EF047
:10F82400DECF4FF0DECF50F04DC051F04EC052F05D
:10F834004FC053F050C054F0556A54BE556855C07B
:10F8440056F055C057F055C058F051C064F052C03E
:10F8540065F053C066F054C067F055C068F056C0F8
:10F8640069F057C06AF058C06BF045C01EF046C03E
:10F874001FF064C020F065C021F066C022F067C0AC
:10F8840023F068C024F069C025F06AC026F06BC07C
:10F8940027F0FEEC75F01EC045F01FC046F06AEF7D
:10F8A4007EF047C0D9FF48C0DAFFDECFF6FFDDCFD8
:10F8B400F7FFF86A0800F550750AD8A464EF7CF0E5
:10F8C40066EF7CF0A8EF7CF047C0D9FF48C0DAFFB0
:10F8D400DE2A000EDD2249C0D9FF4AC0DAFFDFCF9D
:10F8E4004BF0020EDE26DFCF4CF0000EDD224BC0C3
:10F8F400D9FF4CC0DAFFDECF4DF0DDCF4EF04DC066
:10F904006DF04EC06EF000016F6B706B716B726BBB
:10F91400736B746B45C01EF046C01FF06DC020F0C1
:10F924006EC021F06FC022F070C023F071C024F0CB
:10F9340072C025F073C026F074C027F091EC73F008
:10F944001EC045F01FC046F06AEF7EF047C0D9FFE5
:10F9540048C0DAFFDECF01F0DDCF02F0F80E036E0F
:10F96400FF0E046E000E066E020E056E61EC70F062
:10F9740001500210D8A4C1EF7CF0C3EF7CF00CEF6F
:10F984007DF0020E47C0D9FF48C0DAFFDE26000E24
:10F99400DD2249C0D9FF4AC0DAFFDFCF4BF0040EA5
:10F9A400DE26DFCF4CF0000EDD224BC0D9FF4CC069
:10F9B400DAFFDECF4DF0DECF4EF0DECF4FF0DECFFC
:10F9C40050F04D5000016D6F4E506E6F4F506F6F81
:10F9D4005050706F716B726B736B746B45C01EF01B
:10F9E40046C01FF06DC020F06EC021F06FC022F041
:10F9F40070C023F071C024F072C025F073C026F0EB
:10FA040074C027F091EC73F01EC045F01FC046F09F
:10FA14006AEF7EF047C0D9FF48C0DAFFDECFF6FFB9
:10FA2400DDCFF7FFF86A0800F550780AD8B41DEF67
:10FA34007DF01FEF7DF032EF7DF047C0D9FF48C065
:10FA4400DAFFDECFF6FFDDCFF7FFF86A0800F550E6
:10FA5400580AD8A430EF7DF032EF7DF082EF7DF0CC
:10FA640047C0D9FF48C0DAFFDECFF6FFDDCFF7FF8E
:10FA7400F86A0800F5CF6CF047C0D9FF48C0DAFF38
:10FA8400DE2A000EDD2249C0D9FF4AC0DAFFDFCFEB
:10FA94004BF0020EDE26DFCF4CF0000EDD224BC011
:10FAA400D9FF4CC0DAFFDECF4DF0DDCF4EF04DC0B4
:10FAB4006DF04EC06EF000016F6B706B716B726B0A
:10FAC400736B746B45C01EF046C01FF06DC020F010
:10FAD4006EC021F06FC022F070C023F071C024F01A
:10FAE40072C025F073C026F074C027F06CC028F0F3
:10FAF40092EC74F01EC045F01FC046F06AEF7EF031
:10FB040047C0D9FF48C0DAFFDECF01F0DDCF02F0F5
:10FB1400FB0E036EFF0E046E000E066E020E056EE3
:10FB240061EC70F001500210D8B49BEF7DF09DEFB2
:10FB34007DF0B8EF7DF047C0D9FF48C0DAFFDECFD3
:10FB440001F0DDCF02F0EF0E036EFF0E046E000E27
:10FB5400066E020E056E61EC70F001500210D8A41E
:10FB6400B6EF7DF0B8EF7DF017EF7EF047C0D9FF18
:10FB740048C0DAFFDECF4BF0DDCF4CF0010E4B2650
:10FB8400000E4C224BC0F6FF4CC0F7FFF86A080089
:10FB9400F5CF6CF0020E47C0D9FF48C0DAFFDE266D
:10FBA400000EDD2249C0D9FF4AC0DAFFDFCF4BF097
:10FBB400040EDE26DFCF4CF0000EDD224BC0D9FF51
:10FBC4004CC0DAFFDECF4DF0DECF4EF0DECF4FF08B
:10FBD400DECF50F04D5000016D6F4E506E6F4F50A0
:10FBE4006F6F5050706F716B726B736B746B45C039
:10FBF4001EF046C01FF06DC020F06EC021F06FC033
:10FC040022F070C023F071C024F072C025F073C0DC
:10FC140026F074C027F06CC028F092EC74F01EC07B
:10FC240045F01FC046F06AEF7EF047C0D9FF48C0D8
:10FC3400DAFFDECFF6FFDDCFF7FFF86A0800F550F4
:10FC4400250AD8A428EF7EF02AEF7EF041EF7EF05B
:10FC540047C0D9FF48C0DAFFDE2A000EDD22000EBD
:10FC6400046E250E036E45C005F046C006F04BEC4D
:10FC74006FF0000E466E010E456E6AEF7EF047C0CF
:10FC8400D9FF48C0DAFFDE2A000EDD22000E466EE0
:10FC9400000E456E6AEF7EF047C0D9FF48C0DAFF18
:10FCA400DECFF6FFDDCFF7FFF86A0800F550036EEC
:10FCB400046A45C005F046C006F04BEC6FF047C03F
:10FCC400D9FF48C0DAFFDE2A000EDD223BEF7EF0CA
:10FCD4001200005468652064757479206379636C3C
:10FCE4006520697320256420544D523220636F755A
:10FCF4006E7473206869676820696E20612070657E
:10FD040072696F64206F6620256420544D5232203E
:10FD1400636F756E74732E0D0A00663A20707269F3
:10FD24006E74207573696E67207365766572616C95
:10FD340020666F726D6174207370656369666965AE
:10FD440072732E0D0A005468697320697320686FFA
:10FD54007720796F75207072696E742061206261FA
:10FD6400636B736C617368205C20200D0A00702F34
:10FD7400503A2064656372656173652F696E6372BE
:10FD8400656173652050574D2064757479206379DB
:10FD9400636C650D0A00653A207072696E74207395
:10FDA40065766572616C2065736361706564206358
:10FDB4006861726163746572732E0D0A0054686918
:10FDC4007320697320686F7720796F75207072696A
:10FDD4006E7420612070657263656E742025252021
:10FDE4000D0A0054686973206973206120686F727A
:10FDF400697A6F6E74616C20746162200920696E87
:10FE0400206C696E652E0D0A00546869732069734D
:10FE140020686F7720796F75207072696E74206125
:10FE24002071756F7465202220200D0A00546869C2
:10FE3400732069732061206261636B737061636511
:10FE440020086368617261637465722E0D0A004C48
:10FE5400696E652077697468206A757374206120FF
:10FE640063617272696167652072657475726E0D83
:10FE7400002D2D2D2D2D2D2D2D2D2D2D2D2D2D2DDB
:10FE84002D2D2D2D2D2D2D2D2D2D2D2D2D2D2D0DBE
:10FE94000A004C696E652077697468206A7573740A
:10FEA4002061206E6577206C696E65200A00543AE3
:10FEB40020446973706C61792063757272656E7425
:10FEC40020544D52300D0A00743A20446973706C0A
:10FED40061792063757272656E7420544D52320DCF
:10FEE4000A007A3A20436C65617220746865207454
:10FEF40065726D696E616C0D0A0044657627323156
:10FF040020626F61726420776972696E670D0A00FE
:10FF14005A3A2052657365742070726F6365737307
:10FF24006F720D0A00556E6B6E6F776E206B65797C
:10FF34002025630D0A00524332203C2D3E20526599
:10FF440064204C454400252530347820253034780D
:10FF54000D0A0D0A003F3A2048656C70206D656EED
:10FF6400750D0A00544D5230203D20253034580D73
:10FF74000A00544D5232203D20253034580D0A00D9
:10FF8400436F6C6F7220437562650D0A00696E4C95
:10FF940061622030350D0A00686572653F3F0D0AC5
:10FFA400002525632025630D0A002525642025648A
:10FFB4000D0A002525752025750D0A0025257820B4
:10FFC40025780D0A002530386C780D0A006F3A2028
:10FFD4006B0D0A00253034780D0A00253034783A48
:10FFE400000D0A3E200030782558006C58006C64DF
:0BFFF400006C69006C75006C78000068
:020000040020DA
:08000000FFFFFFFFFFFFFFFF00
:020000040030CA
:0E000000FF281F3CFFBF85FF0FC00FE00F4021
:00000001FF
