:020000040000FA
:04000000F3EF7EF0AC
:10FCF0000250D76E01C0D6FF1200DEEC7EF09AEC07
:10FD00007EF0A8EC7EF0B6EC7EF01200F2B48BEF41
:10FD10007EF08EEF7EF0010E8FEF7EF0000E12006F
:10FD20009EB095EF7EF098EF7EF0010E99EF7EF099
:10FD3000000E1200700ED36E040ED26E400E9B6E3B
:10FD4000D2AEA5EF7EF0A7EF7EF0A0EF7EF012001E
:10FD5000000ECC6E000ECF6E000ECE6ECECF5EF0DB
:10FD6000CFCF5FF09E90010ECD6E1200D59CFC0EA1
:10FD7000D76E170ED66ED650D7CF01F0026A01C0EB
:10FD800002F0016A01105C6E02505D6EF294970EF3
:10FD9000D56E1200CDA4CFEF7EF0D1EF7EF0D9EF7B
:10FDA0007EF0CD900250CF6E01C0CEFFCD80DDEF52
:10FDB0007EF00250CF6E01C0CEFF1200000E896EA1
:10FDC000000E8A6E000E8B6E9268DF0E936E946842
:10FDD000FC0E0F013A6F1F0E396F230E386F000EA5
:10FDE000616EF18E1200140EF66EFE0EF76E000EAE
:10FDF000F86E00EE60F010EE84F00900F5CFEEFF33
:10FE0000E550E150FAE15F6A5E6A5D6A5C6A000192
:10FE10004CEF7FF006470F43423FC03B68383D350B
:10FE20003E326C2FC52C3B2ADC279B25832388215F
:10FE3000A91FE01D341C9E1A1F19B6176316211541
:10FE4000F113D312127A8D5B841E1BB7093D093D55
:10FE5000093D093D093D1BB7093D127A8D5B841EA2
:10FE60001BB7093D093D093D093D093D1BB70C0084
:10FE70000F000F0008000A000C000D000F00110019
:10FE80000A0019000C000E000E000F0011001300F4
:10FE90001300110011000F0020EEBAF010EE31F047
:10FEA000290EDBCFE3FFE806FCE220EE90F010EE37
:10FEB00007F0290EDBCFE3FFE806FCE27DEC7EF0E5
:10FEC00080B465EF7FF067EF7FF060EF7FF0000EAA
:10FED0005B6EB6EC7EF05B50020D070EF324D96E1C
:10FEE000000EF420DA6EDECF03F0DDCF04F0035015
:10FEF0000008016E0450D8A0E82A0008026E78ECD1
:10FF00007EF0D6EF7FF05B50020D310EF324D96EF8
:10FF1000000EF420DA6E190EDE18DE10D8B493EF5E
:10FF20007FF095EF7FF0D6EF7FF0A8EC7EF05B508E
:10FF3000020D310EF324D96E000EF420DA6EDECFFE
:10FF400003F0DDCF04F0D89003360436600E0324AE
:10FF5000D96E000E0420DA6EDECF05F0DDCF06F09C
:10FF600005500008016E0650D8A0E82A0008026E6D
:10FF7000CAEC7EF090EC7EF00009D8B4C2EF7FF0BE
:10FF8000C4EF7FF0BAEF7FF08ABAC9EF7FF0CCEF11
:10FF90007FF0010ECDEF7FF0000EFF0A036E033AF3
:10FFA00003468A500318DF0B03188A6E86EC7EF036
:10FFB0000009D8B4DEEF7FF0E0EF7FF083EF7FF051
:10FFC0008A9AB6EC7EF0F80E026E5F0E016E78EC47
:10FFD0007EF086EC7EF00009D8B4F1EF7FF0F3EF0D
:10FFE0007FF0E9EF7FF05B2A140E5B64FAEF7FF09D
:10FFF000FCEF7FF069EF7FF060EF7FF000EF00F043
:020000040020DA
:08000000FFFFFFFFFFFFFFFF00
:020000040030CA
:0E000000FF281F3CFFBF85FF0FC00FE00F4021
:00000001FF
