:020000040000FA
:04000000A2EF7FF0FC
:10FF44000001E1EF7FF0D38CD38AD3889B8C0F011F
:10FF540038959284399B939A1200000E046E000E19
:10FF6400036EBBEF7FF000F000F000F000F0034AF6
:10FF7400042A0150035C02500458D8A0C4EF7FF057
:10FF8400C6EF7FF0B5EF7FF01200000E086E000E92
:10FF9400076ED5EF7FF0030E026EE80E016EAFEC34
:10FFA4007FF0074A082A0550075C06500858D8A075
:10FFB400DEEF7FF0E0EF7FF0CDEF7FF01200A5ECF5
:10FFC4007FF08A9A80B4E9EF7FF0EBEF7FF0E4EF03
:10FFD4007FF08094F5EF7FF08A7A000E066E010EB2
:10FFE400056EC7EC7FF080B4FAEF7FF0FCEF7FF092
:0CFFF400EEEF7FF0E3EF7FF000EF00F095
:020000040020DA
:08000000FFFFFFFFFFFFFFFF00
:020000040030CA
:0E000000FF281F3FFFBF85FF0FC00FE00F401E
:00000001FF
